{
    "contractName": "Savings",
    "abi": [
        {
            "inputs": [
                {
                    "internalType": "address",
                    "name": "_erc20TokenAddress",
                    "type": "address"
                },
                {
                    "internalType": "address",
                    "name": "_liskTokenAddress",
                    "type": "address"
                },
                {
                    "internalType": "address",
                    "name": "_safuTokenAddress",
                    "type": "address"
                }
            ],
            "stateMutability": "nonpayable",
            "type": "constructor"
        },
        {
            "inputs": [
                {
                    "internalType": "address",
                    "name": "target",
                    "type": "address"
                }
            ],
            "name": "AddressEmptyCode",
            "type": "error"
        },
        {
            "inputs": [
                {
                    "internalType": "address",
                    "name": "account",
                    "type": "address"
                }
            ],
            "name": "AddressInsufficientBalance",
            "type": "error"
        },
        {
            "inputs": [],
            "name": "AddressZeroDetected",
            "type": "error"
        },
        {
            "inputs": [],
            "name": "ContractPaused",
            "type": "error"
        },
        {
            "inputs": [],
            "name": "FailedInnerCall",
            "type": "error"
        },
        {
            "inputs": [],
            "name": "InsufficientAllowance",
            "type": "error"
        },
        {
            "inputs": [],
            "name": "InsufficientFunds",
            "type": "error"
        },
        {
            "inputs": [],
            "name": "InvalidInput",
            "type": "error"
        },
        {
            "inputs": [],
            "name": "InvalidPercentage",
            "type": "error"
        },
        {
            "inputs": [],
            "name": "InvalidTokenAddress",
            "type": "error"
        },
        {
            "inputs": [],
            "name": "InvalidWithdrawal",
            "type": "error"
        },
        {
            "inputs": [],
            "name": "PlanAlreadyExists",
            "type": "error"
        },
        {
            "inputs": [],
            "name": "ReentrancyGuardReentrantCall",
            "type": "error"
        },
        {
            "inputs": [
                {
                    "internalType": "address",
                    "name": "token",
                    "type": "address"
                }
            ],
            "name": "SafeERC20FailedOperation",
            "type": "error"
        },
        {
            "inputs": [],
            "name": "SpendAndSavePlanNotFound",
            "type": "error"
        },
        {
            "inputs": [],
            "name": "UnauthorizedCaller",
            "type": "error"
        },
        {
            "inputs": [],
            "name": "ZeroValueNotAllowed",
            "type": "error"
        },
        {
            "inputs": [],
            "name": "userAutomatedPlanExistsAlreadyExists",
            "type": "error"
        },
        {
            "inputs": [],
            "name": "userSpendAndSavePlanAlreadyExists",
            "type": "error"
        },
        {
            "anonymous": false,
            "inputs": [
                {
                    "indexed": true,
                    "internalType": "address",
                    "name": "user",
                    "type": "address"
                },
                {
                    "indexed": true,
                    "internalType": "address",
                    "name": "token",
                    "type": "address"
                },
                {
                    "indexed": false,
                    "internalType": "uint256",
                    "name": "amount",
                    "type": "uint256"
                },
                {
                    "indexed": false,
                    "internalType": "uint256",
                    "name": "frequency",
                    "type": "uint256"
                }
            ],
            "name": "AutomatedPlanCreated",
            "type": "event"
        },
        {
            "anonymous": false,
            "inputs": [
                {
                    "indexed": true,
                    "internalType": "address",
                    "name": "user",
                    "type": "address"
                },
                {
                    "indexed": true,
                    "internalType": "address",
                    "name": "token",
                    "type": "address"
                },
                {
                    "indexed": false,
                    "internalType": "uint256",
                    "name": "amount",
                    "type": "uint256"
                }
            ],
            "name": "AutomatedSavingExecuted",
            "type": "event"
        },
        {
            "anonymous": false,
            "inputs": [
                {
                    "indexed": true,
                    "internalType": "address",
                    "name": "user",
                    "type": "address"
                },
                {
                    "indexed": true,
                    "internalType": "address",
                    "name": "token",
                    "type": "address"
                },
                {
                    "indexed": false,
                    "internalType": "uint256",
                    "name": "amount",
                    "type": "uint256"
                },
                {
                    "indexed": false,
                    "internalType": "uint256",
                    "name": "frequency",
                    "type": "uint256"
                }
            ],
            "name": "AutomatedSavingSet",
            "type": "event"
        },
        {
            "anonymous": false,
            "inputs": [
                {
                    "indexed": true,
                    "internalType": "address",
                    "name": "user",
                    "type": "address"
                },
                {
                    "indexed": true,
                    "internalType": "address",
                    "name": "token",
                    "type": "address"
                },
                {
                    "indexed": false,
                    "internalType": "uint256",
                    "name": "amount",
                    "type": "uint256"
                }
            ],
            "name": "DepositSuccessful",
            "type": "event"
        },
        {
            "anonymous": false,
            "inputs": [
                {
                    "indexed": true,
                    "internalType": "address",
                    "name": "user",
                    "type": "address"
                },
                {
                    "indexed": true,
                    "internalType": "address",
                    "name": "token",
                    "type": "address"
                },
                {
                    "indexed": false,
                    "internalType": "uint8",
                    "name": "percentage",
                    "type": "uint8"
                },
                {
                    "indexed": false,
                    "internalType": "uint256",
                    "name": "duration",
                    "type": "uint256"
                }
            ],
            "name": "PlanCreated",
            "type": "event"
        },
        {
            "anonymous": false,
            "inputs": [
                {
                    "indexed": true,
                    "internalType": "address",
                    "name": "user",
                    "type": "address"
                },
                {
                    "indexed": true,
                    "internalType": "address",
                    "name": "token",
                    "type": "address"
                },
                {
                    "indexed": false,
                    "internalType": "uint256",
                    "name": "amount",
                    "type": "uint256"
                },
                {
                    "indexed": false,
                    "internalType": "uint256",
                    "name": "duration",
                    "type": "uint256"
                }
            ],
            "name": "SavedSuccessfully",
            "type": "event"
        },
        {
            "anonymous": false,
            "inputs": [
                {
                    "indexed": true,
                    "internalType": "address",
                    "name": "user",
                    "type": "address"
                },
                {
                    "indexed": false,
                    "internalType": "uint256",
                    "name": "amount",
                    "type": "uint256"
                },
                {
                    "indexed": false,
                    "internalType": "uint256",
                    "name": "fee",
                    "type": "uint256"
                },
                {
                    "indexed": false,
                    "internalType": "bool",
                    "name": "earlyWithdrawal",
                    "type": "bool"
                }
            ],
            "name": "SavingsWithdrawn",
            "type": "event"
        },
        {
            "anonymous": false,
            "inputs": [
                {
                    "indexed": true,
                    "internalType": "address",
                    "name": "user",
                    "type": "address"
                },
                {
                    "indexed": true,
                    "internalType": "address",
                    "name": "token",
                    "type": "address"
                },
                {
                    "indexed": false,
                    "internalType": "uint256",
                    "name": "amountSaved",
                    "type": "uint256"
                }
            ],
            "name": "SpendAndSave",
            "type": "event"
        },
        {
            "anonymous": false,
            "inputs": [
                {
                    "indexed": true,
                    "internalType": "address",
                    "name": "token",
                    "type": "address"
                },
                {
                    "indexed": false,
                    "internalType": "enum Savings.TokenType",
                    "name": "tokenType",
                    "type": "uint8"
                }
            ],
            "name": "TokenAdded",
            "type": "event"
        },
        {
            "anonymous": false,
            "inputs": [
                {
                    "indexed": true,
                    "internalType": "address",
                    "name": "token",
                    "type": "address"
                },
                {
                    "indexed": false,
                    "internalType": "enum Savings.TokenType",
                    "name": "tokenType",
                    "type": "uint8"
                }
            ],
            "name": "TokenRemoved",
            "type": "event"
        },
        {
            "anonymous": false,
            "inputs": [
                {
                    "indexed": true,
                    "internalType": "address",
                    "name": "user",
                    "type": "address"
                },
                {
                    "indexed": false,
                    "internalType": "uint256",
                    "name": "txCount",
                    "type": "uint256"
                },
                {
                    "indexed": false,
                    "internalType": "uint256",
                    "name": "txId",
                    "type": "uint256"
                },
                {
                    "indexed": true,
                    "internalType": "address",
                    "name": "token",
                    "type": "address"
                },
                {
                    "indexed": false,
                    "internalType": "string",
                    "name": "typeOfTransaction",
                    "type": "string"
                },
                {
                    "indexed": false,
                    "internalType": "uint256",
                    "name": "amount",
                    "type": "uint256"
                },
                {
                    "indexed": false,
                    "internalType": "uint256",
                    "name": "timestamp",
                    "type": "uint256"
                },
                {
                    "indexed": false,
                    "internalType": "enum Savings.TxStatus",
                    "name": "status",
                    "type": "uint8"
                }
            ],
            "name": "TransactionHistoryUpdated",
            "type": "event"
        },
        {
            "anonymous": false,
            "inputs": [
                {
                    "indexed": true,
                    "internalType": "address",
                    "name": "user",
                    "type": "address"
                },
                {
                    "indexed": false,
                    "internalType": "address",
                    "name": "tokenType",
                    "type": "address"
                },
                {
                    "indexed": false,
                    "internalType": "uint256",
                    "name": "amount",
                    "type": "uint256"
                }
            ],
            "name": "Withdrawn",
            "type": "event"
        },
        {
            "inputs": [],
            "name": "acceptedTokenCount",
            "outputs": [
                {
                    "internalType": "uint8",
                    "name": "",
                    "type": "uint8"
                }
            ],
            "stateMutability": "view",
            "type": "function"
        },
        {
            "inputs": [
                {
                    "internalType": "address",
                    "name": "",
                    "type": "address"
                }
            ],
            "name": "acceptedTokens",
            "outputs": [
                {
                    "internalType": "bool",
                    "name": "",
                    "type": "bool"
                }
            ],
            "stateMutability": "view",
            "type": "function"
        },
        {
            "inputs": [
                {
                    "internalType": "enum Savings.TokenType",
                    "name": "",
                    "type": "uint8"
                }
            ],
            "name": "acceptedTokensAddresses",
            "outputs": [
                {
                    "internalType": "address",
                    "name": "",
                    "type": "address"
                }
            ],
            "stateMutability": "view",
            "type": "function"
        },
        {
            "inputs": [
                {
                    "internalType": "address",
                    "name": "",
                    "type": "address"
                }
            ],
            "name": "automatedSavingsPlans",
            "outputs": [
                {
                    "internalType": "address",
                    "name": "token",
                    "type": "address"
                },
                {
                    "internalType": "uint256",
                    "name": "amount",
                    "type": "uint256"
                },
                {
                    "internalType": "uint256",
                    "name": "frequency",
                    "type": "uint256"
                },
                {
                    "internalType": "uint256",
                    "name": "duration",
                    "type": "uint256"
                },
                {
                    "internalType": "uint256",
                    "name": "lastSavingTimestamp",
                    "type": "uint256"
                }
            ],
            "stateMutability": "view",
            "type": "function"
        },
        {
            "inputs": [],
            "name": "claimAll",
            "outputs": [],
            "stateMutability": "nonpayable",
            "type": "function"
        },
        {
            "inputs": [
                {
                    "internalType": "address",
                    "name": "_token",
                    "type": "address"
                },
                {
                    "internalType": "uint256",
                    "name": "_amount",
                    "type": "uint256"
                },
                {
                    "internalType": "uint256",
                    "name": "_frequency",
                    "type": "uint256"
                },
                {
                    "internalType": "uint256",
                    "name": "_duration",
                    "type": "uint256"
                }
            ],
            "name": "createAutomatedSavingsPlan",
            "outputs": [],
            "stateMutability": "nonpayable",
            "type": "function"
        },
        {
            "inputs": [
                {
                    "internalType": "address",
                    "name": "_token",
                    "type": "address"
                },
                {
                    "internalType": "uint8",
                    "name": "_percentage",
                    "type": "uint8"
                },
                {
                    "internalType": "uint256",
                    "name": "_duration",
                    "type": "uint256"
                }
            ],
            "name": "createSpendAndSavePlan",
            "outputs": [],
            "stateMutability": "nonpayable",
            "type": "function"
        },
        {
            "inputs": [
                {
                    "internalType": "uint256",
                    "name": "_amount",
                    "type": "uint256"
                },
                {
                    "internalType": "address",
                    "name": "_token",
                    "type": "address"
                }
            ],
            "name": "depositToPool",
            "outputs": [],
            "stateMutability": "nonpayable",
            "type": "function"
        },
        {
            "inputs": [
                {
                    "internalType": "address",
                    "name": "_user",
                    "type": "address"
                }
            ],
            "name": "executeAutomatedSaving",
            "outputs": [],
            "stateMutability": "nonpayable",
            "type": "function"
        },
        {
            "inputs": [
                {
                    "internalType": "address",
                    "name": "_user",
                    "type": "address"
                }
            ],
            "name": "getAvailableBalances",
            "outputs": [
                {
                    "internalType": "address[]",
                    "name": "",
                    "type": "address[]"
                },
                {
                    "internalType": "uint256[]",
                    "name": "",
                    "type": "uint256[]"
                }
            ],
            "stateMutability": "view",
            "type": "function"
        },
        {
            "inputs": [],
            "name": "getClaimableSavings",
            "outputs": [],
            "stateMutability": "view",
            "type": "function"
        },
        {
            "inputs": [
                {
                    "internalType": "address",
                    "name": "_token",
                    "type": "address"
                }
            ],
            "name": "getContractBalance",
            "outputs": [
                {
                    "internalType": "uint256",
                    "name": "",
                    "type": "uint256"
                }
            ],
            "stateMutability": "view",
            "type": "function"
        },
        {
            "inputs": [],
            "name": "getSavingsActionHistory",
            "outputs": [
                {
                    "components": [
                        {
                            "internalType": "uint256",
                            "name": "id",
                            "type": "uint256"
                        },
                        {
                            "internalType": "address",
                            "name": "user",
                            "type": "address"
                        },
                        {
                            "internalType": "address",
                            "name": "token",
                            "type": "address"
                        },
                        {
                            "internalType": "string",
                            "name": "typeOfTransaction",
                            "type": "string"
                        },
                        {
                            "internalType": "uint256",
                            "name": "amount",
                            "type": "uint256"
                        },
                        {
                            "internalType": "uint256",
                            "name": "timestamp",
                            "type": "uint256"
                        },
                        {
                            "internalType": "enum Savings.TxStatus",
                            "name": "status",
                            "type": "uint8"
                        }
                    ],
                    "internalType": "struct Savings.Transaction[]",
                    "name": "",
                    "type": "tuple[]"
                }
            ],
            "stateMutability": "view",
            "type": "function"
        },
        {
            "inputs": [],
            "name": "getScheduledSavings",
            "outputs": [
                {
                    "components": [
                        {
                            "internalType": "address",
                            "name": "token",
                            "type": "address"
                        },
                        {
                            "internalType": "uint256",
                            "name": "amount",
                            "type": "uint256"
                        },
                        {
                            "internalType": "uint256",
                            "name": "scheduledDate",
                            "type": "uint256"
                        }
                    ],
                    "internalType": "struct Savings.ScheduledSaving[]",
                    "name": "",
                    "type": "tuple[]"
                }
            ],
            "stateMutability": "view",
            "type": "function"
        },
        {
            "inputs": [
                {
                    "internalType": "uint256",
                    "name": "offset",
                    "type": "uint256"
                },
                {
                    "internalType": "uint256",
                    "name": "limit",
                    "type": "uint256"
                }
            ],
            "name": "getTransactionHistory",
            "outputs": [
                {
                    "components": [
                        {
                            "internalType": "uint256",
                            "name": "id",
                            "type": "uint256"
                        },
                        {
                            "internalType": "address",
                            "name": "user",
                            "type": "address"
                        },
                        {
                            "internalType": "address",
                            "name": "token",
                            "type": "address"
                        },
                        {
                            "internalType": "string",
                            "name": "typeOfTransaction",
                            "type": "string"
                        },
                        {
                            "internalType": "uint256",
                            "name": "amount",
                            "type": "uint256"
                        },
                        {
                            "internalType": "uint256",
                            "name": "timestamp",
                            "type": "uint256"
                        },
                        {
                            "internalType": "enum Savings.TxStatus",
                            "name": "status",
                            "type": "uint8"
                        }
                    ],
                    "internalType": "struct Savings.Transaction[]",
                    "name": "",
                    "type": "tuple[]"
                }
            ],
            "stateMutability": "view",
            "type": "function"
        },
        {
            "inputs": [
                {
                    "internalType": "address",
                    "name": "_user",
                    "type": "address"
                }
            ],
            "name": "getUserBalances",
            "outputs": [
                {
                    "internalType": "address[]",
                    "name": "",
                    "type": "address[]"
                },
                {
                    "internalType": "uint256[]",
                    "name": "",
                    "type": "uint256[]"
                }
            ],
            "stateMutability": "view",
            "type": "function"
        },
        {
            "inputs": [
                {
                    "internalType": "address",
                    "name": "_user",
                    "type": "address"
                }
            ],
            "name": "getUserSavings",
            "outputs": [
                {
                    "components": [
                        {
                            "internalType": "string",
                            "name": "typeOfSafe",
                            "type": "string"
                        },
                        {
                            "internalType": "uint256",
                            "name": "id",
                            "type": "uint256"
                        },
                        {
                            "internalType": "address",
                            "name": "token",
                            "type": "address"
                        },
                        {
                            "internalType": "uint256",
                            "name": "amount",
                            "type": "uint256"
                        },
                        {
                            "internalType": "uint256",
                            "name": "duration",
                            "type": "uint256"
                        },
                        {
                            "internalType": "uint256",
                            "name": "startTime",
                            "type": "uint256"
                        },
                        {
                            "internalType": "uint256",
                            "name": "unlockTime",
                            "type": "uint256"
                        }
                    ],
                    "internalType": "struct Savings.Safe[]",
                    "name": "",
                    "type": "tuple[]"
                }
            ],
            "stateMutability": "view",
            "type": "function"
        },
        {
            "inputs": [
                {
                    "internalType": "address",
                    "name": "",
                    "type": "address"
                },
                {
                    "internalType": "address",
                    "name": "",
                    "type": "address"
                }
            ],
            "name": "isTokenAutoSaved",
            "outputs": [
                {
                    "internalType": "bool",
                    "name": "",
                    "type": "bool"
                }
            ],
            "stateMutability": "view",
            "type": "function"
        },
        {
            "inputs": [],
            "name": "owner",
            "outputs": [
                {
                    "internalType": "address",
                    "name": "",
                    "type": "address"
                }
            ],
            "stateMutability": "view",
            "type": "function"
        },
        {
            "inputs": [
                {
                    "internalType": "address",
                    "name": "_token",
                    "type": "address"
                },
                {
                    "internalType": "uint256",
                    "name": "_amount",
                    "type": "uint256"
                },
                {
                    "internalType": "uint256",
                    "name": "_duration",
                    "type": "uint256"
                }
            ],
            "name": "save",
            "outputs": [],
            "stateMutability": "nonpayable",
            "type": "function"
        },
        {
            "inputs": [
                {
                    "internalType": "address",
                    "name": "_token",
                    "type": "address"
                },
                {
                    "internalType": "uint256",
                    "name": "_amount",
                    "type": "uint256"
                }
            ],
            "name": "spendAndSave",
            "outputs": [],
            "stateMutability": "nonpayable",
            "type": "function"
        },
        {
            "inputs": [
                {
                    "internalType": "address",
                    "name": "",
                    "type": "address"
                }
            ],
            "name": "userAutomatedPlanExists",
            "outputs": [
                {
                    "internalType": "bool",
                    "name": "",
                    "type": "bool"
                }
            ],
            "stateMutability": "view",
            "type": "function"
        },
        {
            "inputs": [
                {
                    "internalType": "address",
                    "name": "",
                    "type": "address"
                }
            ],
            "name": "userSpendAndSavePlan",
            "outputs": [
                {
                    "internalType": "address",
                    "name": "token",
                    "type": "address"
                },
                {
                    "internalType": "uint256",
                    "name": "balance",
                    "type": "uint256"
                },
                {
                    "internalType": "uint8",
                    "name": "percentage",
                    "type": "uint8"
                },
                {
                    "internalType": "uint256",
                    "name": "duration",
                    "type": "uint256"
                }
            ],
            "stateMutability": "view",
            "type": "function"
        },
        {
            "inputs": [
                {
                    "internalType": "address",
                    "name": "",
                    "type": "address"
                }
            ],
            "name": "userSpendAndSavePlanExists",
            "outputs": [
                {
                    "internalType": "bool",
                    "name": "",
                    "type": "bool"
                }
            ],
            "stateMutability": "view",
            "type": "function"
        },
        {
            "inputs": [
                {
                    "internalType": "address",
                    "name": "",
                    "type": "address"
                },
                {
                    "internalType": "uint256",
                    "name": "",
                    "type": "uint256"
                }
            ],
            "name": "userTransactions",
            "outputs": [
                {
                    "internalType": "uint256",
                    "name": "id",
                    "type": "uint256"
                },
                {
                    "internalType": "address",
                    "name": "user",
                    "type": "address"
                },
                {
                    "internalType": "address",
                    "name": "token",
                    "type": "address"
                },
                {
                    "internalType": "string",
                    "name": "typeOfTransaction",
                    "type": "string"
                },
                {
                    "internalType": "uint256",
                    "name": "amount",
                    "type": "uint256"
                },
                {
                    "internalType": "uint256",
                    "name": "timestamp",
                    "type": "uint256"
                },
                {
                    "internalType": "enum Savings.TxStatus",
                    "name": "status",
                    "type": "uint8"
                }
            ],
            "stateMutability": "view",
            "type": "function"
        },
        {
            "inputs": [
                {
                    "internalType": "address",
                    "name": "_token",
                    "type": "address"
                },
                {
                    "internalType": "uint256",
                    "name": "_amount",
                    "type": "uint256"
                }
            ],
            "name": "withdrawFromPool",
            "outputs": [],
            "stateMutability": "nonpayable",
            "type": "function"
        },
        {
            "inputs": [
                {
                    "internalType": "uint256",
                    "name": "_savingsIndex",
                    "type": "uint256"
                },
                {
                    "internalType": "bool",
                    "name": "_acceptEarlyWithdrawalFee",
                    "type": "bool"
                }
            ],
            "name": "withdrawSavings",
            "outputs": [],
            "stateMutability": "nonpayable",
            "type": "function"
        }
    ],
    "bytecode": "6080346101e957601f612efa38819003918201601f19168301916001600160401b038311848410176101ed578084926060946040528339810103126101e95761004781610201565b90610060604061005960208401610201565b9201610201565b60015f81905580546001600160a01b03191633179055916001600160a01b0316801580156101d8575b80156101c7575b6101b8577f6d5257204ebe7d88fd91ae87941cb2dd9d8062b64ae5a2bd2d28ec40b9fbf6df80546001600160a01b031990811683179091557fb39221ace053465ec3453ce2b36430bd138b997ecea25c1043da0c366812b828805482166001600160a01b039485169081179091557fb7c774451310d1be4108bc180d1b52823cb0ee0274a6c0081bcaf94f115fb96d80549092169490931693841790555f90815260086020526040808220805460ff199081166001908117909255938352818320805485168217905593825290208054909116821790555460a081901c60ff9081166003019081116101a45760ff60a01b1990911660a09190911b60ff60a01b1617600155604051612ce490816102168239f35b634e487b7160e01b5f52601160045260245ffd5b63287170f960e01b5f5260045ffd5b506001600160a01b03831615610090565b506001600160a01b03821615610089565b5f80fd5b634e487b7160e01b5f52604160045260245ffd5b51906001600160a01b03821682036101e95756fe60806040526004361015610011575f80fd5b5f3560e01c80630a64dc3e14611a495780630c929f83146105505780631d929d7d14611a2357806324347205146119cc578063339c12d214611846578063430ed6041461154a57806343ab265f1461146557806345f7dd141461142157806351bd9dae146113e45780637ac5ada21461127d57806382dc4a051461124057806389904c33146110885780638bb5108214610d6d5780638da5cb5b14610d455780639c87612914610d22578063a39c7a9c14610cf4578063a3c781d314610cb7578063abd3f61214610a97578063b842ec44146109d3578063b97bf20214610785578063bf5700961461071a578063c1bf9e58146105d3578063d07c5cee14610555578063d1058e5914610550578063d4758f9814610398578063f0819d35146103335763f80a205714610142575f80fd5b3461032f57602036600319011261032f576001600160a01b03610163611a6a565b16805f52600660205260405f205461017a816122c7565b916101886040519384611cbd565b818352601f19610197836122c7565b015f5b8181106102ed5750505f5b82811061025f57836040518091602082016020835281518091526040830190602060408260051b8601019301915f905b8282106101e457505050500390f35b919360019193955060208091603f1989820301855287519060c080610212845160e0855260e0850190611aa8565b938581015186850152878060a01b036040820151166040850152606081015160608501526080810151608085015260a081015160a0850152015191015296019201920185949391926101d5565b600190825f52600560205260405f20815f5260205260405f2060066040519161028783611c85565b61029081611cdf565b8352848101546020840152848060a01b0360028201541660408401526003810154606084015260048101546080840152600581015460a0840152015460c08201526102db828761230c565b526102e6818661230c565b50016101a5565b6020906040516102fc81611c85565b606081525f838201525f60408201525f60608201525f60808201525f60a08201525f60c08201528282880101520161019a565b5f80fd5b3461032f57602036600319011261032f576001600160a01b03610354611a6a565b165f52600a602052608060405f2060018060a01b0381541690600181015490600360ff60028301541691015491604051938452602084015260408301526060820152f35b3461032f57608036600319011261032f576103b1611a6a565b6001600160a01b03165f81815260086020526040902054602435906044359060ff16156105415781158015610539575b61052a576301e13380811161051b57335f52600c60205260ff60405f20541661050c5760405160a0810181811067ffffffffffffffff8211176104f85760405283815260046020820184815260408301848152606084019060643582526080850192428452335f52600960205260405f209560018060a01b039060018060a01b03905116166001600160601b0360a01b87541617865551600186015551600285015551600384015551910155335f52600c60205260405f20600160ff19825416179055335f52600d60205260405f20835f5260205260405f20600160ff1982541617905560405191825260208201527f8d887a623cbba84fa8448bf3a79b0ecab3ea7d2d84310cad96bbd68aca69969d60403392a3005b634e487b7160e01b5f52604160045260245ffd5b63c14b923360e01b5f5260045ffd5b63b4fa3fb360e01b5f5260045ffd5b63273e150360e21b5f5260045ffd5b5080156103e1565b630f58058360e11b5f5260045ffd5b611a96565b3461032f575f36600319011261032f5761056d6125d8565b6040518091602082016020835281518091526020604084019201905f5b818110610598575050500390f35b825180516001600160a01b0316855260208181015181870152604091820151918601919091528695506060909401939092019160010161058a565b3461032f57604036600319011261032f576105ec611a6a565b6024356105f7612b7e565b801561052a57335f52600460205260405f2060018060a01b0383165f526020528060405f20541061070b576107027fd1c19fbcd4551a5edfb66d43d2e337c04837afda3482b42bdf569a8fccdae5fb91335f52600460205260405f2060018060a01b0385165f5260205260405f20610670828254611d8c565b905560405163a9059cbb60e01b6020820152336024820152604480820183905281526106b0906106a1606482611cbd565b6001600160a01b038616612b9c565b6106df81856040516106c3604082611cbd565b600a8152691dda5d1a191c985dd85b60b21b6020820152612766565b604080516001600160a01b03909516855260208501919091523393918291820190565b0390a260015f55005b63356680b760e01b5f5260045ffd5b3461032f57602036600319011261032f576001600160a01b0361073b611a6a565b165f52600960205260a060405f20600180831b0381541690600181015490600281015460046003830154920154926040519485526020850152604084015260608301526080820152f35b3461032f57604036600319011261032f5760043560243580159081150361032f576107ae612b7e565b335f52600560205260405f20825f5260205260405f20600381019081549384156109c457600682015442109485945f9661098c575b5090816107fe6107f78861087e9695611d8c565b9180611d8c565b8555335f90815260046020908152604080832060029690960180546001600160a01b031684529590915290208054909161083791611d7f565b90558561094f575b8354156108bc575b505482546040805191926001600160a01b031691906108669082611cbd565b6006815265756e6c6f636b60d01b6020820152612766565b5491604051928352602083015260408201527f1e6744cf99e958a70221fb97952f96f75e084ed8cf6e03d1e52de8edab644ca760603392a260015f55005b335f52600560205260405f20905f526020525f6006604082206108df8154611c4d565b8061090c575b50826001820155826002820155826003820155826004820155826005820155015585610847565b601f811160011461092257508281555b886108e5565b8184526020842061093e91601f0160051c810190600101611d99565b80835282602081208183555561091c565b6001546001600160a01b039081165f90815260046020908152604080832086549094168352929052208054610985908890611d7f565b905561083f565b9095509190916109c4578480046001036109b057606485049490919061087e6107e3565b634e487b7160e01b5f52601160045260245ffd5b63c945242d60e01b5f5260045ffd5b3461032f57604036600319011261032f576109ec611a6a565b6001600160a01b03165f90815260036020526040902080546024359081101561032f57610a1891611c20565b508054600182015460028301546001600160a01b03918216939116610a3f60038301611cdf565b91610a7a60048201549360ff60066005850154940154169360405197889788526020880152604087015260e0606087015260e0860190611aa8565b92608085015260a0840152610a8e81611acc565b60c08301520390f35b3461032f57602036600319011261032f57610ab0611a6a565b60ff60015460a01c1690610acc610ac683612399565b92612399565b5f805260076020527f6d5257204ebe7d88fd91ae87941cb2dd9d8062b64ae5a2bd2d28ec40b9fbf6df546001600160a01b0316610b08846122df565b5260015f5260076020527fb39221ace053465ec3453ce2b36430bd138b997ecea25c1043da0c366812b828546001600160a01b0316610b46846122ec565b5260025f5260076020527fb7c774451310d1be4108bc180d1b52823cb0ee0274a6c0081bcaf94f115fb96d546001600160a01b0316610b84846122fc565b525f916001600160a01b03165b8351831015610ca2576001600160a01b03610bac848661230c565b511690805f52600460205260405f2060018060a01b0383165f5260205260405f2054935f935f5b835f52600660205260405f2054811015610c7f57835f52600560205260405f20815f5260205260405f2085604051610c0a81611c85565b610c1383611cdf565b81526001830154602082015260018060a01b036002840154169081604082015260c0600660038601549586606085015260048101546080850152600581015460a0850152015491015214610c6b575b50600101610bd3565b610c789060019297611d7f565b9590610c62565b509360019350610c90919295611d7f565b610c9a828561230c565b520191610b91565b5082610cb360405192839283611ba5565b0390f35b3461032f57602036600319011261032f576001600160a01b03610cd8611a6a565b165f52600c602052602060ff60405f2054166040519015158152f35b3461032f57604036600319011261032f57610cb3610d166024356004356123cb565b60405191829182611aea565b3461032f575f36600319011261032f57602060ff60015460a01c16604051908152f35b3461032f575f36600319011261032f576001546040516001600160a01b039091168152602090f35b3461032f57604036600319011261032f57610d86611a6a565b60243590610d92612b7e565b331561107957811561052a576001600160a01b0381165f8181526008602052604090205490929060ff161561054157335f52600a60205260405f20908360018060a01b03835416036105415760ff60028301541680820290828204036109b057606490049283610e03575b60015f55005b610e0d8185612100565b335f526006602052600360405f205493015492610e2a8442611d7f565b60405191610e3783611c85565b6040958651610e468882611cbd565b600c81526b5370656e64416e645361766560a01b60208201528452602084018281528785018a815260608601918a83526080870193845260a087019442865260c08801968752335f5260056020528a5f20905f52602052895f20965180519067ffffffffffffffff82116104f857610ebe8954611c4d565b601f811161103e575b50602090601f8311600114610fcd5782610f8e9c9b9a99979593600699979593610f06935f92610fc2575b50508160011b915f199060031b1c19161790565b88555b516001880155516002870180546001600160a01b0319166001600160a01b039290921691909117905551600386015551600485015551600584015551910155335f90815260066020528490208054610f6090611daf565b90558351610f6e8582611cbd565b600e81526d7370656e6420616e64207361766560901b6020820152612766565b519081527f3b118dd1d3abd7bc664ff130e14fa3d2bdb4a556f758c5247ddd0f7f1bf2544460203392a38080808080610dfd565b015190505f80610ef2565b90601f198316918a5f52815f20925f5b8181106110265750926001928592610f8e9f9e9d9c9a989660069c9a98961061100e575b505050811b018855610f09565b01515f1960f88460031b161c191690555f8080611001565b92936020600181928786015181550195019301610fdd565b611069908a5f5260205f20601f850160051c8101916020861061106f575b601f0160051c0190611d99565b8e610ec7565b909150819061105c565b63287170f960e01b5f5260045ffd5b3461032f57602036600319011261032f576110a1611a6a565b60ff60015460a01c166110bc6110b682612399565b91612399565b5f805260076020527f6d5257204ebe7d88fd91ae87941cb2dd9d8062b64ae5a2bd2d28ec40b9fbf6df549092906001600160a01b03166110fb836122df565b5260015f5260076020527fb39221ace053465ec3453ce2b36430bd138b997ecea25c1043da0c366812b828546001600160a01b0316611139836122ec565b5260025f5260076020527fb7c774451310d1be4108bc180d1b52823cb0ee0274a6c0081bcaf94f115fb96d546001600160a01b0316611177836122fc565b526001600160a01b039081165f818152600460205260409020909161119b846122df565b511660018060a01b03165f5260205260405f20546111b8846122df565b525f8181526004602052604090206001600160a01b036111d7846122ec565b511660018060a01b03165f5260205260405f20546111f4846122ec565b525f9081526004602052604090206001600160a01b03611213836122fc565b511660018060a01b03165f5260205260405f2054611230836122fc565b52610cb360405192839283611ba5565b3461032f57602036600319011261032f576001600160a01b03611261611a6a565b165f526008602052602060ff60405f2054166040519015158152f35b3461032f57606036600319011261032f57611296611a6a565b60243560ff811680910361032f576044359160018060a01b031691825f52600860205260ff60405f2054161561054157811580156113da575b6113cb57801561051b57335f52600b60205260ff60405f2054166113bc576040516080810181811067ffffffffffffffff8211176104f8576040528381526003602082015f8152604083018581526060840191858352335f52600a60205260405f209460018060a01b039060018060a01b03905116166001600160601b0360a01b86541617855551600185015560ff6002850191511660ff1982541617905551910155335f52600c60205260405f20600160ff1982541617905560405191825260208201527ff3d7f560daf48a69f232401065582fa69a9b094c0721d0da67aed4055dcf8f1c60403392a3005b631b7af59160e01b5f5260045ffd5b631f3b85d360e01b5f5260045ffd5b50606482116112cf565b3461032f57602036600319011261032f576001600160a01b03611405611a6a565b165f52600b602052602060ff60405f2054166040519015158152f35b3461032f57602036600319011261032f57600435600381101561032f5761144781611acc565b5f526007602052602060018060a01b0360405f205416604051908152f35b3461032f57602036600319011261032f5761147e611a6a565b6001546001600160a01b0316330361150f576040516370a0823160e01b815230600482015290602090829060249082906001600160a01b03165afa8015611504575f906114d1575b602090604051908152f35b506020813d6020116114fc575b816114eb60209383611cbd565b8101031261032f57602090516114c6565b3d91506114de565b6040513d5f823e3d90fd5b60405162461bcd60e51b81526020600482015260136024820152722ab730baba3437b934bd32b21031b0b63632b960691b6044820152606490fd5b3461032f57606036600319011261032f57611563611a6a565b61156b612b7e565b3315611079576024351561052a576001600160a01b0381165f8181526008602052604090205460ff1615610541576044351561051b57335f52600460205260405f20815f5260205260405f2060243590541061070b57335f52600460205260405f20815f5260205260405f206115e46024358254611d8c565b9055335f52600660205260405f20549161160060443542611d7f565b906040519361160e85611c85565b604092835161161d8582611cbd565b6005815264426173696360d81b602082015286528160208701528484870152602435606087015260443560808701524260a087015260c0860152335f526005602052825f20905f52602052815f20845194855167ffffffffffffffff81116104f8576116898354611c4d565b601f8111611816575b506020601f82116001146117a857916116cb8260c093600695611763999a9b5f9261179d5750508160011b915f199060031b1c19161790565b84555b6020810151600185015560018060a01b038782015116600285019060018060a01b03166001600160601b0360a01b825416179055606081015160038501556080810151600485015560a081015160058501550151910155335f526006602052825f2061173a8154611daf565b90558251906117498483611cbd565b60048252637361766560e01b602083015260243591612766565b7f3366ce755cd25539463e10c81609f7acf012fd288caed6c0f6494f6808268ce4815191602435835260443560208401523392a360015f55005b015190508b80610ef2565b835f52805f20975f5b601f19841681106117fe5750826117639798996006959360019360c096601f198116106117e6575b505050811b0184556116ce565b01515f1960f88460031b161c191690558a80806117d9565b828201518a55600190990198602092830192016117b1565b61184090845f5260205f20601f840160051c8101916020851061106f57601f0160051c0190611d99565b87611692565b3461032f575f36600319011261032f57335f52600360205260405f20805461186d816122c7565b9161187b6040519384611cbd565b81835260208301905f5260205f205f915b83831061194e57845f805b82518110156118d8576118b760606118af838661230c565b5101516129ef565b6118c4575b600101611897565b906118d0600191611daf565b9190506118bc565b506118e290612320565b5f905f5b8351811015611940576118fe60606118af838761230c565b61190b575b6001016118e6565b9161193860019161191c858761230c565b51611927828661230c565b52611932818561230c565b50611daf565b929050611903565b60405180610cb38482611aea565b6007602060019260405161196181611c85565b855481528486015460a086901b86900390811684830152600287015416604082015261198f60038701611cdf565b606082015260048601546080820152600586015460a082015260ff6006870154166119b981611acc565b60c082015281520192019201919061188c565b3461032f57604036600319011261032f576119e5611a6a565b6119ed611a80565b9060018060a01b03165f52600d60205260405f209060018060a01b03165f52602052602060ff60405f2054166040519015158152f35b3461032f57604036600319011261032f57611a47611a3f611a80565b600435612100565b005b3461032f57602036600319011261032f57611a47611a65611a6a565b611dbd565b600435906001600160a01b038216820361032f57565b602435906001600160a01b038216820361032f57565b3461032f575f36600319011261032f57005b805180835260209291819084018484015e5f828201840152601f01601f1916010190565b60031115611ad657565b634e487b7160e01b5f52602160045260245ffd5b602081016020825282518091526040820191602060408360051b8301019401925f915b838310611b1c57505050505090565b9091929394602080600192603f1985820301865288519081518152848060a01b03838301511683820152848060a01b03604083015116604082015260c080611b73606085015160e0606086015260e0850190611aa8565b936080810151608085015260a081015160a0850152015191611b9483611acc565b015297019301930191939290611b0d565b604081016040825282518091526020606083019301905f5b818110611c01575050506020818303910152602080835192838152019201905f5b818110611beb5750505090565b8251845260209384019390920191600101611bde565b82516001600160a01b0316855260209485019490920191600101611bbd565b8054821015611c39575f52600760205f20910201905f90565b634e487b7160e01b5f52603260045260245ffd5b90600182811c92168015611c7b575b6020831014611c6757565b634e487b7160e01b5f52602260045260245ffd5b91607f1691611c5c565b60e0810190811067ffffffffffffffff8211176104f857604052565b6060810190811067ffffffffffffffff8211176104f857604052565b90601f8019910116810190811067ffffffffffffffff8211176104f857604052565b9060405191825f825492611cf284611c4d565b8084529360018116908115611d5d5750600114611d19575b50611d1792500383611cbd565b565b90505f9291925260205f20905f915b818310611d41575050906020611d17928201015f611d0a565b6020919350806001915483858901015201910190918492611d28565b905060209250611d1794915060ff191682840152151560051b8201015f611d0a565b919082018092116109b057565b919082039182116109b057565b818110611da4575050565b5f8155600101611d99565b5f1981146109b05760010190565b6001600160a01b03165f818152600960205260409020600181018054909291811580156120f4575b6120ee576004810191611dfe8354600284015490611d7f565b42106120e7575f84815260046020908152604080832085546001600160a01b031680855292529091205482116120df57845f52600460205260405f209060018060a01b03165f52602052611e5760405f20918254611d8c565b9055825f52600660205260405f20549160018060a01b038254169285549060405191611e8283611c85565b6040958651611e918882611cbd565b6009815268105d5d1bdb585d195960ba1b6020820152845260208401918383528785019182526060850190815260808501915f835260a086019342855260c08701955f87528b5f5260056020528a5f20905f52602052895f20965180519067ffffffffffffffff82116104f857611f088954611c4d565b601f81116120af575b50602090601f831160011461201c5792611f70837f751ceaac5dfa620113dae99692e4bcc148db4733b03842d178484c50d980035c9e9c9a979460209e9c9a979460069a975f92610fc25750508160011b915f199060031b1c19161790565b88555b516001880155516002870180546001600160a01b0319166001600160a01b0392909216919091179055516003860155516004850155516005840155519101555f868152600685528390208054611fc890611daf565b9055429055805486548351612005926001600160a01b031690611feb8682611cbd565b60098152686175746f207361766560b81b87820152612766565b54945490519081526001600160a01b0390941693a3565b90601f198316918a5f52815f20925f5b81811061209757509360209d9b9996937f751ceaac5dfa620113dae99692e4bcc148db4733b03842d178484c50d980035c9f9d9b9895936001938360069c99961061207f575b505050811b018855611f73565b01515f1960f88460031b161c191690555f8080612072565b9293602060018192878601518155019501930161202c565b6120d9908a5f5260205f20601f850160051c8101916020861061106f57601f0160051c0190611d99565b5f611f11565b505050505050565b5050505050565b50505050565b50600281015415611de5565b331561107957801561052a576001600160a01b0382165f8181526008602052604090205490929060ff1615610541576040516370a0823160e01b8152336004820152602081602481875afa80156115045783915f91612292575b501061070b57604051636eb1769f60e11b8152336004820152306024820152602081604481875afa80156115045783915f9161225d575b501061224e5781612220916121d66040516323b872dd60e01b6020820152336024820152306044820152836064820152606481526121d0608482611cbd565b86612b9c565b335f52600460205260405f20855f5260205260405f206121f7838254611d7f565b9055604051612207604082611cbd565b600781526619195c1bdcda5d60ca1b6020820152612766565b6040519081527f9ca48962abdef1f62fa7920028db6cba8d22078c8f24fa2c9d3738a7cebe7a8560203392a3565b6313be252b60e01b5f5260045ffd5b9150506020813d60201161228a575b8161227960209383611cbd565b8101031261032f578290515f612191565b3d915061226c565b9150506020813d6020116122bf575b816122ae60209383611cbd565b8101031261032f578290515f61215a565b3d91506122a1565b67ffffffffffffffff81116104f85760051b60200190565b805115611c395760200190565b805160011015611c395760400190565b805160021015611c395760600190565b8051821015611c395760209160051b010190565b9061232a826122c7565b6123376040519182611cbd565b8281528092612348601f19916122c7565b01905f5b82811061235857505050565b60209060405161236781611c85565b5f81525f838201525f60408201526060808201525f60808201525f60a08201525f60c08201528282850101520161234c565b906123a3826122c7565b6123b06040519182611cbd565b82815280926123c1601f19916122c7565b0190602036910137565b90606090335f52600360205260405f2080546123e6816122c7565b916123f46040519384611cbd565b81835260208301905f5260205f205f915b83831061255b575050505080519283156124f35750828410156124a3575b61242d8484611d8c565b9180831161249b575b5061244082612320565b935f1984019384115f5b84811061245a5750505050505090565b816109b0578061247e61247861247260019487611d7f565b89611d8c565b8661230c565b51612489828a61230c565b52612494818961230c565b500161244a565b91505f612436565b925080156124df576124b781830683611d8c565b92828403612423579250808211156124d9576124d38183611d8c565b92612423565b5f6124d3565b634e487b7160e01b5f52601260045260245ffd5b935050505060405190612507602083611cbd565b5f82525f90815b82811061251b5750505090565b60209060405161252a81611c85565b5f81525f838201525f604082015283808201525f60808201525f60a08201525f60c08201528282870101520161250e565b6007602060019260405161256e81611c85565b855481528486015460a086901b86900390811684830152600287015416604082015261259c60038701611cdf565b8b82015260048601546080820152600586015460a082015260ff6006870154166125c581611acc565b60c0820152815201920192019190612405565b335f52600960205260405f206001810154908115801561275a575b801561274e575b6127035760038101549161261d6004830154936126178542611d8c565b90611d8c565b9060028301549182156124df578290049290612638846122c7565b946126466040519687611cbd565b848652601f19612655866122c7565b015f5b8181106126d25750508361266b91611d7f565b91545f926001600160a01b0390911691905b85841061268d5750505050505090565b6126ca856001926040516126a081611ca1565b8681528560208201528160408201526126b9888c61230c565b526126c4878b61230c565b50611d7f565b93019261267d565b602090604097949597516126e581611ca1565b5f81525f838201525f604082015282828b0101520195939295612658565b5050604051612713602082611cbd565b5f81525f805b81811061272557505090565b60209060405161273481611ca1565b5f81525f838201525f604082015282828601015201612719565b506003810154156125fa565b506002810154156125f3565b9190916002549061277682611daf565b6002556040519161278683611c85565b82526020820193338552604083019060018060a01b031694858252606084018381526080850186815260a086019142835260c08701945f8652335f52600360205260405f208054680100000000000000008110156104f8576127ed91600182018155611c20565b9590956129dc5788518655516001860180546001600160a01b03199081166001600160a01b039384161790915591516002870180549093169116179055518051600385019167ffffffffffffffff82116104f85761284b8354611c4d565b601f81116129ac575b50602090601f831160011461291c57926128b183612902999794600697947f637463f0df51dee7d78f62e907a0d42641a000c4f9123e0c36b532162f89be2a9d9c9a975f92610fc25750508160011b915f199060031b1c19161790565b90555b5160048301555160058201550190516128cc81611acc565b6128d581611acc565b60ff801983541691161790556002549251604051938452602084015260c0604084015260c0830190611aa8565b9260608201524260808201525f60a08201528033930390a3565b90601f19831691845f52815f20925f5b818110612994575093600696937f637463f0df51dee7d78f62e907a0d42641a000c4f9123e0c36b532162f89be2a9c9b999693600193836129029d9b981061297c575b505050811b0190556128b4565b01515f1960f88460031b161c191690555f808061296f565b9293602060018192878601518155019501930161292c565b6129d690845f5260205f20601f850160051c8101916020861061106f57601f0160051c0190611d99565b5f612854565b634e487b7160e01b5f525f60045260245ffd5b6040519060208201815192612a1e602082818601968088875e81015f838201520301601f198101835282611cbd565b5190206040516020810190637361766560e01b825260048152612a42602482611cbd565b51902014918215612b1c575b8215612ab9575b8215612a6057505090565b909150612a8c6020604051809382820195518091875e81015f838201520301601f198101835282611cbd565b519020604051602081019065756e6c6f636b60d01b825260068152612ab2602682611cbd565b5190201490565b91506040516020810190612ae560208285518088875e81015f838201520301601f198101835282611cbd565b51902060405160208101906c6175746f6d617465645361766560981b8252600d8152612b12602d82611cbd565b5190201491612a55565b91506040516020810190612b4860208285518088875e81015f838201520301601f198101835282611cbd565b51902060405160208101906b7370656e64416e645361766560a01b8252600c8152612b74602c82611cbd565b5190201491612a4e565b60025f5414612b8d5760025f55565b633ee5aeb560e01b5f5260045ffd5b81516001600160a01b03909116915f91829160200182855af13d15612c44573d67ffffffffffffffff81116104f857604051612bf8929091612be8601f8201601f191660200184611cbd565b82523d5f602084013e5b83612c50565b8051908115159182612c20575b5050612c0e5750565b635274afe760e01b5f5260045260245ffd5b819250906020918101031261032f576020015180159081150361032f575f80612c05565b612bf890606090612bf2565b90612c745750805115612c6557805190602001fd5b630a12f52160e11b5f5260045ffd5b81511580612ca5575b612c85575090565b639996b31560e01b5f9081526001600160a01b0391909116600452602490fd5b50803b15612c7d56fea26469706673582212202ad298242f69b9fe320ef326ab8ddac74dcd6e10bba77bf0d66f2fc1cf267c2564736f6c634300081a0033",
    "sourcePath": "/Users/apple/Documents/Solidity-Works/CoinSafe/smart-contracts/contracts/Savings.sol",
    "compiler": {
        "name": "solc",
        "version": "0.8.26+commit.8a97fa7a"
    },
    "functionHashes": {
        "acceptedTokenCount()": "9c876129",
        "acceptedTokens(address)": "82dc4a05",
        "acceptedTokensAddresses(uint8)": "45f7dd14",
        "automatedSavingsPlans(address)": "bf570096",
        "claimAll()": "d1058e59",
        "createAutomatedSavingsPlan(address,uint256,uint256,uint256)": "d4758f98",
        "createSpendAndSavePlan(address,uint8,uint256)": "7ac5ada2",
        "depositToPool(uint256,address)": "1d929d7d",
        "executeAutomatedSaving(address)": "0a64dc3e",
        "getAvailableBalances(address)": "89904c33",
        "getClaimableSavings()": "0c929f83",
        "getContractBalance(address)": "43ab265f",
        "getSavingsActionHistory()": "339c12d2",
        "getScheduledSavings()": "d07c5cee",
        "getTransactionHistory(uint256,uint256)": "a39c7a9c",
        "getUserBalances(address)": "abd3f612",
        "getUserSavings(address)": "f80a2057",
        "isTokenAutoSaved(address,address)": "24347205",
        "owner()": "8da5cb5b",
        "save(address,uint256,uint256)": "430ed604",
        "spendAndSave(address,uint256)": "8bb51082",
        "userAutomatedPlanExists(address)": "a3c781d3",
        "userSpendAndSavePlan(address)": "f0819d35",
        "userSpendAndSavePlanExists(address)": "51bd9dae",
        "userTransactions(address,uint256)": "b842ec44",
        "withdrawFromPool(address,uint256)": "c1bf9e58",
        "withdrawSavings(uint256,bool)": "b97bf202"
    },
    "gasEstimates": {
        "creation": {
            "codeDepositCost": "2298400",
            "executionCost": "infinite",
            "totalCost": "infinite"
        },
        "external": {
            "acceptedTokenCount()": "2568",
            "acceptedTokens(address)": "2630",
            "acceptedTokensAddresses(uint8)": "2559",
            "automatedSavingsPlans(address)": "11364",
            "claimAll()": "645",
            "createAutomatedSavingsPlan(address,uint256,uint256,uint256)": "168851",
            "createSpendAndSavePlan(address,uint8,uint256)": "107091",
            "depositToPool(uint256,address)": "infinite",
            "executeAutomatedSaving(address)": "infinite",
            "getAvailableBalances(address)": "infinite",
            "getClaimableSavings()": "161",
            "getContractBalance(address)": "infinite",
            "getSavingsActionHistory()": "infinite",
            "getScheduledSavings()": "infinite",
            "getTransactionHistory(uint256,uint256)": "infinite",
            "getUserBalances(address)": "infinite",
            "getUserSavings(address)": "infinite",
            "isTokenAutoSaved(address,address)": "2631",
            "owner()": "2558",
            "save(address,uint256,uint256)": "infinite",
            "spendAndSave(address,uint256)": "infinite",
            "userAutomatedPlanExists(address)": "2762",
            "userSpendAndSavePlan(address)": "9356",
            "userSpendAndSavePlanExists(address)": "2586",
            "userTransactions(address,uint256)": "infinite",
            "withdrawFromPool(address,uint256)": "infinite",
            "withdrawSavings(uint256,bool)": "infinite"
        },
        "internal": {
            "addTransaction(string memory,address,uint256)": "infinite",
            "isSavingsTransaction(string memory)": "infinite"
        }
    }
}