{
    "contractName": "Savings",
    "abi": [
        {
            "inputs": [
                {
                    "internalType": "address",
                    "name": "_erc20TokenAddress",
                    "type": "address"
                },
                {
                    "internalType": "address",
                    "name": "_liskTokenAddress",
                    "type": "address"
                },
                {
                    "internalType": "address",
                    "name": "_safuTokenAddress",
                    "type": "address"
                },
                {
                    "internalType": "address",
                    "name": "_trustedForwarder",
                    "type": "address"
                }
            ],
            "stateMutability": "nonpayable",
            "type": "constructor"
        },
        {
            "inputs": [
                {
                    "internalType": "address",
                    "name": "target",
                    "type": "address"
                }
            ],
            "name": "AddressEmptyCode",
            "type": "error"
        },
        {
            "inputs": [
                {
                    "internalType": "address",
                    "name": "account",
                    "type": "address"
                }
            ],
            "name": "AddressInsufficientBalance",
            "type": "error"
        },
        {
            "inputs": [],
            "name": "AddressZeroDetected",
            "type": "error"
        },
        {
            "inputs": [],
            "name": "FailedInnerCall",
            "type": "error"
        },
        {
            "inputs": [],
            "name": "InsufficientFunds",
            "type": "error"
        },
        {
            "inputs": [],
            "name": "InvalidPercentage",
            "type": "error"
        },
        {
            "inputs": [],
            "name": "InvalidTokenAddress",
            "type": "error"
        },
        {
            "inputs": [],
            "name": "InvalidWithdrawal",
            "type": "error"
        },
        {
            "inputs": [],
            "name": "NotOwner",
            "type": "error"
        },
        {
            "inputs": [],
            "name": "ReentrancyGuardReentrantCall",
            "type": "error"
        },
        {
            "inputs": [
                {
                    "internalType": "address",
                    "name": "token",
                    "type": "address"
                }
            ],
            "name": "SafeERC20FailedOperation",
            "type": "error"
        },
        {
            "inputs": [],
            "name": "UnauthorizedCaller",
            "type": "error"
        },
        {
            "inputs": [],
            "name": "ZeroValueNotAllowed",
            "type": "error"
        },
        {
            "anonymous": false,
            "inputs": [
                {
                    "indexed": true,
                    "internalType": "address",
                    "name": "user",
                    "type": "address"
                },
                {
                    "indexed": true,
                    "internalType": "address",
                    "name": "token",
                    "type": "address"
                },
                {
                    "indexed": false,
                    "internalType": "uint256",
                    "name": "amount",
                    "type": "uint256"
                }
            ],
            "name": "AutomatedSavingExecuted",
            "type": "event"
        },
        {
            "anonymous": false,
            "inputs": [
                {
                    "indexed": true,
                    "internalType": "address",
                    "name": "user",
                    "type": "address"
                },
                {
                    "indexed": true,
                    "internalType": "address",
                    "name": "token",
                    "type": "address"
                },
                {
                    "indexed": false,
                    "internalType": "uint256",
                    "name": "amount",
                    "type": "uint256"
                },
                {
                    "indexed": false,
                    "internalType": "uint256",
                    "name": "frequency",
                    "type": "uint256"
                }
            ],
            "name": "AutomatedSavingSet",
            "type": "event"
        },
        {
            "anonymous": false,
            "inputs": [
                {
                    "indexed": true,
                    "internalType": "address",
                    "name": "user",
                    "type": "address"
                },
                {
                    "indexed": false,
                    "internalType": "uint256",
                    "name": "amount",
                    "type": "uint256"
                }
            ],
            "name": "BalanceWithdrawnToUserAccount",
            "type": "event"
        },
        {
            "anonymous": false,
            "inputs": [
                {
                    "indexed": true,
                    "internalType": "address",
                    "name": "user",
                    "type": "address"
                },
                {
                    "indexed": true,
                    "internalType": "address",
                    "name": "token",
                    "type": "address"
                },
                {
                    "indexed": false,
                    "internalType": "uint256",
                    "name": "amount",
                    "type": "uint256"
                }
            ],
            "name": "DepositSuccessful",
            "type": "event"
        },
        {
            "anonymous": false,
            "inputs": [
                {
                    "indexed": true,
                    "internalType": "address",
                    "name": "user",
                    "type": "address"
                },
                {
                    "indexed": true,
                    "internalType": "address",
                    "name": "token",
                    "type": "address"
                },
                {
                    "indexed": false,
                    "internalType": "uint256",
                    "name": "amount",
                    "type": "uint256"
                },
                {
                    "indexed": false,
                    "internalType": "uint256",
                    "name": "duration",
                    "type": "uint256"
                }
            ],
            "name": "SavedSuccessfully",
            "type": "event"
        },
        {
            "anonymous": false,
            "inputs": [
                {
                    "indexed": true,
                    "internalType": "address",
                    "name": "user",
                    "type": "address"
                },
                {
                    "indexed": false,
                    "internalType": "uint256",
                    "name": "amount",
                    "type": "uint256"
                },
                {
                    "indexed": false,
                    "internalType": "uint256",
                    "name": "fee",
                    "type": "uint256"
                },
                {
                    "indexed": false,
                    "internalType": "bool",
                    "name": "earlyWithdrawal",
                    "type": "bool"
                }
            ],
            "name": "SavingsWithdrawn",
            "type": "event"
        },
        {
            "anonymous": false,
            "inputs": [
                {
                    "indexed": true,
                    "internalType": "address",
                    "name": "user",
                    "type": "address"
                },
                {
                    "indexed": true,
                    "internalType": "address",
                    "name": "token",
                    "type": "address"
                },
                {
                    "indexed": false,
                    "internalType": "uint256",
                    "name": "amountSaved",
                    "type": "uint256"
                }
            ],
            "name": "SpendAndSave",
            "type": "event"
        },
        {
            "anonymous": false,
            "inputs": [
                {
                    "indexed": true,
                    "internalType": "address",
                    "name": "user",
                    "type": "address"
                },
                {
                    "indexed": false,
                    "internalType": "address",
                    "name": "tokenType",
                    "type": "address"
                },
                {
                    "indexed": false,
                    "internalType": "uint256",
                    "name": "amount",
                    "type": "uint256"
                }
            ],
            "name": "Withdrawn",
            "type": "event"
        },
        {
            "inputs": [
                {
                    "internalType": "address",
                    "name": "",
                    "type": "address"
                }
            ],
            "name": "acceptedTokens",
            "outputs": [
                {
                    "internalType": "bool",
                    "name": "",
                    "type": "bool"
                }
            ],
            "stateMutability": "view",
            "type": "function"
        },
        {
            "inputs": [
                {
                    "internalType": "address",
                    "name": "_token",
                    "type": "address"
                },
                {
                    "internalType": "enum Savings.TokenType",
                    "name": "_tokenType",
                    "type": "uint8"
                }
            ],
            "name": "addAcceptedToken",
            "outputs": [],
            "stateMutability": "nonpayable",
            "type": "function"
        },
        {
            "inputs": [
                {
                    "internalType": "address",
                    "name": "",
                    "type": "address"
                }
            ],
            "name": "automatedSavingsPlans",
            "outputs": [
                {
                    "internalType": "address",
                    "name": "token",
                    "type": "address"
                },
                {
                    "internalType": "uint256",
                    "name": "amount",
                    "type": "uint256"
                },
                {
                    "internalType": "uint256",
                    "name": "frequency",
                    "type": "uint256"
                },
                {
                    "internalType": "uint256",
                    "name": "lastSavingTimestamp",
                    "type": "uint256"
                }
            ],
            "stateMutability": "view",
            "type": "function"
        },
        {
            "inputs": [
                {
                    "internalType": "address",
                    "name": "_token",
                    "type": "address"
                },
                {
                    "internalType": "uint8",
                    "name": "_percentage",
                    "type": "uint8"
                },
                {
                    "internalType": "uint256",
                    "name": "_duration",
                    "type": "uint256"
                }
            ],
            "name": "createSpendAndSavePlan",
            "outputs": [],
            "stateMutability": "nonpayable",
            "type": "function"
        },
        {
            "inputs": [
                {
                    "internalType": "address",
                    "name": "",
                    "type": "address"
                },
                {
                    "internalType": "uint256",
                    "name": "",
                    "type": "uint256"
                }
            ],
            "name": "depositBalances",
            "outputs": [
                {
                    "internalType": "address",
                    "name": "token",
                    "type": "address"
                },
                {
                    "internalType": "uint256",
                    "name": "balance",
                    "type": "uint256"
                }
            ],
            "stateMutability": "view",
            "type": "function"
        },
        {
            "inputs": [
                {
                    "internalType": "address",
                    "name": "",
                    "type": "address"
                },
                {
                    "internalType": "address",
                    "name": "",
                    "type": "address"
                }
            ],
            "name": "depositBalancess",
            "outputs": [
                {
                    "internalType": "uint256",
                    "name": "",
                    "type": "uint256"
                }
            ],
            "stateMutability": "view",
            "type": "function"
        },
        {
            "inputs": [
                {
                    "internalType": "uint256",
                    "name": "_amount",
                    "type": "uint256"
                },
                {
                    "internalType": "address",
                    "name": "_token",
                    "type": "address"
                }
            ],
            "name": "depositToPool",
            "outputs": [],
            "stateMutability": "nonpayable",
            "type": "function"
        },
        {
            "inputs": [
                {
                    "internalType": "address",
                    "name": "_user",
                    "type": "address"
                }
            ],
            "name": "executeAutomatedSaving",
            "outputs": [],
            "stateMutability": "nonpayable",
            "type": "function"
        },
        {
            "inputs": [
                {
                    "internalType": "address",
                    "name": "_token",
                    "type": "address"
                }
            ],
            "name": "getContractBalance",
            "outputs": [
                {
                    "internalType": "uint256",
                    "name": "",
                    "type": "uint256"
                }
            ],
            "stateMutability": "view",
            "type": "function"
        },
        {
            "inputs": [
                {
                    "internalType": "enum Savings.TokenType",
                    "name": "_tokenType",
                    "type": "uint8"
                }
            ],
            "name": "getTokenAddress",
            "outputs": [
                {
                    "internalType": "address",
                    "name": "",
                    "type": "address"
                }
            ],
            "stateMutability": "view",
            "type": "function"
        },
        {
            "inputs": [
                {
                    "internalType": "address",
                    "name": "_user",
                    "type": "address"
                }
            ],
            "name": "getUserBalances",
            "outputs": [
                {
                    "components": [
                        {
                            "internalType": "address",
                            "name": "token",
                            "type": "address"
                        },
                        {
                            "internalType": "uint256",
                            "name": "balance",
                            "type": "uint256"
                        }
                    ],
                    "internalType": "struct Savings.Balances[]",
                    "name": "",
                    "type": "tuple[]"
                }
            ],
            "stateMutability": "view",
            "type": "function"
        },
        {
            "inputs": [],
            "name": "owner",
            "outputs": [
                {
                    "internalType": "address",
                    "name": "",
                    "type": "address"
                }
            ],
            "stateMutability": "view",
            "type": "function"
        },
        {
            "inputs": [
                {
                    "internalType": "enum Savings.TokenType",
                    "name": "_tokenType",
                    "type": "uint8"
                }
            ],
            "name": "removeAcceptedToken",
            "outputs": [],
            "stateMutability": "nonpayable",
            "type": "function"
        },
        {
            "inputs": [
                {
                    "internalType": "address",
                    "name": "_token",
                    "type": "address"
                },
                {
                    "internalType": "uint256",
                    "name": "_amount",
                    "type": "uint256"
                },
                {
                    "internalType": "uint256",
                    "name": "_duration",
                    "type": "uint256"
                },
                {
                    "internalType": "string",
                    "name": "_typeName",
                    "type": "string"
                }
            ],
            "name": "save",
            "outputs": [],
            "stateMutability": "nonpayable",
            "type": "function"
        },
        {
            "inputs": [
                {
                    "internalType": "address",
                    "name": "",
                    "type": "address"
                }
            ],
            "name": "savings",
            "outputs": [
                {
                    "components": [
                        {
                            "internalType": "string",
                            "name": "name",
                            "type": "string"
                        }
                    ],
                    "internalType": "struct Savings.SavingType",
                    "name": "typeOfSafe",
                    "type": "tuple"
                },
                {
                    "internalType": "address",
                    "name": "token",
                    "type": "address"
                },
                {
                    "internalType": "uint256",
                    "name": "amount",
                    "type": "uint256"
                },
                {
                    "internalType": "uint256",
                    "name": "duration",
                    "type": "uint256"
                },
                {
                    "internalType": "uint256",
                    "name": "startTime",
                    "type": "uint256"
                },
                {
                    "internalType": "uint256",
                    "name": "unlockTime",
                    "type": "uint256"
                }
            ],
            "stateMutability": "view",
            "type": "function"
        },
        {
            "inputs": [
                {
                    "internalType": "address",
                    "name": "_token",
                    "type": "address"
                },
                {
                    "internalType": "uint256",
                    "name": "_amount",
                    "type": "uint256"
                },
                {
                    "internalType": "uint256",
                    "name": "_frequency",
                    "type": "uint256"
                }
            ],
            "name": "setAutomatedSavingsPlan",
            "outputs": [],
            "stateMutability": "nonpayable",
            "type": "function"
        },
        {
            "inputs": [
                {
                    "internalType": "address",
                    "name": "_token",
                    "type": "address"
                },
                {
                    "internalType": "uint256",
                    "name": "_amount",
                    "type": "uint256"
                }
            ],
            "name": "spendAndSave",
            "outputs": [],
            "stateMutability": "nonpayable",
            "type": "function"
        },
        {
            "inputs": [
                {
                    "internalType": "enum Savings.TokenType",
                    "name": "",
                    "type": "uint8"
                }
            ],
            "name": "tokenAddresses",
            "outputs": [
                {
                    "internalType": "address",
                    "name": "",
                    "type": "address"
                }
            ],
            "stateMutability": "view",
            "type": "function"
        },
        {
            "inputs": [],
            "name": "trustedForwarder",
            "outputs": [
                {
                    "internalType": "address",
                    "name": "",
                    "type": "address"
                }
            ],
            "stateMutability": "view",
            "type": "function"
        },
        {
            "inputs": [
                {
                    "internalType": "address",
                    "name": "",
                    "type": "address"
                }
            ],
            "name": "userSpendAndSave",
            "outputs": [
                {
                    "internalType": "address",
                    "name": "token",
                    "type": "address"
                },
                {
                    "internalType": "uint256",
                    "name": "balance",
                    "type": "uint256"
                },
                {
                    "internalType": "uint8",
                    "name": "percentage",
                    "type": "uint8"
                },
                {
                    "internalType": "uint256",
                    "name": "duration",
                    "type": "uint256"
                }
            ],
            "stateMutability": "view",
            "type": "function"
        },
        {
            "inputs": [
                {
                    "internalType": "address",
                    "name": "_token",
                    "type": "address"
                },
                {
                    "internalType": "uint256",
                    "name": "_amount",
                    "type": "uint256"
                }
            ],
            "name": "withdrawFromPool",
            "outputs": [],
            "stateMutability": "nonpayable",
            "type": "function"
        },
        {
            "inputs": [
                {
                    "internalType": "address",
                    "name": "_token",
                    "type": "address"
                },
                {
                    "internalType": "uint256",
                    "name": "_amount",
                    "type": "uint256"
                },
                {
                    "internalType": "bool",
                    "name": "_acceptEarlyWithdrawalFee",
                    "type": "bool"
                }
            ],
            "name": "withdrawSavings",
            "outputs": [],
            "stateMutability": "nonpayable",
            "type": "function"
        }
    ],
    "bytecode": "608060405234801561000f575f5ffd5b506040516121c53803806121c583398101604081905261002e91610139565b60015f81815581546001600160a01b031990811633178355600280546001600160a01b039586169083161790557f5eff886ea0ce6ca488a3d6e336d6c0f75f46d19b42c06ce5ee98e42c96d256c78054978516978216881790557fad67d757c34507f157cacfa2e3153e9f260a2244f30428821be7be64587ac55f8054968516968216871790557f6add646517a5b0f6793cd5891b7937d28a5b2981a5d88ebc7cd776088fea90418054959094169416841790925593815260066020526040808220805460ff1990811687179091559382528082208054851686179055918152208054909116909117905561018a565b80516001600160a01b0381168114610134575f5ffd5b919050565b5f5f5f5f6080858703121561014c575f5ffd5b6101558561011e565b93506101636020860161011e565b92506101716040860161011e565b915061017f6060860161011e565b905092959194509250565b61202e806101975f395ff3fe608060405234801561000f575f5ffd5b506004361061013d575f3560e01c8063678d0e0e116100b45780638da5cb5b116100795780638da5cb5b14610368578063abd3f6121461037b578063bc926f6e1461039b578063bf570096146103ae578063c1bf9e5814610416578063cf0d743714610429575f5ffd5b8063678d0e0e146102ea5780637ac5ada2146102fd5780637da0a8771461031057806382dc4a05146103235780638bb5108214610355575f5ffd5b80631d929d7d116101055780631d929d7d146101eb5780631f7cdd5f146101fe57806325d6a45c1461022357806343ab265f146102995780635613c456146102ac5780635ad3f918146102bf575f5ffd5b80630a64dc3e146101415780630a9a2cdf14610156578063169826291461018d5780631c91ba27146101a05780631d74e4be146101d8575b5f5ffd5b61015461014f366004611a8e565b610451565b005b610169610164366004611aa7565b610732565b604080516001600160a01b0390931683526020830191909152015b60405180910390f35b61015461019b366004611ae3565b610774565b6101ca6101ae366004611bb9565b600460209081525f928352604080842090915290825290205481565b604051908152602001610184565b6101546101e6366004611bf7565b610a1c565b6101546101f9366004611c34565b610cdd565b61021161020c366004611a8e565b610ea7565b60405161018496959493929190611c55565b610267610231366004611a8e565b60096020525f908152604090208054600182015460028301546003909301546001600160a01b0390921692909160ff9091169084565b604080516001600160a01b039095168552602085019390935260ff909116918301919091526060820152608001610184565b6101ca6102a7366004611a8e565b610f81565b6101546102ba366004611cc3565b61101c565b6102d26102cd366004611d01565b611122565b6040516001600160a01b039091168152602001610184565b6101546102f8366004611d01565b611168565b61015461030b366004611d1a565b611297565b6002546102d2906001600160a01b031681565b610345610331366004611a8e565b60066020525f908152604090205460ff1681565b6040519015158152602001610184565b610154610363366004611aa7565b611378565b6001546102d2906001600160a01b031681565b61038e610389366004611a8e565b6114ca565b6040516101849190611d5b565b6101546103a9366004611db2565b611553565b6103ec6103bc366004611a8e565b60076020525f908152604090208054600182015460028301546003909301546001600160a01b0390921692909184565b604080516001600160a01b0390951685526020850193909352918301526060820152608001610184565b610154610424366004611aa7565b611624565b6102d2610437366004611d01565b60086020525f90815260409020546001600160a01b031681565b6002546001600160a01b0316331461047c57604051635c427cd960e01b815260040160405180910390fd5b6001600160a01b0381165f908152600760205260409020600181015415806104a657506002810154155b156104af575050565b806002015481600301546104c39190611dee565b4210156104ce575050565b6001600160a01b0382165f90815260036020526040812090805b825481101561056257835483546001600160a01b039091169084908390811061051357610513611e01565b5f9182526020909120600290910201546001600160a01b03160361055a5782818154811061054357610543611e01565b905f5260205f209060020201600101549150610562565b6001016104e8565b5082600101548110156105755750505050565b5f5b825481101561060757835483546001600160a01b03909116908490839081106105a2576105a2611e01565b5f9182526020909120600290910201546001600160a01b0316036105ff5783600101548382815481106105d7576105d7611e01565b905f5260205f2090600202016001015f8282546105f49190611e15565b909155506106079050565b600101610577565b506040805161012081018252600960e0820190815268105d5d1bdb585d195960ba1b61010083015260c08201908152815284546001600160a01b039081166020808401919091526001870154838501525f6060840181905242608085015260a0840181905291881682526005905291909120815180518290819061068b9082611eab565b505050602082810151600183810180546001600160a01b0319166001600160a01b03938416179055604080860151600286015560608601516003808701919091556080870151600487015560a09096015160059095019490945542948801949094558654938701549251928352928316928716917f751ceaac5dfa620113dae99692e4bcc148db4733b03842d178484c50d980035c91015b60405180910390a35050505b50565b6003602052815f5260405f20818154811061074b575f80fd5b5f918252602090912060029091020180546001909101546001600160a01b039091169250905082565b336107925760405163287170f960e01b815260040160405180910390fd5b825f036107b25760405163273e150360e21b815260040160405180910390fd5b6001600160a01b0384165f9081526006602052604090205460ff166107ea57604051630f58058360e11b815260040160405180910390fd5b335f90815260036020526040812090805b825481101561086f57866001600160a01b031683828154811061082057610820611e01565b5f9182526020909120600290910201546001600160a01b0316036108675782818154811061085057610850611e01565b905f5260205f20906002020160010154915061086f565b6001016107fb565b50848110156108915760405163356680b760e01b815260040160405180910390fd5b5f5b825481101561091957866001600160a01b03168382815481106108b8576108b8611e01565b5f9182526020909120600290910201546001600160a01b03160361091157858382815481106108e9576108e9611e01565b905f5260205f2090600202016001015f8282546109069190611e15565b909155506109199050565b600101610893565b506040805160e08101825260c0810185815281526001600160a01b038816602082015290810186905260608101859052426080820181905260a0820190610961908790611dee565b9052335f90815260056020526040902081518051829081906109839082611eab565b5050506020828101516001830180546001600160a01b0319166001600160a01b039283161790556040808501516002850155606085015160038501556080850151600485015560a09094015160059093019290925582518881529081018790529088169133917f3366ce755cd25539463e10c81609f7acf012fd288caed6c0f6494f6808268ce4910160405180910390a3505050505050565b610a246117d1565b335f90815260056020526040902060028101541580610a53575060018101546001600160a01b03858116911614155b15610a715760405163c945242d60e01b815260040160405180910390fd5b8060020154831115610a965760405163356680b760e01b815260040160405180910390fd5b60058101544210155f81610adc5783610ac25760405163c945242d60e01b815260040160405180910390fd5b6064610acf866001611f66565b610ad99190611f7d565b90505b5f610ae78287611e15565b905085846002015f828254610afc9190611e15565b9091555050335f908152600360205260408120905b8154811015610b9757886001600160a01b0316828281548110610b3657610b36611e01565b5f9182526020909120600290910201546001600160a01b031603610b8f5782828281548110610b6757610b67611e01565b905f5260205f2090600202016001015f828254610b849190611dee565b90915550610b979050565b600101610b11565b508215610c2f575f5b8154811015610c2d5760015482546001600160a01b0390911690839083908110610bcc57610bcc611e01565b5f9182526020909120600290910201546001600160a01b031603610c255783828281548110610bfd57610bfd611e01565b905f5260205f2090600202016001015f828254610c1a9190611dee565b90915550610c2d9050565b600101610ba0565b505b84600201545f03610c8757335f908152600560205260408120908181610c558282611a2e565b5050506001810180546001600160a01b03191690555f6002820181905560038201819055600482018190556005909101555b6040805188815260208101859052851581830152905133917f1e6744cf99e958a70221fb97952f96f75e084ed8cf6e03d1e52de8edab644ca7919081900360600190a25050505050610cd860015f55565b505050565b33610cfb5760405163287170f960e01b815260040160405180910390fd5b815f03610d1b5760405163273e150360e21b815260040160405180910390fd5b6001600160a01b0381165f9081526006602052604090205460ff16610d5357604051630f58058360e11b815260040160405180910390fd5b610d686001600160a01b0382163330856117f9565b335f908152600360205260408120815b8154811015610e0257836001600160a01b0316828281548110610d9d57610d9d611e01565b5f9182526020909120600290910201546001600160a01b031603610dfa5784828281548110610dce57610dce611e01565b905f5260205f2090600202016001015f828254610deb9190611dee565b9091555060019350610e029050565b600101610d78565b5081610e6a57335f90815260036020908152604080832081518083019092526001600160a01b038781168352828401898152825460018082018555938752949095209251600290940290920180546001600160a01b0319169390921692909217815591519101555b6040518481526001600160a01b0384169033907f9ca48962abdef1f62fa7920028db6cba8d22078c8f24fa2c9d3738a7cebe7a8590602001610723565b600560209081525f91825260409182902082519182019092528154829082908290610ed190611e28565b80601f0160208091040260200160405190810160405280929190818152602001828054610efd90611e28565b8015610f485780601f10610f1f57610100808354040283529160200191610f48565b820191905f5260205f20905b815481529060010190602001808311610f2b57829003601f168201915b50505091909252505050600182015460028301546003840154600485015460059095015493946001600160a01b03909316939192909186565b6001545f906001600160a01b03163314610fae576040516330cd747160e01b815260040160405180910390fd5b6040516370a0823160e01b81523060048201526001600160a01b038316906370a0823190602401602060405180830381865afa158015610ff0573d5f5f3e3d5ffd5b505050506040513d601f19601f820116820180604052508101906110149190611f9c565b90505b919050565b6001600160a01b0383165f9081526006602052604090205460ff1661105457604051630f58058360e11b815260040160405180910390fd5b81158061105f575080155b1561107d5760405163273e150360e21b815260040160405180910390fd5b604080516080810182526001600160a01b0385811680835260208084018781528486018781524260608701908152335f81815260078652899020975188546001600160a01b0319169716969096178755915160018701555160028601555160039094019390935583518681529283018590529290917fe26471f927db51b06840ef9087031a3f98a67ed7d41073b89827f7fd02e0a001910160405180910390a3505050565b5f60085f83600281111561113857611138611fb3565b600281111561114957611149611fb3565b815260208101919091526040015f20546001600160a01b031692915050565b6001546001600160a01b03163314611193576040516330cd747160e01b815260040160405180910390fd5b5f60085f8360028111156111a9576111a9611fb3565b60028111156111ba576111ba611fb3565b815260208082019290925260409081015f908120546001600160a01b03168082526006909352205490915060ff166112315760405162461bcd60e51b8152602060048201526015602482015274151bdad95b881a5cc81b9bdd081858d8d95c1d1959605a1b60448201526064015b60405180910390fd5b6001600160a01b0381165f908152600660205260408120805460ff1916905560089083600281111561126557611265611fb3565b600281111561127657611276611fb3565b815260208101919091526040015f2080546001600160a01b03191690555050565b6001600160a01b0383165f9081526006602052604090205460ff166112cf57604051630f58058360e11b815260040160405180910390fd5b60ff821615806112e2575060648260ff16115b1561130057604051631f3b85d360e01b815260040160405180910390fd5b604080516080810182526001600160a01b0394851681525f602080830182815260ff96871684860190815260608501968752338452600990925293909120915182546001600160a01b031916961695909517815590516001820155925160028401805460ff1916919093161790915551600390910155565b6113806117d1565b805f036113a05760405163273e150360e21b815260040160405180910390fd5b6001600160a01b0382165f9081526006602052604090205460ff166113d857604051630f58058360e11b815260040160405180910390fd5b335f90815260096020526040902080546001600160a01b0384811691161461141357604051630f58058360e11b815260040160405180910390fd5b60028101545f9060649061142a9060ff1685611f66565b6114349190611f7d565b905080156114bb576114468185610cdd565b61147a848284600301546040518060400160405280600c81526020016b7370656e64416e645361766560a01b815250610774565b6040518181526001600160a01b0385169033907f3b118dd1d3abd7bc664ff130e14fa3d2bdb4a556f758c5247ddd0f7f1bf254449060200160405180910390a35b50506114c660015f55565b5050565b6001600160a01b0381165f908152600360209081526040808320805482518185028101850190935280835260609492939192909184015b82821015611548575f848152602090819020604080518082019091526002850290910180546001600160a01b03168252600190810154828401529083529092019101611501565b505050509050919050565b6001546001600160a01b0316331461157e576040516330cd747160e01b815260040160405180910390fd5b6001600160a01b038216156115a657604051630f58058360e11b815260040160405180910390fd5b6001600160a01b0382165f908152600660205260408120805460ff1916600117905582906008908360028111156115df576115df611fb3565b60028111156115f0576115f0611fb3565b81526020019081526020015f205f6101000a8154816001600160a01b0302191690836001600160a01b031602179055505050565b61162c6117d1565b805f0361164c5760405163273e150360e21b815260040160405180910390fd5b335f9081526003602052604081209080805b835481101561174e57856001600160a01b031684828154811061168357611683611e01565b5f9182526020909120600290910201546001600160a01b03160361174657848482815481106116b4576116b4611e01565b905f5260205f2090600202016001015410156116e35760405163356680b760e01b815260040160405180910390fd5b8381815481106116f5576116f5611e01565b905f5260205f2090600202016001015492508484828154811061171a5761171a611e01565b905f5260205f2090600202016001015f8282546117379190611e15565b909155506001925061174e9050565b60010161165e565b508061176d57604051630f58058360e11b815260040160405180910390fd5b6117816001600160a01b0386163386611866565b604080516001600160a01b03871681526020810186905233917fd1c19fbcd4551a5edfb66d43d2e337c04837afda3482b42bdf569a8fccdae5fb910160405180910390a25050506114c660015f55565b60025f54036117f357604051633ee5aeb560e01b815260040160405180910390fd5b60025f55565b6040516001600160a01b0384811660248301528381166044830152606482018390526118609186918216906323b872dd906084015b604051602081830303815290604052915060e01b6020820180516001600160e01b038381831617835250505050611897565b50505050565b6040516001600160a01b03838116602483015260448201839052610cd891859182169063a9059cbb9060640161182e565b5f6118ab6001600160a01b038416836118f8565b905080515f141580156118cf5750808060200190518101906118cd9190611fc7565b155b15610cd857604051635274afe760e01b81526001600160a01b0384166004820152602401611228565b606061190583835f61190e565b90505b92915050565b6060814710156119335760405163cd78605960e01b8152306004820152602401611228565b5f5f856001600160a01b0316848660405161194e9190611fe2565b5f6040518083038185875af1925050503d805f8114611988576040519150601f19603f3d011682016040523d82523d5f602084013e61198d565b606091505b509150915061199d8683836119a9565b925050505b9392505050565b6060826119be576119b982611a05565b6119a2565b81511580156119d557506001600160a01b0384163b155b156119fe57604051639996b31560e01b81526001600160a01b0385166004820152602401611228565b50806119a2565b805115611a155780518082602001fd5b604051630a12f52160e11b815260040160405180910390fd5b508054611a3a90611e28565b5f825580601f10611a49575050565b601f0160209004905f5260205f209081019061072f91905b80821115611a74575f8155600101611a61565b5090565b80356001600160a01b0381168114611017575f5ffd5b5f60208284031215611a9e575f5ffd5b61190582611a78565b5f5f60408385031215611ab8575f5ffd5b611ac183611a78565b946020939093013593505050565b634e487b7160e01b5f52604160045260245ffd5b5f5f5f5f60808587031215611af6575f5ffd5b611aff85611a78565b93506020850135925060408501359150606085013567ffffffffffffffff811115611b28575f5ffd5b8501601f81018713611b38575f5ffd5b803567ffffffffffffffff811115611b5257611b52611acf565b604051601f8201601f19908116603f0116810167ffffffffffffffff81118282101715611b8157611b81611acf565b604052818152828201602001891015611b98575f5ffd5b816020840160208301375f6020838301015280935050505092959194509250565b5f5f60408385031215611bca575f5ffd5b611bd383611a78565b9150611be160208401611a78565b90509250929050565b801515811461072f575f5ffd5b5f5f5f60608486031215611c09575f5ffd5b611c1284611a78565b9250602084013591506040840135611c2981611bea565b809150509250925092565b5f5f60408385031215611c45575f5ffd5b82359150611be160208401611a78565b60c081525f8751602060c084015280518060e0850152806020830161010086015e5f6101008286018101919091526001600160a01b03999099166020850152604084019790975250506060810193909352608083019190915260a0820152601f909101601f19160101919050565b5f5f5f60608486031215611cd5575f5ffd5b611cde84611a78565b95602085013595506040909401359392505050565b803560038110611017575f5ffd5b5f60208284031215611d11575f5ffd5b61190582611cf3565b5f5f5f60608486031215611d2c575f5ffd5b611d3584611a78565b9250602084013560ff81168114611d4a575f5ffd5b929592945050506040919091013590565b602080825282518282018190525f918401906040840190835b81811015611da757835180516001600160a01b031684526020908101518185015290930192604090920191600101611d74565b509095945050505050565b5f5f60408385031215611dc3575f5ffd5b611dcc83611a78565b9150611be160208401611cf3565b634e487b7160e01b5f52601160045260245ffd5b8082018082111561190857611908611dda565b634e487b7160e01b5f52603260045260245ffd5b8181038181111561190857611908611dda565b600181811c90821680611e3c57607f821691505b602082108103611e5a57634e487b7160e01b5f52602260045260245ffd5b50919050565b601f821115610cd857805f5260205f20601f840160051c81016020851015611e855750805b601f840160051c820191505b81811015611ea4575f8155600101611e91565b5050505050565b815167ffffffffffffffff811115611ec557611ec5611acf565b611ed981611ed38454611e28565b84611e60565b6020601f821160018114611f0b575f8315611ef45750848201515b5f19600385901b1c1916600184901b178455611ea4565b5f84815260208120601f198516915b82811015611f3a5787850151825560209485019460019092019101611f1a565b5084821015611f5757868401515f19600387901b60f8161c191681555b50505050600190811b01905550565b808202811582820484141761190857611908611dda565b5f82611f9757634e487b7160e01b5f52601260045260245ffd5b500490565b5f60208284031215611fac575f5ffd5b5051919050565b634e487b7160e01b5f52602160045260245ffd5b5f60208284031215611fd7575f5ffd5b81516119a281611bea565b5f82518060208501845e5f92019182525091905056fea2646970667358221220c2bac3a16a957dee6c2549b5dc335199796cb770d6c1528f25f43487c4c2e68864736f6c634300081b0033",
    "sourcePath": "/Users/apple/Documents/CoinSafe/smart-contracts/contracts/Savings.sol",
    "compiler": {
        "name": "solc",
        "version": "0.8.27+commit.40a35a09"
    },
    "functionHashes": {
        "acceptedTokens(address)": "82dc4a05",
        "addAcceptedToken(address,uint8)": "bc926f6e",
        "automatedSavingsPlans(address)": "bf570096",
        "createSpendAndSavePlan(address,uint8,uint256)": "7ac5ada2",
        "depositBalances(address,uint256)": "0a9a2cdf",
        "depositBalancess(address,address)": "1c91ba27",
        "depositToPool(uint256,address)": "1d929d7d",
        "executeAutomatedSaving(address)": "0a64dc3e",
        "getContractBalance(address)": "43ab265f",
        "getTokenAddress(uint8)": "5ad3f918",
        "getUserBalances(address)": "abd3f612",
        "owner()": "8da5cb5b",
        "removeAcceptedToken(uint8)": "678d0e0e",
        "save(address,uint256,uint256,string)": "16982629",
        "savings(address)": "1f7cdd5f",
        "setAutomatedSavingsPlan(address,uint256,uint256)": "5613c456",
        "spendAndSave(address,uint256)": "8bb51082",
        "tokenAddresses(uint8)": "cf0d7437",
        "trustedForwarder()": "7da0a877",
        "userSpendAndSave(address)": "25d6a45c",
        "withdrawFromPool(address,uint256)": "c1bf9e58",
        "withdrawSavings(address,uint256,bool)": "1d74e4be"
    },
    "gasEstimates": {
        "creation": {
            "codeDepositCost": "1647600",
            "executionCost": "infinite",
            "totalCost": "infinite"
        },
        "external": {
            "acceptedTokens(address)": "2621",
            "addAcceptedToken(address,uint8)": "infinite",
            "automatedSavingsPlans(address)": "9052",
            "createSpendAndSavePlan(address,uint8,uint256)": "78534",
            "depositBalances(address,uint256)": "6972",
            "depositBalancess(address,address)": "infinite",
            "depositToPool(uint256,address)": "infinite",
            "executeAutomatedSaving(address)": "infinite",
            "getContractBalance(address)": "infinite",
            "getTokenAddress(uint8)": "2764",
            "getUserBalances(address)": "infinite",
            "owner()": "2358",
            "removeAcceptedToken(uint8)": "55585",
            "save(address,uint256,uint256,string)": "infinite",
            "savings(address)": "infinite",
            "setAutomatedSavingsPlan(address,uint256,uint256)": "95603",
            "spendAndSave(address,uint256)": "infinite",
            "tokenAddresses(uint8)": "2673",
            "trustedForwarder()": "2403",
            "userSpendAndSave(address)": "9067",
            "withdrawFromPool(address,uint256)": "infinite",
            "withdrawSavings(address,uint256,bool)": "infinite"
        }
    }
}