{"abi":[{"type":"function","name":"getAvailableBalances","inputs":[{"name":"_user","type":"address","internalType":"address"}],"outputs":[{"name":"","type":"address[]","internalType":"address[]"},{"name":"","type":"uint256[]","internalType":"uint256[]"}],"stateMutability":"view"},{"type":"function","name":"getUserBalances","inputs":[{"name":"_user","type":"address","internalType":"address"}],"outputs":[{"name":"","type":"address[]","internalType":"address[]"},{"name":"","type":"uint256[]","internalType":"uint256[]"}],"stateMutability":"view"},{"type":"function","name":"getUserSavings","inputs":[{"name":"_user","type":"address","internalType":"address"}],"outputs":[{"name":"","type":"tuple[]","internalType":"struct LibDiamond.Safe[]","components":[{"name":"typeOfSafe","type":"string","internalType":"string"},{"name":"id","type":"uint256","internalType":"uint256"},{"name":"target","type":"string","internalType":"string"},{"name":"token","type":"address","internalType":"address"},{"name":"amount","type":"uint256","internalType":"uint256"},{"name":"duration","type":"uint256","internalType":"uint256"},{"name":"startTime","type":"uint256","internalType":"uint256"},{"name":"unlockTime","type":"uint256","internalType":"uint256"}]}],"stateMutability":"view"}],"bytecode":{"object":"0x6080604052348015600e575f5ffd5b50610d748061001c5f395ff3fe608060405234801561000f575f5ffd5b506004361061003f575f3560e01c806389904c3314610043578063abd3f6121461006d578063f80a205714610080575b5f5ffd5b610056610051366004610b04565b6100a0565b604051610064929190610b31565b60405180910390f35b61005661007b366004610b04565b6103e9565b61009361008e366004610b04565b610840565b6040516100649190610be8565b7fc8fcad8db84d3cc18b4c41d551ea0ee66dd599cde068d998e57d5e09332c13275460609081907fc8fcad8db84d3cc18b4c41d551ea0ee66dd599cde068d998e57d5e09332c131c905f90600160a01b900460ff1667ffffffffffffffff81111561010d5761010d610cb9565b604051908082528060200260200182016040528015610136578160200160208202803683370190505b50600b8301549091505f90600160a01b900460ff1667ffffffffffffffff81111561016357610163610cb9565b60405190808252806020026020018201604052801561018c578160200160208202803683370190505b505f80805260178501602052604081205484519293506001600160a01b0316918491906101bb576101bb610ccd565b6001600160a01b0392831660209182029290920181019190915260015f81815260178701909252604090912054845192169184919081106101fe576101fe610ccd565b6001600160a01b0392831660209182029290920181019190915260025f818152601787019092526040909120548451921691849190811061024157610241610ccd565b60200260200101906001600160a01b031690816001600160a01b031681525050826014015f876001600160a01b03166001600160a01b031681526020019081526020015f205f835f8151811061029957610299610ccd565b60200260200101516001600160a01b03166001600160a01b031681526020019081526020015f2054815f815181106102d3576102d3610ccd565b602002602001018181525050826014015f876001600160a01b03166001600160a01b031681526020019081526020015f205f8360018151811061031857610318610ccd565b60200260200101516001600160a01b03166001600160a01b031681526020019081526020015f20548160018151811061035357610353610ccd565b602002602001018181525050826014015f876001600160a01b03166001600160a01b031681526020019081526020015f205f8360028151811061039857610398610ccd565b60200260200101516001600160a01b03166001600160a01b031681526020019081526020015f2054816002815181106103d3576103d3610ccd565b6020908102919091010152909590945092505050565b7fc8fcad8db84d3cc18b4c41d551ea0ee66dd599cde068d998e57d5e09332c13275460609081907fc8fcad8db84d3cc18b4c41d551ea0ee66dd599cde068d998e57d5e09332c131c905f90600160a01b900460ff1667ffffffffffffffff81111561045657610456610cb9565b60405190808252806020026020018201604052801561047f578160200160208202803683370190505b50600b8301549091505f90600160a01b900460ff1667ffffffffffffffff8111156104ac576104ac610cb9565b6040519080825280602002602001820160405280156104d5578160200160208202803683370190505b505f80805260178501602052604081205484519293506001600160a01b03169184919061050457610504610ccd565b6001600160a01b0392831660209182029290920181019190915260015f818152601787019092526040909120548451921691849190811061054757610547610ccd565b6001600160a01b0392831660209182029290920181019190915260025f818152601787019092526040909120548451921691849190811061058a5761058a610ccd565b6001600160a01b03909216602092830291909101909101525f5b8251811015610834575f8382815181106105c0576105c0610ccd565b6020908102919091018101516001600160a01b03808b165f908152601489018452604080822092841682529190935282205490925090805b6001600160a01b038b165f908152601689016020526040902054811015610801576001600160a01b038b165f90815260158901602090815260408083208484529091528082208151610100810190925280548290829061065790610ce1565b80601f016020809104026020016040519081016040528092919081815260200182805461068390610ce1565b80156106ce5780601f106106a5576101008083540402835291602001916106ce565b820191905f5260205f20905b8154815290600101906020018083116106b157829003601f168201915b50505050508152602001600182015481526020016002820180546106f190610ce1565b80601f016020809104026020016040519081016040528092919081815260200182805461071d90610ce1565b80156107685780601f1061073f57610100808354040283529160200191610768565b820191905f5260205f20905b81548152906001019060200180831161074b57829003601f168201915b50505050508152602001600382015f9054906101000a90046001600160a01b03166001600160a01b03166001600160a01b031681526020016004820154815260200160058201548152602001600682015481526020016007820154815250509050846001600160a01b031681606001516001600160a01b0316036107f85760808101516107f59084610d19565b92505b506001016105f8565b5061080c8183610d19565b85858151811061081e5761081e610ccd565b60209081029190910101525050506001016105a4565b50909590945092505050565b6001600160a01b0381165f9081527fc8fcad8db84d3cc18b4c41d551ea0ee66dd599cde068d998e57d5e09332c133260205260408120546060917fc8fcad8db84d3cc18b4c41d551ea0ee66dd599cde068d998e57d5e09332c131c91908167ffffffffffffffff8111156108b6576108b6610cb9565b60405190808252806020026020018201604052801561093257816020015b61091f604051806101000160405280606081526020015f8152602001606081526020015f6001600160a01b031681526020015f81526020015f81526020015f81526020015f81525090565b8152602001906001900390816108d45790505b5090505f5b82811015610afb576001600160a01b0386165f9081526015850160209081526040808320848452909152908190208151610100810190925280548290829061097e90610ce1565b80601f01602080910402602001604051908101604052809291908181526020018280546109aa90610ce1565b80156109f55780601f106109cc576101008083540402835291602001916109f5565b820191905f5260205f20905b8154815290600101906020018083116109d857829003601f168201915b5050505050815260200160018201548152602001600282018054610a1890610ce1565b80601f0160208091040260200160405190810160405280929190818152602001828054610a4490610ce1565b8015610a8f5780601f10610a6657610100808354040283529160200191610a8f565b820191905f5260205f20905b815481529060010190602001808311610a7257829003601f168201915b505050918352505060038201546001600160a01b0316602082015260048201546040820152600582015460608201526006820154608082015260079091015460a0909101528251839083908110610ae857610ae8610ccd565b6020908102919091010152600101610937565b50949350505050565b5f60208284031215610b14575f5ffd5b81356001600160a01b0381168114610b2a575f5ffd5b9392505050565b604080825283519082018190525f9060208501906060840190835b81811015610b735783516001600160a01b0316835260209384019390920191600101610b4c565b5050838103602080860191909152855180835291810192508501905f5b81811015610bae578251845260209384019390920191600101610b90565b50919695505050505050565b5f81518084528060208401602086015e5f602082860101526020601f19601f83011685010191505092915050565b5f602082016020835280845180835260408501915060408160051b8601019250602086015f5b82811015610cad57603f19878603018452815180516101008752610c36610100880182610bba565b90506020820151602088015260408201518782036040890152610c598282610bba565b6060848101516001600160a01b0316908a0152608080850151908a015260a084810151908a015260c080850151908a015260e093840151939098019290925250506020938401939190910190600101610c0e565b50929695505050505050565b634e487b7160e01b5f52604160045260245ffd5b634e487b7160e01b5f52603260045260245ffd5b600181811c90821680610cf557607f821691505b602082108103610d1357634e487b7160e01b5f52602260045260245ffd5b50919050565b80820180821115610d3857634e487b7160e01b5f52601160045260245ffd5b9291505056fea264697066735822122087d93035d7ed858b54e4b36289b4c697b01d2d8f058b95762a271999706b190164736f6c634300081c0033","linkReferences":{}},"methodIdentifiers":{"getAvailableBalances(address)":"89904c33","getUserBalances(address)":"abd3f612","getUserSavings(address)":"f80a2057"},"id":2}