{
  "_format": "hh-sol-artifact-1",
  "contractName": "Savings",
  "sourceName": "contracts/Savings.sol",
  "abi": [
    {
      "inputs": [
        {
          "internalType": "address",
          "name": "_erc20TokenAddress",
          "type": "address"
        },
        {
          "internalType": "address",
          "name": "_liskTokenAddress",
          "type": "address"
        },
        {
          "internalType": "address",
          "name": "_safuTokenAddress",
          "type": "address"
        }
      ],
      "stateMutability": "nonpayable",
      "type": "constructor"
    },
    {
      "inputs": [
        {
          "internalType": "address",
          "name": "target",
          "type": "address"
        }
      ],
      "name": "AddressEmptyCode",
      "type": "error"
    },
    {
      "inputs": [
        {
          "internalType": "address",
          "name": "account",
          "type": "address"
        }
      ],
      "name": "AddressInsufficientBalance",
      "type": "error"
    },
    {
      "inputs": [],
      "name": "AddressZeroDetected",
      "type": "error"
    },
    {
      "inputs": [],
      "name": "FailedInnerCall",
      "type": "error"
    },
    {
      "inputs": [],
      "name": "InsufficientAllowance",
      "type": "error"
    },
    {
      "inputs": [],
      "name": "InsufficientFunds",
      "type": "error"
    },
    {
      "inputs": [],
      "name": "InvalidPercentage",
      "type": "error"
    },
    {
      "inputs": [],
      "name": "InvalidTokenAddress",
      "type": "error"
    },
    {
      "inputs": [],
      "name": "InvalidWithdrawal",
      "type": "error"
    },
    {
      "inputs": [],
      "name": "NotOwner",
      "type": "error"
    },
    {
      "inputs": [],
      "name": "ReentrancyGuardReentrantCall",
      "type": "error"
    },
    {
      "inputs": [
        {
          "internalType": "address",
          "name": "token",
          "type": "address"
        }
      ],
      "name": "SafeERC20FailedOperation",
      "type": "error"
    },
    {
      "inputs": [],
      "name": "UnauthorizedCaller",
      "type": "error"
    },
    {
      "inputs": [],
      "name": "ZeroValueNotAllowed",
      "type": "error"
    },
    {
      "anonymous": false,
      "inputs": [
        {
          "indexed": true,
          "internalType": "address",
          "name": "user",
          "type": "address"
        },
        {
          "indexed": true,
          "internalType": "address",
          "name": "token",
          "type": "address"
        },
        {
          "indexed": false,
          "internalType": "uint256",
          "name": "amount",
          "type": "uint256"
        }
      ],
      "name": "AutomatedSavingExecuted",
      "type": "event"
    },
    {
      "anonymous": false,
      "inputs": [
        {
          "indexed": true,
          "internalType": "address",
          "name": "user",
          "type": "address"
        },
        {
          "indexed": true,
          "internalType": "address",
          "name": "token",
          "type": "address"
        },
        {
          "indexed": false,
          "internalType": "uint256",
          "name": "amount",
          "type": "uint256"
        },
        {
          "indexed": false,
          "internalType": "uint256",
          "name": "frequency",
          "type": "uint256"
        }
      ],
      "name": "AutomatedSavingSet",
      "type": "event"
    },
    {
      "anonymous": false,
      "inputs": [
        {
          "indexed": true,
          "internalType": "address",
          "name": "user",
          "type": "address"
        },
        {
          "indexed": false,
          "internalType": "uint256",
          "name": "amount",
          "type": "uint256"
        }
      ],
      "name": "BalanceWithdrawnToUserAccount",
      "type": "event"
    },
    {
      "anonymous": false,
      "inputs": [
        {
          "indexed": true,
          "internalType": "address",
          "name": "user",
          "type": "address"
        },
        {
          "indexed": true,
          "internalType": "address",
          "name": "token",
          "type": "address"
        },
        {
          "indexed": false,
          "internalType": "uint256",
          "name": "amount",
          "type": "uint256"
        }
      ],
      "name": "DepositSuccessful",
      "type": "event"
    },
    {
      "anonymous": false,
      "inputs": [
        {
          "indexed": true,
          "internalType": "address",
          "name": "user",
          "type": "address"
        },
        {
          "indexed": true,
          "internalType": "address",
          "name": "token",
          "type": "address"
        },
        {
          "indexed": false,
          "internalType": "uint256",
          "name": "amount",
          "type": "uint256"
        },
        {
          "indexed": false,
          "internalType": "uint256",
          "name": "duration",
          "type": "uint256"
        }
      ],
      "name": "SavedSuccessfully",
      "type": "event"
    },
    {
      "anonymous": false,
      "inputs": [
        {
          "indexed": true,
          "internalType": "address",
          "name": "user",
          "type": "address"
        },
        {
          "indexed": false,
          "internalType": "uint256",
          "name": "amount",
          "type": "uint256"
        },
        {
          "indexed": false,
          "internalType": "uint256",
          "name": "fee",
          "type": "uint256"
        },
        {
          "indexed": false,
          "internalType": "bool",
          "name": "earlyWithdrawal",
          "type": "bool"
        }
      ],
      "name": "SavingsWithdrawn",
      "type": "event"
    },
    {
      "anonymous": false,
      "inputs": [
        {
          "indexed": true,
          "internalType": "address",
          "name": "user",
          "type": "address"
        },
        {
          "indexed": true,
          "internalType": "address",
          "name": "token",
          "type": "address"
        },
        {
          "indexed": false,
          "internalType": "uint256",
          "name": "amountSaved",
          "type": "uint256"
        }
      ],
      "name": "SpendAndSave",
      "type": "event"
    },
    {
      "anonymous": false,
      "inputs": [
        {
          "indexed": true,
          "internalType": "address",
          "name": "user",
          "type": "address"
        },
        {
          "indexed": false,
          "internalType": "address",
          "name": "tokenType",
          "type": "address"
        },
        {
          "indexed": false,
          "internalType": "uint256",
          "name": "amount",
          "type": "uint256"
        }
      ],
      "name": "Withdrawn",
      "type": "event"
    },
    {
      "inputs": [
        {
          "internalType": "address",
          "name": "_token",
          "type": "address"
        },
        {
          "internalType": "enum Savings.TokenType",
          "name": "_tokenType",
          "type": "uint8"
        }
      ],
      "name": "addAcceptedToken",
      "outputs": [],
      "stateMutability": "nonpayable",
      "type": "function"
    },
    {
      "inputs": [
        {
          "internalType": "address",
          "name": "_token",
          "type": "address"
        },
        {
          "internalType": "uint8",
          "name": "_percentage",
          "type": "uint8"
        },
        {
          "internalType": "uint256",
          "name": "_duration",
          "type": "uint256"
        }
      ],
      "name": "createSpendAndSavePlan",
      "outputs": [],
      "stateMutability": "nonpayable",
      "type": "function"
    },
    {
      "inputs": [
        {
          "internalType": "uint256",
          "name": "_amount",
          "type": "uint256"
        },
        {
          "internalType": "address",
          "name": "_token",
          "type": "address"
        }
      ],
      "name": "depositToPool",
      "outputs": [],
      "stateMutability": "nonpayable",
      "type": "function"
    },
    {
      "inputs": [
        {
          "internalType": "address",
          "name": "_user",
          "type": "address"
        }
      ],
      "name": "executeAutomatedSaving",
      "outputs": [],
      "stateMutability": "nonpayable",
      "type": "function"
    },
    {
      "inputs": [
        {
          "internalType": "address",
          "name": "_user",
          "type": "address"
        }
      ],
      "name": "getAvailableBalance",
      "outputs": [
        {
          "internalType": "uint256",
          "name": "",
          "type": "uint256"
        }
      ],
      "stateMutability": "view",
      "type": "function"
    },
    {
      "inputs": [
        {
          "internalType": "address",
          "name": "_token",
          "type": "address"
        }
      ],
      "name": "getContractBalance",
      "outputs": [
        {
          "internalType": "uint256",
          "name": "",
          "type": "uint256"
        }
      ],
      "stateMutability": "view",
      "type": "function"
    },
    {
      "inputs": [
        {
          "internalType": "enum Savings.TokenType",
          "name": "_tokenType",
          "type": "uint8"
        }
      ],
      "name": "getTokenAddress",
      "outputs": [
        {
          "internalType": "address",
          "name": "",
          "type": "address"
        }
      ],
      "stateMutability": "view",
      "type": "function"
    },
    {
      "inputs": [
        {
          "internalType": "address",
          "name": "_user",
          "type": "address"
        }
      ],
      "name": "getTotalSavingsBalance",
      "outputs": [
        {
          "internalType": "uint256",
          "name": "",
          "type": "uint256"
        }
      ],
      "stateMutability": "view",
      "type": "function"
    },
    {
      "inputs": [
        {
          "internalType": "address",
          "name": "_user",
          "type": "address"
        }
      ],
      "name": "getUserBalances",
      "outputs": [
        {
          "components": [
            {
              "internalType": "address",
              "name": "token",
              "type": "address"
            },
            {
              "internalType": "uint256",
              "name": "balance",
              "type": "uint256"
            }
          ],
          "internalType": "struct Savings.Balances[]",
          "name": "",
          "type": "tuple[]"
        }
      ],
      "stateMutability": "view",
      "type": "function"
    },
    {
      "inputs": [],
      "name": "owner",
      "outputs": [
        {
          "internalType": "address",
          "name": "",
          "type": "address"
        }
      ],
      "stateMutability": "view",
      "type": "function"
    },
    {
      "inputs": [
        {
          "internalType": "enum Savings.TokenType",
          "name": "_tokenType",
          "type": "uint8"
        }
      ],
      "name": "removeAcceptedToken",
      "outputs": [],
      "stateMutability": "nonpayable",
      "type": "function"
    },
    {
      "inputs": [
        {
          "internalType": "address",
          "name": "_token",
          "type": "address"
        },
        {
          "internalType": "uint256",
          "name": "_amount",
          "type": "uint256"
        },
        {
          "internalType": "uint256",
          "name": "_duration",
          "type": "uint256"
        },
        {
          "internalType": "string",
          "name": "_typeName",
          "type": "string"
        }
      ],
      "name": "save",
      "outputs": [],
      "stateMutability": "nonpayable",
      "type": "function"
    },
    {
      "inputs": [
        {
          "internalType": "address",
          "name": "_token",
          "type": "address"
        },
        {
          "internalType": "uint256",
          "name": "_amount",
          "type": "uint256"
        },
        {
          "internalType": "uint256",
          "name": "_frequency",
          "type": "uint256"
        }
      ],
      "name": "setAutomatedSavingsPlan",
      "outputs": [],
      "stateMutability": "nonpayable",
      "type": "function"
    },
    {
      "inputs": [
        {
          "internalType": "address",
          "name": "_token",
          "type": "address"
        },
        {
          "internalType": "uint256",
          "name": "_amount",
          "type": "uint256"
        }
      ],
      "name": "spendAndSave",
      "outputs": [],
      "stateMutability": "nonpayable",
      "type": "function"
    },
    {
      "inputs": [],
      "name": "trustedForwarder",
      "outputs": [
        {
          "internalType": "address",
          "name": "",
          "type": "address"
        }
      ],
      "stateMutability": "view",
      "type": "function"
    },
    {
      "inputs": [
        {
          "internalType": "address",
          "name": "_token",
          "type": "address"
        },
        {
          "internalType": "uint256",
          "name": "_amount",
          "type": "uint256"
        }
      ],
      "name": "withdrawFromPool",
      "outputs": [],
      "stateMutability": "nonpayable",
      "type": "function"
    },
    {
      "inputs": [
        {
          "internalType": "address",
          "name": "_token",
          "type": "address"
        },
        {
          "internalType": "uint256",
          "name": "_amount",
          "type": "uint256"
        },
        {
          "internalType": "bool",
          "name": "_acceptEarlyWithdrawalFee",
          "type": "bool"
        }
      ],
      "name": "withdrawSavings",
      "outputs": [],
      "stateMutability": "nonpayable",
      "type": "function"
    }
  ],
  "bytecode": "0x60806040523480156200001157600080fd5b5060405162003f1e38038062003f1e833981810160405281019062000037919062000370565b600160008190555033600160006101000a81548173ffffffffffffffffffffffffffffffffffffffff021916908373ffffffffffffffffffffffffffffffffffffffff16021790555082600860008060028111156200009b576200009a620003cc565b5b6002811115620000b057620000af620003cc565b5b815260200190815260200160002060006101000a81548173ffffffffffffffffffffffffffffffffffffffff021916908373ffffffffffffffffffffffffffffffffffffffff160217905550816008600060016002811115620001185762000117620003cc565b5b60028111156200012d576200012c620003cc565b5b815260200190815260200160002060006101000a81548173ffffffffffffffffffffffffffffffffffffffff021916908373ffffffffffffffffffffffffffffffffffffffff1602179055508060086000600280811115620001945762000193620003cc565b5b6002811115620001a957620001a8620003cc565b5b815260200190815260200160002060006101000a81548173ffffffffffffffffffffffffffffffffffffffff021916908373ffffffffffffffffffffffffffffffffffffffff1602179055506001600660008573ffffffffffffffffffffffffffffffffffffffff1673ffffffffffffffffffffffffffffffffffffffff16815260200190815260200160002060006101000a81548160ff0219169083151502179055506001600660008473ffffffffffffffffffffffffffffffffffffffff1673ffffffffffffffffffffffffffffffffffffffff16815260200190815260200160002060006101000a81548160ff0219169083151502179055506001600660008373ffffffffffffffffffffffffffffffffffffffff1673ffffffffffffffffffffffffffffffffffffffff16815260200190815260200160002060006101000a81548160ff021916908315150217905550505050620003fb565b600080fd5b600073ffffffffffffffffffffffffffffffffffffffff82169050919050565b600062000338826200030b565b9050919050565b6200034a816200032b565b81146200035657600080fd5b50565b6000815190506200036a816200033f565b92915050565b6000806000606084860312156200038c576200038b62000306565b5b60006200039c8682870162000359565b9350506020620003af8682870162000359565b9250506040620003c28682870162000359565b9150509250925092565b7f4e487b7100000000000000000000000000000000000000000000000000000000600052602160045260246000fd5b613b13806200040b6000396000f3fe608060405234801561001057600080fd5b506004361061010b5760003560e01c80636c24a76f116100a25780638da5cb5b116100715780638da5cb5b1461029e5780638ec8cb25146102bc578063abd3f612146102ec578063bc926f6e1461031c578063c1bf9e58146103385761010b565b80636c24a76f146102185780637ac5ada2146102485780637da0a877146102645780638bb51082146102825761010b565b806343ab265f116100de57806343ab265f146101805780635613c456146101b05780635ad3f918146101cc578063678d0e0e146101fc5761010b565b80630a64dc3e14610110578063169826291461012c5780631d74e4be146101485780631d929d7d14610164575b600080fd5b61012a60048036038101906101259190612d30565b610354565b005b61014660048036038101906101419190612ed9565b6108b8565b005b610162600480360381019061015d9190612f94565b610d8a565b005b61017e60048036038101906101799190612fe7565b611267565b005b61019a60048036038101906101959190612d30565b6116e5565b6040516101a79190613036565b60405180910390f35b6101ca60048036038101906101c59190613051565b6117ef565b005b6101e660048036038101906101e191906130c9565b611a02565b6040516101f39190613105565b60405180910390f35b610216600480360381019061021191906130c9565b611a63565b005b610232600480360381019061022d9190612d30565b611c88565b60405161023f9190613036565b60405180910390f35b610262600480360381019061025d9190613159565b611e3c565b005b61026c612009565b6040516102799190613105565b60405180910390f35b61029c600480360381019061029791906131ac565b61202f565b005b6102a66122bc565b6040516102b39190613105565b60405180910390f35b6102d660048036038101906102d19190612d30565b6122e2565b6040516102e39190613036565b60405180910390f35b61030660048036038101906103019190612d30565b612356565b60405161031391906132e8565b60405180910390f35b6103366004803603810190610331919061330a565b612454565b005b610352600480360381019061034d91906131ac565b612613565b005b600260009054906101000a900473ffffffffffffffffffffffffffffffffffffffff1673ffffffffffffffffffffffffffffffffffffffff163373ffffffffffffffffffffffffffffffffffffffff16146103db576040517f5c427cd900000000000000000000000000000000000000000000000000000000815260040160405180910390fd5b6000600760008373ffffffffffffffffffffffffffffffffffffffff1673ffffffffffffffffffffffffffffffffffffffff1681526020019081526020016000209050600081600101541480610435575060008160020154145b1561044057506108b5565b806002015481600301546104549190613379565b42101561046157506108b5565b6000600360008473ffffffffffffffffffffffffffffffffffffffff1673ffffffffffffffffffffffffffffffffffffffff16815260200190815260200160002090506000805b8280549050811015610588578360000160009054906101000a900473ffffffffffffffffffffffffffffffffffffffff1673ffffffffffffffffffffffffffffffffffffffff16838281548110610502576105016133ad565b5b906000526020600020906002020160000160009054906101000a900473ffffffffffffffffffffffffffffffffffffffff1673ffffffffffffffffffffffffffffffffffffffff160361057b57828181548110610562576105616133ad565b5b9060005260206000209060020201600101549150610588565b80806001019150506104a8565b50826001015481101561059d575050506108b5565b60005b8280549050811015610698578360000160009054906101000a900473ffffffffffffffffffffffffffffffffffffffff1673ffffffffffffffffffffffffffffffffffffffff168382815481106105fa576105f96133ad565b5b906000526020600020906002020160000160009054906101000a900473ffffffffffffffffffffffffffffffffffffffff1673ffffffffffffffffffffffffffffffffffffffff160361068b57836001015483828154811061065f5761065e6133ad565b5b9060005260206000209060020201600101600082825461067f91906133dc565b92505081905550610698565b80806001019150506105a0565b506040518060c0016040528060405180602001604052806040518060400160405280600981526020017f4175746f6d61746564000000000000000000000000000000000000000000000081525081525081526020018460000160009054906101000a900473ffffffffffffffffffffffffffffffffffffffff1673ffffffffffffffffffffffffffffffffffffffff16815260200184600101548152602001600081526020014281526020016000815250600560008673ffffffffffffffffffffffffffffffffffffffff1673ffffffffffffffffffffffffffffffffffffffff16815260200190815260200160002060008201518160000160008201518160000190816107a69190613627565b50505060208201518160010160006101000a81548173ffffffffffffffffffffffffffffffffffffffff021916908373ffffffffffffffffffffffffffffffffffffffff16021790555060408201518160020155606082015181600301556080820151816004015560a082015181600501559050504283600301819055508260000160009054906101000a900473ffffffffffffffffffffffffffffffffffffffff1673ffffffffffffffffffffffffffffffffffffffff168473ffffffffffffffffffffffffffffffffffffffff167f751ceaac5dfa620113dae99692e4bcc148db4733b03842d178484c50d980035c85600101546040516108a99190613036565b60405180910390a35050505b50565b600073ffffffffffffffffffffffffffffffffffffffff163373ffffffffffffffffffffffffffffffffffffffff160361091e576040517f287170f900000000000000000000000000000000000000000000000000000000815260040160405180910390fd5b60008303610958576040517f9cf8540c00000000000000000000000000000000000000000000000000000000815260040160405180910390fd5b600660008573ffffffffffffffffffffffffffffffffffffffff1673ffffffffffffffffffffffffffffffffffffffff16815260200190815260200160002060009054906101000a900460ff166109db576040517f1eb00b0600000000000000000000000000000000000000000000000000000000815260040160405180910390fd5b6000600360003373ffffffffffffffffffffffffffffffffffffffff1673ffffffffffffffffffffffffffffffffffffffff16815260200190815260200160002090506000805b8280549050811015610ade578673ffffffffffffffffffffffffffffffffffffffff16838281548110610a5857610a576133ad565b5b906000526020600020906002020160000160009054906101000a900473ffffffffffffffffffffffffffffffffffffffff1673ffffffffffffffffffffffffffffffffffffffff1603610ad157828181548110610ab857610ab76133ad565b5b9060005260206000209060020201600101549150610ade565b8080600101915050610a22565b5084811015610b19576040517f356680b700000000000000000000000000000000000000000000000000000000815260040160405180910390fd5b60005b8280549050811015610bec578673ffffffffffffffffffffffffffffffffffffffff16838281548110610b5257610b516133ad565b5b906000526020600020906002020160000160009054906101000a900473ffffffffffffffffffffffffffffffffffffffff1673ffffffffffffffffffffffffffffffffffffffff1603610bdf5785838281548110610bb357610bb26133ad565b5b90600052602060002090600202016001016000828254610bd391906133dc565b92505081905550610bec565b8080600101915050610b1c565b506040518060c0016040528060405180602001604052808681525081526020018773ffffffffffffffffffffffffffffffffffffffff1681526020018681526020018581526020014281526020018542610c469190613379565b815250600560003373ffffffffffffffffffffffffffffffffffffffff1673ffffffffffffffffffffffffffffffffffffffff1681526020019081526020016000206000820151816000016000820151816000019081610ca69190613627565b50505060208201518160010160006101000a81548173ffffffffffffffffffffffffffffffffffffffff021916908373ffffffffffffffffffffffffffffffffffffffff16021790555060408201518160020155606082015181600301556080820151816004015560a082015181600501559050508573ffffffffffffffffffffffffffffffffffffffff163373ffffffffffffffffffffffffffffffffffffffff167f3366ce755cd25539463e10c81609f7acf012fd288caed6c0f6494f6808268ce48787604051610d7a9291906136f9565b60405180910390a3505050505050565b610d926128c2565b6000600560003373ffffffffffffffffffffffffffffffffffffffff1673ffffffffffffffffffffffffffffffffffffffff1681526020019081526020016000209050600081600201541480610e3857508373ffffffffffffffffffffffffffffffffffffffff168160010160009054906101000a900473ffffffffffffffffffffffffffffffffffffffff1673ffffffffffffffffffffffffffffffffffffffff1614155b15610e6f576040517fc945242d00000000000000000000000000000000000000000000000000000000815260040160405180910390fd5b8060020154831115610ead576040517f356680b700000000000000000000000000000000000000000000000000000000815260040160405180910390fd5b600081600501544210159050600081610f135783610ef7576040517fc945242d00000000000000000000000000000000000000000000000000000000815260040160405180910390fd5b6064600186610f069190613722565b610f109190613793565b90505b60008186610f2191906133dc565b905085846002016000828254610f3791906133dc565b925050819055506000600360003373ffffffffffffffffffffffffffffffffffffffff1673ffffffffffffffffffffffffffffffffffffffff168152602001908152602001600020905060005b8180549050811015611054578873ffffffffffffffffffffffffffffffffffffffff16828281548110610fba57610fb96133ad565b5b906000526020600020906002020160000160009054906101000a900473ffffffffffffffffffffffffffffffffffffffff1673ffffffffffffffffffffffffffffffffffffffff1603611047578282828154811061101b5761101a6133ad565b5b9060005260206000209060020201600101600082825461103b9190613379565b92505081905550611054565b8080600101915050610f84565b5060008311156111555760005b818054905081101561115357600160009054906101000a900473ffffffffffffffffffffffffffffffffffffffff1673ffffffffffffffffffffffffffffffffffffffff168282815481106110b9576110b86133ad565b5b906000526020600020906002020160000160009054906101000a900473ffffffffffffffffffffffffffffffffffffffff1673ffffffffffffffffffffffffffffffffffffffff1603611146578382828154811061111a576111196133ad565b5b9060005260206000209060020201600101600082825461113a9190613379565b92505081905550611153565b8080600101915050611061565b505b600085600201540361120257600560003373ffffffffffffffffffffffffffffffffffffffff1673ffffffffffffffffffffffffffffffffffffffff1681526020019081526020016000206000808201600080820160006111b69190612c61565b50506001820160006101000a81549073ffffffffffffffffffffffffffffffffffffffff0219169055600282016000905560038201600090556004820160009055600582016000905550505b3373ffffffffffffffffffffffffffffffffffffffff167f1e6744cf99e958a70221fb97952f96f75e084ed8cf6e03d1e52de8edab644ca78885871560405161124d939291906137d3565b60405180910390a25050505050611262612908565b505050565b600073ffffffffffffffffffffffffffffffffffffffff163373ffffffffffffffffffffffffffffffffffffffff16036112cd576040517f287170f900000000000000000000000000000000000000000000000000000000815260040160405180910390fd5b60008203611307576040517f9cf8540c00000000000000000000000000000000000000000000000000000000815260040160405180910390fd5b600660008273ffffffffffffffffffffffffffffffffffffffff1673ffffffffffffffffffffffffffffffffffffffff16815260200190815260200160002060009054906101000a900460ff1661138a576040517f1eb00b0600000000000000000000000000000000000000000000000000000000815260040160405180910390fd5b60008173ffffffffffffffffffffffffffffffffffffffff1663dd62ed3e33306040518363ffffffff1660e01b81526004016113c792919061380a565b602060405180830381865afa1580156113e4573d6000803e3d6000fd5b505050506040513d601f19601f820116820180604052508101906114089190613848565b905082811015611444576040517f13be252b00000000000000000000000000000000000000000000000000000000815260040160405180910390fd5b6114713330858573ffffffffffffffffffffffffffffffffffffffff16612912909392919063ffffffff16565b600080600360003373ffffffffffffffffffffffffffffffffffffffff1673ffffffffffffffffffffffffffffffffffffffff168152602001908152602001600020905060005b818054905081101561158c578473ffffffffffffffffffffffffffffffffffffffff168282815481106114ee576114ed6133ad565b5b906000526020600020906002020160000160009054906101000a900473ffffffffffffffffffffffffffffffffffffffff1673ffffffffffffffffffffffffffffffffffffffff160361157f578582828154811061154f5761154e6133ad565b5b9060005260206000209060020201600101600082825461156f9190613379565b925050819055506001925061158c565b80806001019150506114b8565b508161167957600360003373ffffffffffffffffffffffffffffffffffffffff1673ffffffffffffffffffffffffffffffffffffffff16815260200190815260200160002060405180604001604052808673ffffffffffffffffffffffffffffffffffffffff16815260200187815250908060018154018082558091505060019003906000526020600020906002020160009091909190915060008201518160000160006101000a81548173ffffffffffffffffffffffffffffffffffffffff021916908373ffffffffffffffffffffffffffffffffffffffff1602179055506020820151816001015550505b8373ffffffffffffffffffffffffffffffffffffffff163373ffffffffffffffffffffffffffffffffffffffff167f9ca48962abdef1f62fa7920028db6cba8d22078c8f24fa2c9d3738a7cebe7a85876040516116d69190613036565b60405180910390a35050505050565b6000600160009054906101000a900473ffffffffffffffffffffffffffffffffffffffff1673ffffffffffffffffffffffffffffffffffffffff163373ffffffffffffffffffffffffffffffffffffffff161461176e576040517f30cd747100000000000000000000000000000000000000000000000000000000815260040160405180910390fd5b8173ffffffffffffffffffffffffffffffffffffffff166370a08231306040518263ffffffff1660e01b81526004016117a79190613105565b602060405180830381865afa1580156117c4573d6000803e3d6000fd5b505050506040513d601f19601f820116820180604052508101906117e89190613848565b9050919050565b600660008473ffffffffffffffffffffffffffffffffffffffff1673ffffffffffffffffffffffffffffffffffffffff16815260200190815260200160002060009054906101000a900460ff16611872576040517f1eb00b0600000000000000000000000000000000000000000000000000000000815260040160405180910390fd5b60008214806118815750600081145b156118b8576040517f9cf8540c00000000000000000000000000000000000000000000000000000000815260040160405180910390fd5b60405180608001604052808473ffffffffffffffffffffffffffffffffffffffff16815260200183815260200182815260200142815250600760003373ffffffffffffffffffffffffffffffffffffffff1673ffffffffffffffffffffffffffffffffffffffff16815260200190815260200160002060008201518160000160006101000a81548173ffffffffffffffffffffffffffffffffffffffff021916908373ffffffffffffffffffffffffffffffffffffffff1602179055506020820151816001015560408201518160020155606082015181600301559050508273ffffffffffffffffffffffffffffffffffffffff163373ffffffffffffffffffffffffffffffffffffffff167fe26471f927db51b06840ef9087031a3f98a67ed7d41073b89827f7fd02e0a00184846040516119f59291906136f9565b60405180910390a3505050565b600060086000836002811115611a1b57611a1a613875565b5b6002811115611a2d57611a2c613875565b5b815260200190815260200160002060009054906101000a900473ffffffffffffffffffffffffffffffffffffffff169050919050565b600160009054906101000a900473ffffffffffffffffffffffffffffffffffffffff1673ffffffffffffffffffffffffffffffffffffffff163373ffffffffffffffffffffffffffffffffffffffff1614611aea576040517f30cd747100000000000000000000000000000000000000000000000000000000815260040160405180910390fd5b600060086000836002811115611b0357611b02613875565b5b6002811115611b1557611b14613875565b5b815260200190815260200160002060009054906101000a900473ffffffffffffffffffffffffffffffffffffffff169050600660008273ffffffffffffffffffffffffffffffffffffffff1673ffffffffffffffffffffffffffffffffffffffff16815260200190815260200160002060009054906101000a900460ff16611bd2576040517f08c379a0000000000000000000000000000000000000000000000000000000008152600401611bc990613901565b60405180910390fd5b6000600660008373ffffffffffffffffffffffffffffffffffffffff1673ffffffffffffffffffffffffffffffffffffffff16815260200190815260200160002060006101000a81548160ff02191690831515021790555060086000836002811115611c4157611c40613875565b5b6002811115611c5357611c52613875565b5b815260200190815260200160002060006101000a81549073ffffffffffffffffffffffffffffffffffffffff02191690555050565b600080600090506000600360008573ffffffffffffffffffffffffffffffffffffffff1673ffffffffffffffffffffffffffffffffffffffff168152602001908152602001600020805480602002602001604051908101604052809291908181526020016000905b82821015611d8257838290600052602060002090600202016040518060400160405290816000820160009054906101000a900473ffffffffffffffffffffffffffffffffffffffff1673ffffffffffffffffffffffffffffffffffffffff1673ffffffffffffffffffffffffffffffffffffffff16815260200160018201548152505081526020019060010190611cf0565b50505050905060005b8151811015611dcd57818181518110611da757611da66133ad565b5b60200260200101516020015183611dbe9190613379565b92508080600101915050611d8b565b506000600560008673ffffffffffffffffffffffffffffffffffffffff1673ffffffffffffffffffffffffffffffffffffffff1681526020019081526020016000209050600081600201541115611e3157806002015483611e2e91906133dc565b92505b829350505050919050565b600660008473ffffffffffffffffffffffffffffffffffffffff1673ffffffffffffffffffffffffffffffffffffffff16815260200190815260200160002060009054906101000a900460ff16611ebf576040517f1eb00b0600000000000000000000000000000000000000000000000000000000815260040160405180910390fd5b60008260ff161480611ed4575060648260ff16115b15611f0b576040517f1f3b85d300000000000000000000000000000000000000000000000000000000815260040160405180910390fd5b60405180608001604052808473ffffffffffffffffffffffffffffffffffffffff168152602001600081526020018360ff16815260200182815250600960003373ffffffffffffffffffffffffffffffffffffffff1673ffffffffffffffffffffffffffffffffffffffff16815260200190815260200160002060008201518160000160006101000a81548173ffffffffffffffffffffffffffffffffffffffff021916908373ffffffffffffffffffffffffffffffffffffffff1602179055506020820151816001015560408201518160020160006101000a81548160ff021916908360ff16021790555060608201518160030155905050505050565b600260009054906101000a900473ffffffffffffffffffffffffffffffffffffffff1681565b6120376128c2565b60008103612071576040517f9cf8540c00000000000000000000000000000000000000000000000000000000815260040160405180910390fd5b600660008373ffffffffffffffffffffffffffffffffffffffff1673ffffffffffffffffffffffffffffffffffffffff16815260200190815260200160002060009054906101000a900460ff166120f4576040517f1eb00b0600000000000000000000000000000000000000000000000000000000815260040160405180910390fd5b6000600960003373ffffffffffffffffffffffffffffffffffffffff1673ffffffffffffffffffffffffffffffffffffffff16815260200190815260200160002090508273ffffffffffffffffffffffffffffffffffffffff168160000160009054906101000a900473ffffffffffffffffffffffffffffffffffffffff1673ffffffffffffffffffffffffffffffffffffffff16146121c0576040517f1eb00b0600000000000000000000000000000000000000000000000000000000815260040160405180910390fd5b600060648260020160009054906101000a900460ff1660ff16846121e49190613722565b6121ee9190613793565b905060008111156122ae576122038185611267565b612248848284600301546040518060400160405280600c81526020017f7370656e64416e645361766500000000000000000000000000000000000000008152506108b8565b8373ffffffffffffffffffffffffffffffffffffffff163373ffffffffffffffffffffffffffffffffffffffff167f3b118dd1d3abd7bc664ff130e14fa3d2bdb4a556f758c5247ddd0f7f1bf25444836040516122a59190613036565b60405180910390a35b50506122b8612908565b5050565b600160009054906101000a900473ffffffffffffffffffffffffffffffffffffffff1681565b600080600090506000600560008573ffffffffffffffffffffffffffffffffffffffff1673ffffffffffffffffffffffffffffffffffffffff168152602001908152602001600020905060008160020154111561234c578060020154826123499190613379565b91505b8192505050919050565b6060600360008373ffffffffffffffffffffffffffffffffffffffff1673ffffffffffffffffffffffffffffffffffffffff168152602001908152602001600020805480602002602001604051908101604052809291908181526020016000905b8282101561244957838290600052602060002090600202016040518060400160405290816000820160009054906101000a900473ffffffffffffffffffffffffffffffffffffffff1673ffffffffffffffffffffffffffffffffffffffff1673ffffffffffffffffffffffffffffffffffffffff168152602001600182015481525050815260200190600101906123b7565b505050509050919050565b600160009054906101000a900473ffffffffffffffffffffffffffffffffffffffff1673ffffffffffffffffffffffffffffffffffffffff163373ffffffffffffffffffffffffffffffffffffffff16146124db576040517f30cd747100000000000000000000000000000000000000000000000000000000815260040160405180910390fd5b600073ffffffffffffffffffffffffffffffffffffffff168273ffffffffffffffffffffffffffffffffffffffff1614612541576040517f1eb00b0600000000000000000000000000000000000000000000000000000000815260040160405180910390fd5b6001600660008473ffffffffffffffffffffffffffffffffffffffff1673ffffffffffffffffffffffffffffffffffffffff16815260200190815260200160002060006101000a81548160ff02191690831515021790555081600860008360028111156125b1576125b0613875565b5b60028111156125c3576125c2613875565b5b815260200190815260200160002060006101000a81548173ffffffffffffffffffffffffffffffffffffffff021916908373ffffffffffffffffffffffffffffffffffffffff1602179055505050565b61261b6128c2565b60008103612655576040517f9cf8540c00000000000000000000000000000000000000000000000000000000815260040160405180910390fd5b6000600360003373ffffffffffffffffffffffffffffffffffffffff1673ffffffffffffffffffffffffffffffffffffffff168152602001908152602001600020905060008060005b83805490508110156127f7578573ffffffffffffffffffffffffffffffffffffffff168482815481106126d4576126d36133ad565b5b906000526020600020906002020160000160009054906101000a900473ffffffffffffffffffffffffffffffffffffffff1673ffffffffffffffffffffffffffffffffffffffff16036127ea5784848281548110612735576127346133ad565b5b906000526020600020906002020160010154101561277f576040517f356680b700000000000000000000000000000000000000000000000000000000815260040160405180910390fd5b838181548110612792576127916133ad565b5b9060005260206000209060020201600101549250848482815481106127ba576127b96133ad565b5b906000526020600020906002020160010160008282546127da91906133dc565b92505081905550600191506127f7565b808060010191505061269e565b5080612838576040517f08c379a000000000000000000000000000000000000000000000000000000000815260040161282f90613993565b60405180910390fd5b61286333858773ffffffffffffffffffffffffffffffffffffffff166129949092919063ffffffff16565b3373ffffffffffffffffffffffffffffffffffffffff167fd1c19fbcd4551a5edfb66d43d2e337c04837afda3482b42bdf569a8fccdae5fb86866040516128ab9291906139b3565b60405180910390a25050506128be612908565b5050565b6002600054036128fe576040517f3ee5aeb500000000000000000000000000000000000000000000000000000000815260040160405180910390fd5b6002600081905550565b6001600081905550565b61298e848573ffffffffffffffffffffffffffffffffffffffff166323b872dd868686604051602401612947939291906139dc565b604051602081830303815290604052915060e01b6020820180517bffffffffffffffffffffffffffffffffffffffffffffffffffffffff8381831617835250505050612a13565b50505050565b612a0e838473ffffffffffffffffffffffffffffffffffffffff1663a9059cbb85856040516024016129c79291906139b3565b604051602081830303815290604052915060e01b6020820180517bffffffffffffffffffffffffffffffffffffffffffffffffffffffff8381831617835250505050612a13565b505050565b6000612a3e828473ffffffffffffffffffffffffffffffffffffffff16612aaa90919063ffffffff16565b90506000815114158015612a63575080806020019051810190612a619190613a28565b155b15612aa557826040517f5274afe7000000000000000000000000000000000000000000000000000000008152600401612a9c9190613105565b60405180910390fd5b505050565b6060612ab883836000612ac0565b905092915050565b606081471015612b0757306040517fcd786059000000000000000000000000000000000000000000000000000000008152600401612afe9190613105565b60405180910390fd5b6000808573ffffffffffffffffffffffffffffffffffffffff168486604051612b309190613ac6565b60006040518083038185875af1925050503d8060008114612b6d576040519150601f19603f3d011682016040523d82523d6000602084013e612b72565b606091505b5091509150612b82868383612b8d565b925050509392505050565b606082612ba257612b9d82612c1c565b612c14565b60008251148015612bca575060008473ffffffffffffffffffffffffffffffffffffffff163b145b15612c0c57836040517f9996b315000000000000000000000000000000000000000000000000000000008152600401612c039190613105565b60405180910390fd5b819050612c15565b5b9392505050565b600081511115612c2f5780518082602001fd5b6040517f1425ea4200000000000000000000000000000000000000000000000000000000815260040160405180910390fd5b508054612c6d9061344a565b6000825580601f10612c7f5750612c9e565b601f016020900490600052602060002090810190612c9d9190612ca1565b5b50565b5b80821115612cba576000816000905550600101612ca2565b5090565b6000604051905090565b600080fd5b600080fd5b600073ffffffffffffffffffffffffffffffffffffffff82169050919050565b6000612cfd82612cd2565b9050919050565b612d0d81612cf2565b8114612d1857600080fd5b50565b600081359050612d2a81612d04565b92915050565b600060208284031215612d4657612d45612cc8565b5b6000612d5484828501612d1b565b91505092915050565b6000819050919050565b612d7081612d5d565b8114612d7b57600080fd5b50565b600081359050612d8d81612d67565b92915050565b600080fd5b600080fd5b6000601f19601f8301169050919050565b7f4e487b7100000000000000000000000000000000000000000000000000000000600052604160045260246000fd5b612de682612d9d565b810181811067ffffffffffffffff82111715612e0557612e04612dae565b5b80604052505050565b6000612e18612cbe565b9050612e248282612ddd565b919050565b600067ffffffffffffffff821115612e4457612e43612dae565b5b612e4d82612d9d565b9050602081019050919050565b82818337600083830152505050565b6000612e7c612e7784612e29565b612e0e565b905082815260208101848484011115612e9857612e97612d98565b5b612ea3848285612e5a565b509392505050565b600082601f830112612ec057612ebf612d93565b5b8135612ed0848260208601612e69565b91505092915050565b60008060008060808587031215612ef357612ef2612cc8565b5b6000612f0187828801612d1b565b9450506020612f1287828801612d7e565b9350506040612f2387828801612d7e565b925050606085013567ffffffffffffffff811115612f4457612f43612ccd565b5b612f5087828801612eab565b91505092959194509250565b60008115159050919050565b612f7181612f5c565b8114612f7c57600080fd5b50565b600081359050612f8e81612f68565b92915050565b600080600060608486031215612fad57612fac612cc8565b5b6000612fbb86828701612d1b565b9350506020612fcc86828701612d7e565b9250506040612fdd86828701612f7f565b9150509250925092565b60008060408385031215612ffe57612ffd612cc8565b5b600061300c85828601612d7e565b925050602061301d85828601612d1b565b9150509250929050565b61303081612d5d565b82525050565b600060208201905061304b6000830184613027565b92915050565b60008060006060848603121561306a57613069612cc8565b5b600061307886828701612d1b565b935050602061308986828701612d7e565b925050604061309a86828701612d7e565b9150509250925092565b600381106130b157600080fd5b50565b6000813590506130c3816130a4565b92915050565b6000602082840312156130df576130de612cc8565b5b60006130ed848285016130b4565b91505092915050565b6130ff81612cf2565b82525050565b600060208201905061311a60008301846130f6565b92915050565b600060ff82169050919050565b61313681613120565b811461314157600080fd5b50565b6000813590506131538161312d565b92915050565b60008060006060848603121561317257613171612cc8565b5b600061318086828701612d1b565b935050602061319186828701613144565b92505060406131a286828701612d7e565b9150509250925092565b600080604083850312156131c3576131c2612cc8565b5b60006131d185828601612d1b565b92505060206131e285828601612d7e565b9150509250929050565b600081519050919050565b600082825260208201905092915050565b6000819050602082019050919050565b61322181612cf2565b82525050565b61323081612d5d565b82525050565b60408201600082015161324c6000850182613218565b50602082015161325f6020850182613227565b50505050565b60006132718383613236565b60408301905092915050565b6000602082019050919050565b6000613295826131ec565b61329f81856131f7565b93506132aa83613208565b8060005b838110156132db5781516132c28882613265565b97506132cd8361327d565b9250506001810190506132ae565b5085935050505092915050565b60006020820190508181036000830152613302818461328a565b905092915050565b6000806040838503121561332157613320612cc8565b5b600061332f85828601612d1b565b9250506020613340858286016130b4565b9150509250929050565b7f4e487b7100000000000000000000000000000000000000000000000000000000600052601160045260246000fd5b600061338482612d5d565b915061338f83612d5d565b92508282019050808211156133a7576133a661334a565b5b92915050565b7f4e487b7100000000000000000000000000000000000000000000000000000000600052603260045260246000fd5b60006133e782612d5d565b91506133f283612d5d565b925082820390508181111561340a5761340961334a565b5b92915050565b600081519050919050565b7f4e487b7100000000000000000000000000000000000000000000000000000000600052602260045260246000fd5b6000600282049050600182168061346257607f821691505b6020821081036134755761347461341b565b5b50919050565b60008190508160005260206000209050919050565b60006020601f8301049050919050565b600082821b905092915050565b6000600883026134dd7fffffffffffffffffffffffffffffffffffffffffffffffffffffffffffffffff826134a0565b6134e786836134a0565b95508019841693508086168417925050509392505050565b6000819050919050565b600061352461351f61351a84612d5d565b6134ff565b612d5d565b9050919050565b6000819050919050565b61353e83613509565b61355261354a8261352b565b8484546134ad565b825550505050565b600090565b61356761355a565b613572818484613535565b505050565b5b818110156135965761358b60008261355f565b600181019050613578565b5050565b601f8211156135db576135ac8161347b565b6135b584613490565b810160208510156135c4578190505b6135d86135d085613490565b830182613577565b50505b505050565b600082821c905092915050565b60006135fe600019846008026135e0565b1980831691505092915050565b600061361783836135ed565b9150826002028217905092915050565b61363082613410565b67ffffffffffffffff81111561364957613648612dae565b5b613653825461344a565b61365e82828561359a565b600060209050601f831160018114613691576000841561367f578287015190505b613689858261360b565b8655506136f1565b601f19841661369f8661347b565b60005b828110156136c7578489015182556001820191506020850194506020810190506136a2565b868310156136e457848901516136e0601f8916826135ed565b8355505b6001600288020188555050505b505050505050565b600060408201905061370e6000830185613027565b61371b6020830184613027565b9392505050565b600061372d82612d5d565b915061373883612d5d565b925082820261374681612d5d565b9150828204841483151761375d5761375c61334a565b5b5092915050565b7f4e487b7100000000000000000000000000000000000000000000000000000000600052601260045260246000fd5b600061379e82612d5d565b91506137a983612d5d565b9250826137b9576137b8613764565b5b828204905092915050565b6137cd81612f5c565b82525050565b60006060820190506137e86000830186613027565b6137f56020830185613027565b61380260408301846137c4565b949350505050565b600060408201905061381f60008301856130f6565b61382c60208301846130f6565b9392505050565b60008151905061384281612d67565b92915050565b60006020828403121561385e5761385d612cc8565b5b600061386c84828501613833565b91505092915050565b7f4e487b7100000000000000000000000000000000000000000000000000000000600052602160045260246000fd5b600082825260208201905092915050565b7f546f6b656e206973206e6f742061636365707465640000000000000000000000600082015250565b60006138eb6015836138a4565b91506138f6826138b5565b602082019050919050565b6000602082019050818103600083015261391a816138de565b9050919050565b7f546f6b656e206e6f7420666f756e6420696e20757365722773206465706f736960008201527f7473000000000000000000000000000000000000000000000000000000000000602082015250565b600061397d6022836138a4565b915061398882613921565b604082019050919050565b600060208201905081810360008301526139ac81613970565b9050919050565b60006040820190506139c860008301856130f6565b6139d56020830184613027565b9392505050565b60006060820190506139f160008301866130f6565b6139fe60208301856130f6565b613a0b6040830184613027565b949350505050565b600081519050613a2281612f68565b92915050565b600060208284031215613a3e57613a3d612cc8565b5b6000613a4c84828501613a13565b91505092915050565b600081519050919050565b600081905092915050565b60005b83811015613a89578082015181840152602081019050613a6e565b60008484015250505050565b6000613aa082613a55565b613aaa8185613a60565b9350613aba818560208601613a6b565b80840191505092915050565b6000613ad28284613a95565b91508190509291505056fea2646970667358221220b38e9870b76633c2eab1cfc51ae94ab161e888377bcd379f5735429ae907b1e664736f6c63430008180033",
  "linkReferences": {},
  "deployedLinkReferences": {}
}