{"abi":[{"type":"constructor","inputs":[{"name":"_contractOwner","type":"address","internalType":"address"},{"name":"_diamondCutFacet","type":"address","internalType":"address"},{"name":"_erc20TokenAddress","type":"address","internalType":"address"},{"name":"_liskTokenAddress","type":"address","internalType":"address"},{"name":"_safuTokenAddress","type":"address","internalType":"address"},{"name":"_initialFeePercentage","type":"uint256","internalType":"uint256"},{"name":"_feeCollector","type":"address","internalType":"address"}],"stateMutability":"payable"},{"type":"fallback","stateMutability":"payable"},{"type":"receive","stateMutability":"payable"},{"type":"function","name":"example","inputs":[],"outputs":[{"name":"","type":"string","internalType":"string"}],"stateMutability":"pure"},{"type":"event","name":"DiamondCut","inputs":[{"name":"_diamondCut","type":"tuple[]","indexed":false,"internalType":"struct IDiamondCut.FacetCut[]","components":[{"name":"facetAddress","type":"address","internalType":"address"},{"name":"action","type":"uint8","internalType":"enum IDiamondCut.FacetCutAction"},{"name":"functionSelectors","type":"bytes4[]","internalType":"bytes4[]"}]},{"name":"_init","type":"address","indexed":false,"internalType":"address"},{"name":"_calldata","type":"bytes","indexed":false,"internalType":"bytes"}],"anonymous":false},{"type":"event","name":"OwnershipTransferred","inputs":[{"name":"previousOwner","type":"address","indexed":true,"internalType":"address"},{"name":"newOwner","type":"address","indexed":true,"internalType":"address"}],"anonymous":false},{"type":"error","name":"EmptyCalldata","inputs":[]},{"type":"error","name":"ImmutableFunction","inputs":[{"name":"selector","type":"bytes4","internalType":"bytes4"}]},{"type":"error","name":"InValidFacetCutAction","inputs":[]},{"type":"error","name":"InitCallFailed","inputs":[]},{"type":"error","name":"MustBeZeroAddress","inputs":[]},{"type":"error","name":"NoCode","inputs":[]},{"type":"error","name":"NoSelectorsInFacet","inputs":[]},{"type":"error","name":"NoZeroAddress","inputs":[]},{"type":"error","name":"NonEmptyCalldata","inputs":[]},{"type":"error","name":"NonExistentSelector","inputs":[{"name":"selector","type":"bytes4","internalType":"bytes4"}]},{"type":"error","name":"SameSelectorReplacement","inputs":[{"name":"selector","type":"bytes4","internalType":"bytes4"}]},{"type":"error","name":"SelectorExists","inputs":[{"name":"selector","type":"bytes4","internalType":"bytes4"}]}],"bytecode":{"object":"0x60806040526040516112f43803806112f483398101604081905261002291610e7c565b6001600160a01b038516158061003f57506001600160a01b038416155b8061005157506001600160a01b038316155b1561006f5760405163ddbadd5f60e01b815260040160405180910390fd5b7f892f28ab4a04757a4a83f87860fefd250bbb955f41a724b43fc450baf132f54180546001600160a01b03199081166001600160a01b038881169182179093557f95b784cf29fc81b0b5e57980709053b661c71cfae0e7d31ed932a3b630e1f4c1805483168885169081179091557f7bb8ea45df6166f516a43de61a0385f3bcd7fe9a4fc9fd18693a60da2e26187d80549093169387169384179092555f9081527fc8fcad8db84d3cc18b4c41d551ea0ee66dd599cde068d998e57d5e09332c13346020526040808220805460ff199081166001908117909255938352818320805485168217905593825290208054909116909117905560035f5160206112d45f395f51905f52600b018054601490610193908490600160a01b900460ff16610f1e565b92506101000a81548160ff021916908360ff160217905550816101ba61030960201b60201c565b600d01557fc8fcad8db84d3cc18b4c41d551ea0ee66dd599cde068d998e57d5e09332c132a80546001600160a01b0319166001600160a01b0383161790556102018761031a565b6040805160018082528183019092525f91816020015b60408051606080820183525f8083526020830152918101919091528152602001906001900390816102175750506040805160018082528183019092529192505f919060208083019080368337019050509050631f931c1c60e01b815f8151811061028357610283610f3d565b6001600160e01b031990921660209283029190910182015260408051606081019091526001600160a01b038a1681529081015f815260200182815250825f815181106102d1576102d1610f3d565b60200260200101819052506102fb825f60405180602001604052805f81525061039b60201b60201c565b50505050505050505061110a565b5f5160206112d45f395f51905f5290565b7fc8fcad8db84d3cc18b4c41d551ea0ee66dd599cde068d998e57d5e09332c132080546001600160a01b031981166001600160a01b038481169182179093556040515f5160206112d45f395f51905f52939092169182907f8be0079c531659141344cd1fd0a4f28419497f9722a3daafe3b4186f6b6457e0905f90a3505050565b5f5b8351811015610523575f8482815181106103b9576103b9610f3d565b60200260200101516020015190505f60028111156103d9576103d9610ef6565b8160028111156103eb576103eb610ef6565b0361043e5761043985838151811061040557610405610f3d565b60200260200101515f015186848151811061042257610422610f3d565b60200260200101516040015161056e60201b60201c565b61051a565b600181600281111561045257610452610ef6565b036104a05761043985838151811061046c5761046c610f3d565b60200260200101515f015186848151811061048957610489610f3d565b60200260200101516040015161073160201b60201c565b60028160028111156104b4576104b4610ef6565b03610502576104398583815181106104ce576104ce610f3d565b60200260200101515f01518684815181106104eb576104eb610f3d565b6020026020010151604001516108f860201b60201c565b60405162c5e5d760e31b815260040160405180910390fd5b5060010161039d565b507f8faa70878671ccd212d20771b795c50af8fd3ff6cf27f4bde57e5d4de0aeb67383838360405161055793929190610f7f565b60405180910390a161056982826109b9565b505050565b5f81511161058f5760405163092d2fe560e41b815260040160405180910390fd5b5f5160206112d45f395f51905f526001600160a01b0383166105c45760405163ddbadd5f60e01b815260040160405180910390fd5b6001600160a01b0383165f908152600182016020526040812054906001600160601b03821690036105f9576105f98285610ac0565b5f5b835181101561072a575f84828151811061061757610617610f3d565b6020908102919091018101516001600160e01b031981165f908152918690526040909120549091506001600160a01b031680156106785760405163501e70c760e01b81526001600160e01b0319831660048201526024015b60405180910390fd5b6001600160e01b031982165f8181526020878152604080832080546001600160a01b03908116600160a01b6001600160601b038c16021782558c168085526001808c0185529285208054938401815585528385206008840401805463ffffffff60079095166004026101000a948502191660e08a901c94909402939093179092559390925287905281546001600160a01b0319161790558361071981611089565b945050600190920191506105fb9050565b5050505050565b5f8151116107525760405163092d2fe560e41b815260040160405180910390fd5b5f5160206112d45f395f51905f526001600160a01b0383166107875760405163ddbadd5f60e01b815260040160405180910390fd5b6001600160a01b0383165f908152600182016020526040812054906001600160601b03821690036107bc576107bc8285610ac0565b5f5b835181101561072a575f8482815181106107da576107da610f3d565b6020908102919091018101516001600160e01b031981165f908152918690526040909120549091506001600160a01b03908116908716810361083b57604051631c04188b60e31b81526001600160e01b03198316600482015260240161066f565b610846858284610b10565b6001600160e01b031982165f8181526020878152604080832080546001600160a01b03908116600160a01b6001600160601b038c16021782558c168085526001808c0185529285208054938401815585528385206008840401805463ffffffff60079095166004026101000a948502191660e08a901c94909402939093179092559390925287905281546001600160a01b031916179055836108e781611089565b945050600190920191506107be9050565b5f8151116109195760405163092d2fe560e41b815260040160405180910390fd5b5f5160206112d45f395f51905f526001600160a01b0383161561094f57604051631be65fe560e21b815260040160405180910390fd5b5f5b82518110156109b3575f83828151811061096d5761096d610f3d565b6020908102919091018101516001600160e01b031981165f908152918590526040909120549091506001600160a01b03166109a9848284610b10565b5050600101610951565b50505050565b6001600160a01b0382166109eb578051156109e75760405163c21b1ab760e01b815260040160405180910390fd5b5050565b80515f03610a0c57604051633011e86160e21b815260040160405180910390fd5b6001600160a01b0382163014610a2557610a2582610e41565b5f5f836001600160a01b031683604051610a3f91906110b4565b5f60405180830381855af49150503d805f8114610a77576040519150601f19603f3d011682016040523d82523d5f602084013e610a7c565b606091505b5091509150816109b357805115610aa7578060405162461bcd60e51b815260040161066f91906110ca565b604051633a18f8dd60e01b815260040160405180910390fd5b610ac981610e41565b6002820180546001600160a01b039092165f8181526001948501602090815260408220860185905594840183559182529290200180546001600160a01b0319169091179055565b6001600160a01b038216610b4257604051622902d360e91b81526001600160e01b03198216600482015260240161066f565b306001600160a01b03831603610b775760405163069731c560e41b81526001600160e01b03198216600482015260240161066f565b6001600160e01b031981165f90815260208481526040808320546001600160a01b0386168452600180880190935290832054600160a01b9091046001600160601b03169291610bc5916110e3565b9050808214610cb4576001600160a01b0384165f9081526001860160205260408120805483908110610bf957610bf9610f3d565b5f91825260208083206008830401546001600160a01b038916845260018a019091526040909220805460079092166004026101000a90920460e01b925082919085908110610c4957610c49610f3d565b5f91825260208083206008830401805463ffffffff60079094166004026101000a938402191660e09590951c929092029390931790556001600160e01b03199290921682528690526040902080546001600160a01b0316600160a01b6001600160601b038516021790555b6001600160a01b0384165f9081526001860160205260409020805480610cdc57610cdc6110f6565b5f828152602080822060085f1990940193840401805463ffffffff600460078716026101000a0219169055919092556001600160e01b0319851682528690526040812081905581900361072a5760028501545f90610d3c906001906110e3565b6001600160a01b0386165f908152600180890160205260409091200154909150808214610de7575f876002018381548110610d7957610d79610f3d565b5f918252602090912001546002890180546001600160a01b039092169250829184908110610da957610da9610f3d565b5f91825260208083209190910180546001600160a01b0319166001600160a01b03948516179055929091168152600189810190925260409020018190555b86600201805480610dfa57610dfa6110f6565b5f828152602080822083015f1990810180546001600160a01b03191690559092019092556001600160a01b0388168252600189810190915260408220015550505050505050565b803b806109e757604051633c11a9c560e21b815260040160405180910390fd5b80516001600160a01b0381168114610e77575f5ffd5b919050565b5f5f5f5f5f5f5f60e0888a031215610e92575f5ffd5b610e9b88610e61565b9650610ea960208901610e61565b9550610eb760408901610e61565b9450610ec560608901610e61565b9350610ed360808901610e61565b925060a08801519150610ee860c08901610e61565b905092959891949750929550565b634e487b7160e01b5f52602160045260245ffd5b634e487b7160e01b5f52601160045260245ffd5b60ff8181168382160190811115610f3757610f37610f0a565b92915050565b634e487b7160e01b5f52603260045260245ffd5b5f81518084528060208401602086015e5f602082860101526020601f19601f83011685010191505092915050565b5f606082016060835280865180835260808501915060808160051b8601019250602088015f5b8281101561105a57868503607f19018452815180516001600160a01b031686526020810151606087019060038110610feb57634e487b7160e01b5f52602160045260245ffd5b8060208901525060408201519150606060408801528082518083526080890191506020840193505f92505b808310156110425783516001600160e01b03191682526020938401936001939093019290910190611016565b50965050506020938401939190910190600101610fa5565b5050506001600160a01b038616602085015250828103604084015261107f8185610f51565b9695505050505050565b5f6001600160601b0382166002600160601b031981016110ab576110ab610f0a565b60010192915050565b5f82518060208501845e5f920191825250919050565b602081525f6110dc6020830184610f51565b9392505050565b81810381811115610f3757610f37610f0a565b634e487b7160e01b5f52603160045260245ffd5b6101bd806111175f395ff3fe608060405260043610610021575f3560e01c806354353f2f146100dd57610028565b3661002857005b5f80356001600160e01b03191681527fc8fcad8db84d3cc18b4c41d551ea0ee66dd599cde068d998e57d5e09332c131c602081905260409091205481906001600160a01b0316806100bf5760405162461bcd60e51b815260206004820181905260248201527f4469616d6f6e643a2046756e6374696f6e20646f6573206e6f74206578697374604482015260640160405180910390fd5b365f5f375f5f365f845af43d5f5f3e8080156100d9573d5ff35b3d5ffd5b3480156100e8575f5ffd5b506100f1610107565b6040516100fe9190610127565b60405180910390f35b60606040518060600160405280602b815260200161015d602b9139905090565b602081525f82518060208401528060208501604085015e5f604082850101526040601f19601f8301168401019150509291505056fe5448495320495320414e204558414d504c45204f4620414e20494d4d555441424c452046554e4354494f4ea2646970667358221220d1065b3761c8852cf4e8ff916538e2ac5c7e335d6b4aba037e3f3fee4e7d7c1764736f6c634300081c0033c8fcad8db84d3cc18b4c41d551ea0ee66dd599cde068d998e57d5e09332c131c","linkReferences":{}},"methodIdentifiers":{"example()":"54353f2f"},"id":0}