{"abi":[{"type":"function","name":"depositToPool","inputs":[{"name":"_amount","type":"uint256","internalType":"uint256"},{"name":"_token","type":"address","internalType":"address"}],"outputs":[],"stateMutability":"nonpayable"},{"type":"function","name":"getTransactionHistory","inputs":[{"name":"offset","type":"uint256","internalType":"uint256"},{"name":"limit","type":"uint256","internalType":"uint256"}],"outputs":[{"name":"","type":"tuple[]","internalType":"struct LibDiamond.Transaction[]","components":[{"name":"id","type":"uint256","internalType":"uint256"},{"name":"user","type":"address","internalType":"address"},{"name":"token","type":"address","internalType":"address"},{"name":"typeOfTransaction","type":"string","internalType":"string"},{"name":"amount","type":"uint256","internalType":"uint256"},{"name":"timestamp","type":"uint256","internalType":"uint256"}]}],"stateMutability":"view"},{"type":"function","name":"withdrawFromPool","inputs":[{"name":"_token","type":"address","internalType":"address"},{"name":"_amount","type":"uint256","internalType":"uint256"}],"outputs":[],"stateMutability":"nonpayable"},{"type":"event","name":"DepositSuccessful","inputs":[{"name":"user","type":"address","indexed":true,"internalType":"address"},{"name":"token","type":"address","indexed":true,"internalType":"address"},{"name":"amount","type":"uint256","indexed":false,"internalType":"uint256"}],"anonymous":false},{"type":"event","name":"TransactionHistoryUpdated","inputs":[{"name":"user","type":"address","indexed":true,"internalType":"address"},{"name":"txCount","type":"uint256","indexed":false,"internalType":"uint256"},{"name":"txId","type":"uint256","indexed":false,"internalType":"uint256"},{"name":"token","type":"address","indexed":true,"internalType":"address"},{"name":"typeOfTransaction","type":"string","indexed":false,"internalType":"string"},{"name":"amount","type":"uint256","indexed":false,"internalType":"uint256"},{"name":"timestamp","type":"uint256","indexed":false,"internalType":"uint256"}],"anonymous":false},{"type":"event","name":"Withdrawn","inputs":[{"name":"user","type":"address","indexed":true,"internalType":"address"},{"name":"tokenType","type":"address","indexed":false,"internalType":"address"},{"name":"amount","type":"uint256","indexed":false,"internalType":"uint256"}],"anonymous":false},{"type":"error","name":"AddressZeroDetected","inputs":[]},{"type":"error","name":"InsufficientAllowance","inputs":[]},{"type":"error","name":"InsufficientFunds","inputs":[]},{"type":"error","name":"InvalidTokenAddress","inputs":[]},{"type":"error","name":"ReentrancyGuardReentrantCall","inputs":[]},{"type":"error","name":"SafeERC20FailedOperation","inputs":[{"name":"token","type":"address","internalType":"address"}]},{"type":"error","name":"ZeroValueNotAllowed","inputs":[]}],"bytecode":{"object":"0x6080604052348015600e575f5ffd5b5060015f55610dca806100205f395ff3fe608060405234801561000f575f5ffd5b506004361061003f575f3560e01c80631d929d7d14610043578063a39c7a9c14610058578063c1bf9e5814610081575b5f5ffd5b610056610051366004610a02565b610094565b005b61006b610066366004610a2c565b6100a2565b6040516100789190610a7a565b60405180910390f35b61005661008f366004610b2c565b610371565b61009e82826104b6565b5050565b335f9081527fc8fcad8db84d3cc18b4c41d551ea0ee66dd599cde068d998e57d5e09332c132f6020908152604080832080548251818502810185019093528083526060945f516020610d755f395f51905f52949093929190849084015b82821015610204575f8481526020908190206040805160c081018252600686029092018054835260018101546001600160a01b039081169484019490945260028101549093169082015260038201805491929160608401919061016190610b54565b80601f016020809104026020016040519081016040528092919081815260200182805461018d90610b54565b80156101d85780601f106101af576101008083540402835291602001916101d8565b820191905f5260205f20905b8154815290600101906020018083116101bb57829003601f168201915b5050505050815260200160048201548152602001600582015481525050815260200190600101906100ff565b5050825192935050505f81900361025057604080515f8082526020820190925290610245565b6102326109a4565b81526020019060019003908161022a5790505b50935050505061036b565b80861061028e576102618582610ba0565b61026b9082610bd3565b955080860361028e57848111610281575f61028b565b61028b8582610bd3565b95505b5f6102998783610bd3565b9050858111156102a65750845b5f8167ffffffffffffffff8111156102c0576102c0610b8c565b6040519080825280602002602001820160405280156102f957816020015b6102e66109a4565b8152602001906001900390816102de5790505b5090505f5b828110156103635784610311828b610be6565b61031c600187610bd3565b6103269190610bd3565b8151811061033657610336610bf9565b602002602001015182828151811061035057610350610bf9565b60209081029190910101526001016102fe565b509450505050505b92915050565b610379610711565b5f516020610d755f395f51905f525f8290036103a85760405163273e150360e21b815260040160405180910390fd5b335f90815260148201602090815260408083206001600160a01b03871684529091529020548211156103ed5760405163356680b760e01b815260040160405180910390fd5b335f90815260148201602090815260408083206001600160a01b038716845290915281208054849290610421908490610bd3565b9091555061043b90506001600160a01b0384163384610739565b6104686040518060400160405280600a8152602001691dda5d1a191c985dd85b60b21b815250848461079d565b604080516001600160a01b03851681526020810184905233917fd1c19fbcd4551a5edfb66d43d2e337c04837afda3482b42bdf569a8fccdae5fb910160405180910390a25061009e60015f55565b5f516020610d755f395f51905f52336104e25760405163287170f960e01b815260040160405180910390fd5b825f036105025760405163273e150360e21b815260040160405180910390fd5b6001600160a01b0382165f90815260188201602052604090205460ff1661053c57604051630f58058360e11b815260040160405180910390fd5b6040516370a0823160e01b815233600482015283906001600160a01b038416906370a0823190602401602060405180830381865afa158015610580573d5f5f3e3d5ffd5b505050506040513d601f19601f820116820180604052508101906105a49190610c0d565b10156105c35760405163356680b760e01b815260040160405180910390fd5b604051636eb1769f60e11b81523360048201523060248201525f906001600160a01b0384169063dd62ed3e90604401602060405180830381865afa15801561060d573d5f5f3e3d5ffd5b505050506040513d601f19601f820116820180604052508101906106319190610c0d565b905083811015610654576040516313be252b60e01b815260040160405180910390fd5b6106696001600160a01b0384163330876108f5565b335f90815260148301602090815260408083206001600160a01b03871684529091528120805486929061069d908490610be6565b909155505060408051808201909152600781526619195c1bdcda5d60ca1b60208201526106cb90848661079d565b6040518481526001600160a01b0384169033907f9ca48962abdef1f62fa7920028db6cba8d22078c8f24fa2c9d3738a7cebe7a859060200160405180910390a350505050565b60025f540361073357604051633ee5aeb560e01b815260040160405180910390fd5b60025f55565b6040516001600160a01b0383811660248301526044820183905261079891859182169063a9059cbb906064015b604051602081830303815290604052915060e01b6020820180516001600160e01b038381831617835250505050610934565b505050565b7fc8fcad8db84d3cc18b4c41d551ea0ee66dd599cde068d998e57d5e09332c132880545f516020610d755f395f51905f52915f9190826107dc83610c24565b909155506040805160c0810182528281523360208083018281526001600160a01b038a8116858701908152606086018d8152608087018c90524260a08801525f95865260138b018552968520805460018082018355918752949095208651600690950201938455915193830180546001600160a01b0319908116958316959095179055905160028301805490941691161790915591519293509182919060038201906108889082610c87565b506080820151600482015560a09091015160059091015580516040516001600160a01b0387169133917f35c66f3706f0b2af281e2212c10363e79d4ebfbd1a9a57cb4f63d1145028c2ec916108e5918791908c908b904290610d42565b60405180910390a3505050505050565b6040516001600160a01b03848116602483015283811660448301526064820183905261092e9186918216906323b872dd90608401610766565b50505050565b5f5f60205f8451602086015f885af180610953576040513d5f823e3d81fd5b50505f513d9150811561096a578060011415610977565b6001600160a01b0384163b155b1561092e57604051635274afe760e01b81526001600160a01b038516600482015260240160405180910390fd5b6040518060c001604052805f81526020015f6001600160a01b031681526020015f6001600160a01b03168152602001606081526020015f81526020015f81525090565b80356001600160a01b03811681146109fd575f5ffd5b919050565b5f5f60408385031215610a13575f5ffd5b82359150610a23602084016109e7565b90509250929050565b5f5f60408385031215610a3d575f5ffd5b50508035926020909101359150565b5f81518084528060208401602086015e5f602082860101526020601f19601f83011685010191505092915050565b5f602082016020835280845180835260408501915060408160051b8601019250602086015f5b82811015610b2057603f1987860301845281518051865260018060a01b03602082015116602087015260018060a01b036040820151166040870152606081015160c06060880152610af460c0880182610a4c565b6080838101519089015260a0928301519290970191909152506020938401939190910190600101610aa0565b50929695505050505050565b5f5f60408385031215610b3d575f5ffd5b610b46836109e7565b946020939093013593505050565b600181811c90821680610b6857607f821691505b602082108103610b8657634e487b7160e01b5f52602260045260245ffd5b50919050565b634e487b7160e01b5f52604160045260245ffd5b5f82610bba57634e487b7160e01b5f52601260045260245ffd5b500690565b634e487b7160e01b5f52601160045260245ffd5b8181038181111561036b5761036b610bbf565b8082018082111561036b5761036b610bbf565b634e487b7160e01b5f52603260045260245ffd5b5f60208284031215610c1d575f5ffd5b5051919050565b5f60018201610c3557610c35610bbf565b5060010190565b601f82111561079857805f5260205f20601f840160051c81016020851015610c615750805b601f840160051c820191505b81811015610c80575f8155600101610c6d565b5050505050565b815167ffffffffffffffff811115610ca157610ca1610b8c565b610cb581610caf8454610b54565b84610c3c565b6020601f821160018114610ce7575f8315610cd05750848201515b5f19600385901b1c1916600184901b178455610c80565b5f84815260208120601f198516915b82811015610d165787850151825560209485019460019092019101610cf6565b5084821015610d3357868401515f19600387901b60f8161c191681555b50505050600190811b01905550565b85815284602082015260a060408201525f610d6060a0830186610a4c565b60608301949094525060800152939250505056fec8fcad8db84d3cc18b4c41d551ea0ee66dd599cde068d998e57d5e09332c131ca2646970667358221220e5cc3524b63f42bd4606f40dd5f0758f30727376ed794435e64ae69e49fceecb64736f6c634300081c0033","linkReferences":{}},"methodIdentifiers":{"depositToPool(uint256,address)":"1d929d7d","getTransactionHistory(uint256,uint256)":"a39c7a9c","withdrawFromPool(address,uint256)":"c1bf9e58"},"id":6}