{"abi":[{"type":"function","name":"claimAll","inputs":[],"outputs":[],"stateMutability":"nonpayable"},{"type":"function","name":"createAutomatedSavingsPlan","inputs":[{"name":"_target","type":"string","internalType":"string"},{"name":"_token","type":"address","internalType":"address"},{"name":"_amount","type":"uint256","internalType":"uint256"},{"name":"_frequency","type":"uint256","internalType":"uint256"},{"name":"_duration","type":"uint256","internalType":"uint256"}],"outputs":[],"stateMutability":"nonpayable"},{"type":"function","name":"executeAutomatedSaving","inputs":[{"name":"_user","type":"address","internalType":"address"}],"outputs":[],"stateMutability":"nonpayable"},{"type":"function","name":"getAllTargets","inputs":[],"outputs":[{"name":"","type":"string[]","internalType":"string[]"}],"stateMutability":"view"},{"type":"function","name":"getAndExecuteAutomatedSavingsPlansDue","inputs":[],"outputs":[],"stateMutability":"nonpayable"},{"type":"function","name":"getAutomatedSavingsDuePlans","inputs":[],"outputs":[{"name":"","type":"address[]","internalType":"address[]"}],"stateMutability":"view"},{"type":"function","name":"getClaimableBalances","inputs":[],"outputs":[{"name":"claimableSavings","type":"tuple[]","internalType":"struct LibDiamond.Safe[]","components":[{"name":"typeOfSafe","type":"string","internalType":"string"},{"name":"id","type":"uint256","internalType":"uint256"},{"name":"target","type":"string","internalType":"string"},{"name":"token","type":"address","internalType":"address"},{"name":"amount","type":"uint256","internalType":"uint256"},{"name":"duration","type":"uint256","internalType":"uint256"},{"name":"startTime","type":"uint256","internalType":"uint256"},{"name":"unlockTime","type":"uint256","internalType":"uint256"}]},{"name":"indices","type":"uint256[]","internalType":"uint256[]"}],"stateMutability":"view"},{"type":"function","name":"getScheduledSavings","inputs":[],"outputs":[{"name":"","type":"tuple[]","internalType":"struct LibDiamond.ScheduledSaving[]","components":[{"name":"token","type":"address","internalType":"address"},{"name":"amount","type":"uint256","internalType":"uint256"},{"name":"scheduledDate","type":"uint256","internalType":"uint256"}]}],"stateMutability":"view"},{"type":"function","name":"getTargetDetails","inputs":[{"name":"_target","type":"string","internalType":"string"}],"outputs":[{"name":"","type":"tuple","internalType":"struct LibDiamond.Target","components":[{"name":"name","type":"string","internalType":"string"},{"name":"totalSaved","type":"uint256","internalType":"uint256"},{"name":"lastSavedTimestamp","type":"uint256","internalType":"uint256"}]}],"stateMutability":"view"},{"type":"function","name":"removeFromAutomatedSavings","inputs":[{"name":"_user","type":"address","internalType":"address"}],"outputs":[],"stateMutability":"nonpayable"},{"type":"function","name":"save","inputs":[{"name":"_target","type":"string","internalType":"string"},{"name":"_token","type":"address","internalType":"address"},{"name":"_amount","type":"uint256","internalType":"uint256"},{"name":"_duration","type":"uint256","internalType":"uint256"}],"outputs":[],"stateMutability":"nonpayable"},{"type":"function","name":"updateFeeConfiguration","inputs":[{"name":"_newFeePercentage","type":"uint256","internalType":"uint256"},{"name":"_newFeeCollector","type":"address","internalType":"address"}],"outputs":[],"stateMutability":"nonpayable"},{"type":"function","name":"withdrawSavings","inputs":[{"name":"_savingsIndex","type":"uint256","internalType":"uint256"},{"name":"_acceptEarlyWithdrawalFee","type":"bool","internalType":"bool"}],"outputs":[],"stateMutability":"nonpayable"},{"type":"event","name":"AutomatedPlanCreated","inputs":[{"name":"user","type":"address","indexed":true,"internalType":"address"},{"name":"token","type":"address","indexed":true,"internalType":"address"},{"name":"amount","type":"uint256","indexed":false,"internalType":"uint256"},{"name":"frequency","type":"uint256","indexed":false,"internalType":"uint256"}],"anonymous":false},{"type":"event","name":"AutomatedSavingExecuted","inputs":[{"name":"user","type":"address","indexed":true,"internalType":"address"},{"name":"token","type":"address","indexed":true,"internalType":"address"},{"name":"amount","type":"uint256","indexed":false,"internalType":"uint256"}],"anonymous":false},{"type":"event","name":"AutomatedSavingsFeeCharged","inputs":[{"name":"user","type":"address","indexed":true,"internalType":"address"},{"name":"token","type":"address","indexed":true,"internalType":"address"},{"name":"fee","type":"uint256","indexed":false,"internalType":"uint256"}],"anonymous":false},{"type":"event","name":"BatchAutomatedSavingsExecuted","inputs":[{"name":"executedCount","type":"uint256","indexed":false,"internalType":"uint256"},{"name":"skippedCount","type":"uint256","indexed":false,"internalType":"uint256"}],"anonymous":false},{"type":"event","name":"EmergencySavingsWithdrawn","inputs":[{"name":"user","type":"address","indexed":true,"internalType":"address"},{"name":"token","type":"address","indexed":true,"internalType":"address"},{"name":"amount","type":"uint256","indexed":false,"internalType":"uint256"}],"anonymous":false},{"type":"event","name":"FeeConfigurationUpdated","inputs":[{"name":"newFeePercentage","type":"uint256","indexed":false,"internalType":"uint256"},{"name":"newFeeCollector","type":"address","indexed":false,"internalType":"address"}],"anonymous":false},{"type":"event","name":"SavedSuccessfully","inputs":[{"name":"user","type":"address","indexed":true,"internalType":"address"},{"name":"token","type":"address","indexed":true,"internalType":"address"},{"name":"amount","type":"uint256","indexed":false,"internalType":"uint256"},{"name":"duration","type":"uint256","indexed":false,"internalType":"uint256"}],"anonymous":false},{"type":"event","name":"SavingsClaimed","inputs":[{"name":"user","type":"address","indexed":true,"internalType":"address"},{"name":"token","type":"address","indexed":false,"internalType":"address"},{"name":"amount","type":"uint256","indexed":false,"internalType":"uint256"}],"anonymous":false},{"type":"event","name":"SavingsWithdrawn","inputs":[{"name":"user","type":"address","indexed":true,"internalType":"address"},{"name":"amount","type":"uint256","indexed":false,"internalType":"uint256"},{"name":"fee","type":"uint256","indexed":false,"internalType":"uint256"},{"name":"earlyWithdrawal","type":"bool","indexed":false,"internalType":"bool"}],"anonymous":false},{"type":"event","name":"TransactionHistoryUpdated","inputs":[{"name":"user","type":"address","indexed":true,"internalType":"address"},{"name":"txCount","type":"uint256","indexed":false,"internalType":"uint256"},{"name":"txId","type":"uint256","indexed":false,"internalType":"uint256"},{"name":"token","type":"address","indexed":true,"internalType":"address"},{"name":"typeOfTransaction","type":"string","indexed":false,"internalType":"string"},{"name":"amount","type":"uint256","indexed":false,"internalType":"uint256"},{"name":"timestamp","type":"uint256","indexed":false,"internalType":"uint256"}],"anonymous":false},{"type":"error","name":"AddressZeroDetected","inputs":[]},{"type":"error","name":"DurationTooShort","inputs":[]},{"type":"error","name":"FeePercentageTooHigh","inputs":[]},{"type":"error","name":"InsufficientFunds","inputs":[]},{"type":"error","name":"InvalidDurationForEmergency","inputs":[]},{"type":"error","name":"InvalidFeeCollectorAddress","inputs":[]},{"type":"error","name":"InvalidFeePercentage","inputs":[]},{"type":"error","name":"InvalidInput","inputs":[]},{"type":"error","name":"InvalidTokenAddress","inputs":[]},{"type":"error","name":"InvalidWithdrawal","inputs":[]},{"type":"error","name":"NotDiamondOwner","inputs":[]},{"type":"error","name":"ReentrancyGuardReentrantCall","inputs":[]},{"type":"error","name":"ZeroValueNotAllowed","inputs":[]}],"bytecode":{"object":"0x6080604052348015600e575f5ffd5b5060015f556133d3806100205f395ff3fe608060405234801561000f575f5ffd5b50600436106100cb575f3560e01c80636ed54def11610088578063d07c5cee11610063578063d07c5cee14610189578063d1058e591461019e578063dd0de88d146101a6578063ff7a094f146101bb575f5ffd5b80636ed54def1461015b578063a9e238ee14610163578063b97bf20214610176575f5ffd5b8063064eeae8146100cf5780630a64dc3e146100e45780630d80e184146100f757806312e9d7a31461010a5780631b634155146101335780631d46021f14610146575b5f5ffd5b6100e26100dd366004612c48565b6101d1565b005b6100e26100f2366004612c72565b6102b8565b6100e2610105366004612d2f565b61052c565b61011d610118366004612d87565b610cde565b60405161012a9190612dee565b60405180910390f35b6100e2610141366004612c72565b610e10565b61014e611036565b60405161012a9190612e29565b6100e2611227565b6100e2610171366004612e8c565b61141d565b6100e2610184366004612eee565b611881565b610191611c5c565b60405161012a9190612f20565b6100e2611e53565b6101ae611f9a565b60405161012a9190612f84565b6101c361225e565b60405161012a929190612ffe565b6101d9612666565b5f51602061337e5f395f51905f525f8390036102085760405163390edff560e11b815260040160405180910390fd5b6103e883111561022b57604051635841c1b960e01b815260040160405180910390fd5b6001600160a01b03821661025257604051635754fe1b60e11b815260040160405180910390fd5b600d8101839055600e810180546001600160a01b0319166001600160a01b0384169081179091556040805185815260208101929092527f3d19779e7983acb87bed5e6f84c3af74f87fc74fc327e7c4ea55cd57b1084fb3910160405180910390a1505050565b6001600160a01b0381165f9081527fc8fcad8db84d3cc18b4c41d551ea0ee66dd599cde068d998e57d5e09332c13356020526040902060018101545f51602061337e5f395f51905f529190158061031157506002810154155b1561031b57505050565b8060020154816006015461032f91906130f6565b42101561033b57505050565b80600501544211156103555761035083610e10565b505050565b60018101546001600160a01b038085165f9081526014850160209081526040808320865490941683529290522054101561038e57505050565b60018101546001600160a01b038085165f90815260148501602090815260408083208654909416835292905290812080549091906103cd908490613109565b9091555050805460018201545f916103f09186916001600160a01b0316906126a0565b82549091505f9061040b9086906001600160a01b031661279c565b6001600160a01b0386165f90815260158601602090815260408083208484529091528120600401805492935084929091906104479084906130f6565b909155505042600684018190556002840154610462916130f6565b60078401556001600160a01b038086165f90815260128601602090815260408083208754909416835292905290812080548492906104a19084906130f6565b90915550506040805180820190915260098152686175746f207361766560b81b602082015283546104dc91906001600160a01b031684612a13565b825460018401546040519081526001600160a01b03918216918716907f751ceaac5dfa620113dae99692e4bcc148db4733b03842d178484c50d980035c9060200160405180910390a35050505050565b610534612b6b565b335f9081527fc8fcad8db84d3cc18b4c41d551ea0ee66dd599cde068d998e57d5e09332c133960205260409081902090515f51602061337e5f395f51905f52919061058090879061311c565b908152604051908190036020019020805461059a90613132565b90505f0361060f57604080516060810182528681525f6020808301829052828401829052338252601d8501905282902091519091906105da90889061311c565b908152604051908190036020019020815181906105f790826131ae565b50602082015160018201556040909101516002909101555b60405168656d657267656e637960b81b6020820152602901604051602081830303815290604052805190602001208560405160200161064e919061311c565b6040516020818303038152906040528051906020012003610692576201518082111561068d5760405163fc189a4760e01b815260040160405180910390fd5b6106b6565b62278d008210156106b6576040516325c3636760e01b815260040160405180910390fd5b336106d45760405163287170f960e01b815260040160405180910390fd5b825f036106f45760405163273e150360e21b815260040160405180910390fd5b6001600160a01b0384165f90815260188201602052604090205460ff1661072e57604051630f58058360e11b815260040160405180910390fd5b815f0361074e5760405163b4fa3fb360e01b815260040160405180910390fd5b335f90815260148201602090815260408083206001600160a01b03881684529091529020548311156107935760405163356680b760e01b815260040160405180910390fd5b5f805b335f908152601684016020526040902054811015610a1b57335f908152601584016020908152604080832084845282529182902091516107d8918a910161311c565b60405160208183030381529060405280519060200120816002016040516020016108029190613268565b6040516020818303038152906040528051906020012014801561087a57506040516c746172676574536176696e677360981b6020820152602d0160408051601f198184030181529082905280516020918201209161086291849101613268565b60405160208183030381529060405280519060200120145b80156108895750428160070154115b15610a1257335f90815260148501602090815260408083206001600160a01b038b168452909152812080548892906108c2908490613109565b9250508190555085816004015f8282546108dc91906130f6565b9091555050335f908152601d85016020526040908190209051879190610903908b9061311c565b90815260200160405180910390206001015f82825461092291906130f6565b9091555050335f908152601d85016020526040908190209051429190610949908b9061311c565b908152604080516020928190038301902060020192909255335f9081526012870182528281206001600160a01b038b16825290915290812080548892906109919084906130f6565b90915550506040805180820190915260048152637361766560e01b60208201526109bc908888612a13565b60058101546040805188815260208101929092526001600160a01b0389169133917f3366ce755cd25539463e10c81609f7acf012fd288caed6c0f6494f6808268ce4910160405180910390a36001925050610a1b565b50600101610796565b508015610a29575050610ccf565b335f90815260148301602090815260408083206001600160a01b038916845290915281208054869290610a5d908490613109565b9091555050335f9081526016830160209081526040918290205482516101408101909352600d61010084019081526c746172676574536176696e677360981b610120850152835291908101610ab38360016130f6565b8152602001888152602001876001600160a01b031681526020018681526020018581526020014281526020018542610aeb91906130f6565b9052335f9081526015850160209081526040808320858452909152902081518190610b1690826131ae565b506020820151600182015560408201516002820190610b3590826131ae565b5060608201516003820180546001600160a01b0319166001600160a01b039092169190911790556080820151600482015560a0820151600582015560c0820151600682015560e090910151600790910155335f908152601d84016020526040908190209051869190610ba8908a9061311c565b90815260200160405180910390206001015f828254610bc791906130f6565b9091555050335f908152601d84016020526040908190209051429190610bee908a9061311c565b908152604080516020928190038301902060020192909255335f90815260168601909152908120805491610c21836132d5565b9091555050335f90815260128401602090815260408083206001600160a01b038a16845290915281208054879290610c5a9084906130f6565b90915550506040805180820190915260048152637361766560e01b6020820152610c85908787612a13565b60408051868152602081018690526001600160a01b0388169133917f3366ce755cd25539463e10c81609f7acf012fd288caed6c0f6494f6808268ce4910160405180910390a35050505b610cd860015f55565b50505050565b610d006040518060600160405280606081526020015f81526020015f81525090565b335f9081527fc8fcad8db84d3cc18b4c41d551ea0ee66dd599cde068d998e57d5e09332c133960205260409081902090515f51602061337e5f395f51905f529190610d4c90859061311c565b90815260200160405180910390206040518060600160405290815f82018054610d7490613132565b80601f0160208091040260200160405190810160405280929190818152602001828054610da090613132565b8015610deb5780601f10610dc257610100808354040283529160200191610deb565b820191905f5260205f20905b815481529060010190602001808311610dce57829003601f168201915b5050505050815260200160018201548152602001600282015481525050915050919050565b6001600160a01b0381165f9081527fc8fcad8db84d3cc18b4c41d551ea0ee66dd599cde068d998e57d5e09332c1335602090815260408083207fc8fcad8db84d3cc18b4c41d551ea0ee66dd599cde068d998e57d5e09332c132c909252909120545f51602061337e5f395f51905f52919060ff1615610350576001600160a01b038084165f818152601185016020908152604080832086549095168352938152838220805460ff191690559181526019850190915290812080546001600160a01b03191681556001810182905560028101829055600381018290556004810182905560058101829055600681018290556007810182905560088101829055600901819055600f8301905b815481101561102f57846001600160a01b0316828281548110610f3f57610f3f6132ed565b5f918252602090912001546001600160a01b0316036110275781548290610f6890600190613109565b81548110610f7857610f786132ed565b905f5260205f20015f9054906101000a90046001600160a01b0316828281548110610fa557610fa56132ed565b905f5260205f20015f6101000a8154816001600160a01b0302191690836001600160a01b0316021790555081805480610fe057610fe0613301565b5f828152602080822083015f1990810180546001600160a01b03191690559092019092556001600160a01b038716825260108601905260409020805460ff1916905561102f565b600101610f1a565b5050505050565b60605f51602061337e5f395f51905f525f805b335f9081526016840160205260409020548110156110a857335f90815260158401602090815260408083208484529091528120600201805461108a90613132565b905011156110a0578161109c816132d5565b9250505b600101611049565b505f816001600160401b038111156110c2576110c2612c92565b6040519080825280602002602001820160405280156110f557816020015b60608152602001906001900390816110e05790505b5090505f805b335f90815260168601602052604090205481101561121d57335f90815260158601602090815260408083208484529091528120600201805461113c90613132565b9050111561121557335f90815260158601602090815260408083208484529091529020600201805461116d90613132565b80601f016020809104026020016040519081016040528092919081815260200182805461119990613132565b80156111e45780601f106111bb576101008083540402835291602001916111e4565b820191905f5260205f20905b8154815290600101906020018083116111c757829003601f168201915b50505050508383815181106111fb576111fb6132ed565b60200260200101819052508180611211906132d5565b9250505b6001016110fb565b5090949350505050565b61122f612b6b565b7fc8fcad8db84d3cc18b4c41d551ea0ee66dd599cde068d998e57d5e09332c132b8054604080516020808402820181019092528281525f9384935f51602061337e5f395f51905f529385939291908301828280156112b457602002820191905f5260205f20905b81546001600160a01b03168152600190910190602001808311611296575b509394505f93505050505b81518110156113d4575f8282815181106112db576112db6132ed565b6020908102919091018101516001600160a01b038082165f9081526019880184526040808220600181015460148b0187528284208254909516845293909552902054919350111561133a5785611330816132d5565b96505050506113cc565b5f8160010154118015611351575080600701544210155b156113c9576040516305326e1f60e11b81526001600160a01b03831660048201523090630a64dc3e906024015f604051808303815f87803b158015611394575f5ffd5b505af19250505080156113a5575060015b6113bb57856113b3816132d5565b9650506113c9565b866113c5816132d5565b9750505b50505b6001016112bf565b5060408051858152602081018590527f0e4b43bfc72b0ff50bb5b4c20a8199653b1531c46ac3c3204298eb1b590efaa8910160405180910390a15050505061141b60015f55565b565b6001600160a01b0384165f9081527fc8fcad8db84d3cc18b4c41d551ea0ee66dd599cde068d998e57d5e09332c133460205260409020545f51602061337e5f395f51905f529060ff1661148357604051630f58058360e11b815260040160405180910390fd5b83158061148e575082155b156114ac5760405163273e150360e21b815260040160405180910390fd5b6301e133808311156114d15760405163b4fa3fb360e01b815260040160405180910390fd5b335f90815260118201602090815260408083206001600160a01b038916845290915290205460ff16156115675760405162461bcd60e51b815260206004820152603460248201527f4175746f6d6174656420736176696e677320706c616e20616c726561647920656044820152733c34b9ba39903337b9103a3434b9903a37b5b2b760611b606482015260840160405180910390fd5b604051806101400160405280866001600160a01b0316815260200185815260200184815260200183815260200142815260200183426115a691906130f6565b81525f60208201526040016115bb85426130f6565b81525f60208083018290526040928301829052338252601985018152828220845181546001600160a01b0319166001600160a01b03909116178155848201516001820155848401516002820155606085015160038201556080850151600482015560a0850151600582015560c0850151600682015560e085015160078201556101008086015160088301556101209586015160099283015560168701835292849020548451610140810190955292840190815268105d5d1bdb585d195960ba1b94840194909452928252918101611691836132d5565b9250828152602001888152602001876001600160a01b031681526020015f815260200184815260200142815260200184426116cc91906130f6565b9052335f90815260158401602090815260408083208584529091529020815181906116f790826131ae565b50602082015160018201556040820151600282019061171690826131ae565b5060608201516003820180546001600160a01b0319166001600160a01b039092169190911790556080820151600482015560a0820151600582015560c0820151600682015560e090910151600790910155335f9081526016830160205260408120805491611783836132d5565b9091555050335f81815260118401602090815260408083206001600160a01b038b168085529083528184208054600160ff199182168117909255868652601c890185528386209286529184528285208054909216179055928252601085019052205460ff1661183257600f82018054600181810183555f928352602080842090920180546001600160a01b031916339081179091558352601085019091526040909120805460ff191690911790555b60408051868152602081018690526001600160a01b0388169133917f8d887a623cbba84fa8448bf3a79b0ecab3ea7d2d84310cad96bbd68aca69969d910160405180910390a350505050505050565b611889612b6b565b335f9081527fc8fcad8db84d3cc18b4c41d551ea0ee66dd599cde068d998e57d5e09332c133160209081526040808320858452909152812060048101545f51602061337e5f395f51905f5292036118f35760405163c945242d60e01b815260040160405180910390fd5b600781015460405168656d657267656e637960b81b6020820152429190911015905f9060290160405160208183030381529060405280519060200120836002016040516020016119439190613268565b60405160208183030381529060405280519060200120146119a157816119a157846119815760405163c945242d60e01b815260040160405180910390fd5b60648360040154600f6119949190613315565b61199e919061332c565b90505b82600401545f036119c55760405163c945242d60e01b815260040160405180910390fd5b5f8184600401546119d69190613109565b6004850180549192505f6119ea8380613109565b9091555050335f908152601486016020908152604080832060038801546001600160a01b0316845290915281208054839290611a279084906130f6565b90915550508115611aac5781856014015f611a697fc8fcad8db84d3cc18b4c41d551ea0ee66dd599cde068d998e57d5e09332c1320546001600160a01b031690565b6001600160a01b03908116825260208083019390935260409182015f90812060038a01549092168152925281208054909190611aa69084906130f6565b90915550505b83600401545f03611b2357335f90815260158601602090815260408083208a8452909152812090611add8282612b93565b600182015f9055600282015f611af39190612b93565b506003810180546001600160a01b03191690555f6004820181905560058201819055600682018190556007909101555b604080518082019091526006815265756e6c6f636b60d01b602082015260038501546004860154611b5e92916001600160a01b031690612a13565b60405168656d657267656e637960b81b60208201526029016040516020818303038152906040528051906020012084600201604051602001611ba09190613268565b6040516020818303038152906040528051906020012003611c065760038401546040518281526001600160a01b039091169033907f4268160a08ddf12c608833b7e4ae24a63ce0c63292d547a7cf56a3262b7564969060200160405180910390a3611c4a565b6040805182815260208101849052841581830152905133917f1e6744cf99e958a70221fb97952f96f75e084ed8cf6e03d1e52de8edab644ca7919081900360600190a25b5050505050611c5860015f55565b5050565b335f9081527fc8fcad8db84d3cc18b4c41d551ea0ee66dd599cde068d998e57d5e09332c13356020526040902060018101546060915f51602061337e5f395f51905f52911580611cae57506002810154155b80611cbb57506003810154155b15611d1a57604080515f8082526020820190925290611d12565b611cff60405180606001604052805f6001600160a01b031681526020015f81526020015f81525090565b815260200190600190039081611cd55790505b509250505090565b5f816006015442611d2b9190613109565b8260030154611d3a9190613109565b90505f826002015482611d4d919061332c565b90505f816001600160401b03811115611d6857611d68612c92565b604051908082528060200260200182016040528015611dc357816020015b611db060405180606001604052805f6001600160a01b031681526020015f81526020015f81525090565b815260200190600190039081611d865790505b5090505f84600201548560060154611ddb91906130f6565b90505f5b83811015611e47576040805160608101825287546001600160a01b03168152600188015460208201529081018390528351849083908110611e2257611e226132ed565b6020026020010181905250856002015482611e3d91906130f6565b9150600101611ddf565b50909695505050505050565b611e5b612b6b565b5f5f611e6561225e565b90925090505f5b8151811015611f8e57306001600160a01b031663b97bf202838381518110611e9657611e966132ed565b602002602001015160016040518363ffffffff1660e01b8152600401611ec89291909182521515602082015260400190565b5f604051808303815f87803b158015611edf575f5ffd5b505af1158015611ef1573d5f5f3e3d5ffd5b50505050336001600160a01b03167f26bb9ca40edc6d8ee467b01d5ab67d748ce15ec67220c756311bd89fd6efaa2e848381518110611f3257611f326132ed565b602002602001015160600151858481518110611f5057611f506132ed565b602002602001015160800151604051611f7e9291906001600160a01b03929092168252602082015260400190565b60405180910390a2600101611e6c565b50505061141b60015f55565b60605f51602061337e5f395f51905f525f805b600f830154811015612098575f83600f018281548110611fcf57611fcf6132ed565b5f9182526020808320909101546001600160a01b039081168084526019880183526040938490208451610140810186528154909316835260018101549383018490526002810154948301949094526003840154606083015260048401546080830152600584015460a0830152600684015460c0830152600784015460e083015260088401546101008301526009909301546101208201529192501580159061207b57508060e001514210155b1561208e578361208a816132d5565b9450505b5050600101611fad565b505f816001600160401b038111156120b2576120b2612c92565b6040519080825280602002602001820160405280156120db578160200160208202803683370190505b5090505f5f90505f84600f0180548060200260200160405190810160405280929190818152602001828054801561213957602002820191905f5260205f20905b81546001600160a01b0316815260019091019060200180831161211b575b509394505f93505050505b8151811015612253575f828281518110612160576121606132ed565b6020908102919091018101516001600160a01b038082165f90815260198b0184526040908190208151610140810183528154909316835260018101549483018590526002810154918301919091526003810154606083015260048101546080830152600581015460a0830152600681015460c0830152600781015460e0830152600881015461010083015260090154610120820152909250901580159061220b57508060e001514210155b156122495781868681518110612223576122236132ed565b6001600160a01b039092166020928302919091019091015284612245816132d5565b9550505b5050600101612144565b509195945050505050565b335f9081527fc8fcad8db84d3cc18b4c41d551ea0ee66dd599cde068d998e57d5e09332c1332602052604081205460609182915f51602061337e5f395f51905f5291816001600160401b038111156122b8576122b8612c92565b6040519080825280602002602001820160405280156122f157816020015b6122de612bcd565b8152602001906001900390816122d65790505b5090505f826001600160401b0381111561230d5761230d612c92565b604051908082528060200260200182016040528015612336578160200160208202803683370190505b5090505f805b8481101561254357335f90815260158701602090815260408083208484529091528082208151610100810190925280548290829061237990613132565b80601f01602080910402602001604051908101604052809291908181526020018280546123a590613132565b80156123f05780601f106123c7576101008083540402835291602001916123f0565b820191905f5260205f20905b8154815290600101906020018083116123d357829003601f168201915b505050505081526020016001820154815260200160028201805461241390613132565b80601f016020809104026020016040519081016040528092919081815260200182805461243f90613132565b801561248a5780601f106124615761010080835404028352916020019161248a565b820191905f5260205f20905b81548152906001019060200180831161246d57829003601f168201915b505050918352505060038201546001600160a01b031660208201526004820154604082015260058201546060820152600682015460808083019190915260079092015460a090910152810151909150158015906124eb57508060e001514210155b1561253a5780858481518110612503576125036132ed565b602002602001018190525081848481518110612521576125216132ed565b602090810291909101015282612536816132d5565b9350505b5060010161233c565b50806001600160401b0381111561255c5761255c612c92565b60405190808252806020026020018201604052801561259557816020015b612582612bcd565b81526020019060019003908161257a5790505b509650806001600160401b038111156125b0576125b0612c92565b6040519080825280602002602001820160405280156125d9578160200160208202803683370190505b5095505f5b8181101561265c578381815181106125f8576125f86132ed565b6020026020010151888281518110612612576126126132ed565b602002602001018190525082818151811061262f5761262f6132ed565b6020026020010151878281518110612649576126496132ed565b60209081029190910101526001016125de565b5050505050509091565b5f51602061337e5f395f51905f52600401546001600160a01b0316331461141b57604051630305808160e41b815260040160405180910390fd5b7fc8fcad8db84d3cc18b4c41d551ea0ee66dd599cde068d998e57d5e09332c1329545f905f51602061337e5f395f51905f52908290612710906126e39086613315565b6126ed919061332c565b90506126f98185613109565b9250801561279357600e8201546001600160a01b039081165f90815260148401602090815260408083209389168352929052908120805483929061273e9084906130f6565b92505081905550846001600160a01b0316866001600160a01b03167fa092e4bffb733c1346eb8e04c14224e3b9d1e26a39800207a68807d9c18e01798360405161278a91815260200190565b60405180910390a35b50509392505050565b5f5f51602061337e5f395f51905f52815b6001600160a01b0385165f9081526016830160205260409020548110156100cb576001600160a01b0385165f90815260158301602090815260408083208484529091528082208151610100810190925280548290829061280c90613132565b80601f016020809104026020016040519081016040528092919081815260200182805461283890613132565b80156128835780601f1061285a57610100808354040283529160200191612883565b820191905f5260205f20905b81548152906001019060200180831161286657829003601f168201915b50505050508152602001600182015481526020016002820180546128a690613132565b80601f01602080910402602001604051908101604052809291908181526020018280546128d290613132565b801561291d5780601f106128f45761010080835404028352916020019161291d565b820191905f5260205f20905b81548152906001019060200180831161290057829003601f168201915b50505050508152602001600382015f9054906101000a90046001600160a01b03166001600160a01b03166001600160a01b031681526020016004820154815260200160058201548152602001600682015481526020016007820154815250509050846001600160a01b031681606001516001600160a01b03161480156129f5575060405168105d5d1bdb585d195960ba1b602082015260290160408051601f19818403018152908290528051602091820120835190926129dd920161311c565b60405160208183030381529060405280519060200120145b15612a0457509150612a0d9050565b506001016127ad565b92915050565b7fc8fcad8db84d3cc18b4c41d551ea0ee66dd599cde068d998e57d5e09332c132880545f51602061337e5f395f51905f52915f919082612a52836132d5565b909155506040805160c0810182528281523360208083018281526001600160a01b038a8116858701908152606086018d8152608087018c90524260a08801525f95865260138b018552968520805460018082018355918752949095208651600690950201938455915193830180546001600160a01b031990811695831695909517905590516002830180549094169116179091559151929350918291906003820190612afe90826131ae565b506080820151600482015560a09091015160059091015580516040516001600160a01b0387169133917f35c66f3706f0b2af281e2212c10363e79d4ebfbd1a9a57cb4f63d1145028c2ec91612b5b918791908c908b90429061334b565b60405180910390a3505050505050565b60025f5403612b8d57604051633ee5aeb560e01b815260040160405180910390fd5b60025f55565b508054612b9f90613132565b5f825580601f10612bae575050565b601f0160209004905f5260205f2090810190612bca9190612c15565b50565b604051806101000160405280606081526020015f8152602001606081526020015f6001600160a01b031681526020015f81526020015f81526020015f81526020015f81525090565b5b80821115612c29575f8155600101612c16565b5090565b80356001600160a01b0381168114612c43575f5ffd5b919050565b5f5f60408385031215612c59575f5ffd5b82359150612c6960208401612c2d565b90509250929050565b5f60208284031215612c82575f5ffd5b612c8b82612c2d565b9392505050565b634e487b7160e01b5f52604160045260245ffd5b5f82601f830112612cb5575f5ffd5b81356001600160401b03811115612cce57612cce612c92565b604051601f8201601f19908116603f011681016001600160401b0381118282101715612cfc57612cfc612c92565b604052818152838201602001851015612d13575f5ffd5b816020850160208301375f918101602001919091529392505050565b5f5f5f5f60808587031215612d42575f5ffd5b84356001600160401b03811115612d57575f5ffd5b612d6387828801612ca6565b945050612d7260208601612c2d565b93969395505050506040820135916060013590565b5f60208284031215612d97575f5ffd5b81356001600160401b03811115612dac575f5ffd5b612db884828501612ca6565b949350505050565b5f81518084528060208401602086015e5f602082860101526020601f19601f83011685010191505092915050565b602081525f825160606020840152612e096080840182612dc0565b905060208401516040840152604084015160608401528091505092915050565b5f602082016020835280845180835260408501915060408160051b8601019250602086015f5b82811015612e8057603f19878603018452612e6b858351612dc0565b94506020938401939190910190600101612e4f565b50929695505050505050565b5f5f5f5f5f60a08688031215612ea0575f5ffd5b85356001600160401b03811115612eb5575f5ffd5b612ec188828901612ca6565b955050612ed060208701612c2d565b94979496505050506040830135926060810135926080909101359150565b5f5f60408385031215612eff575f5ffd5b8235915060208301358015158114612f15575f5ffd5b809150509250929050565b602080825282518282018190525f918401906040840190835b81811015612f7957835180516001600160a01b03168452602080820151818601526040918201519185019190915290930192606090920191600101612f39565b509095945050505050565b602080825282518282018190525f918401906040840190835b81811015612f795783516001600160a01b0316835260209384019390920191600101612f9d565b5f8151808452602084019350602083015f5b82811015612ff4578151865260209586019590910190600101612fd6565b5093949350505050565b5f604082016040835280855180835260608501915060608160051b8601019250602087015f5b828110156130c357605f1987860301845281518051610100875261304c610100880182612dc0565b9050602082015160208801526040820151878203604089015261306f8282612dc0565b6060848101516001600160a01b0316908a0152608080850151908a015260a084810151908a015260c080850151908a015260e093840151939098019290925250506020938401939190910190600101613024565b5050505082810360208401526130d98185612fc4565b95945050505050565b634e487b7160e01b5f52601160045260245ffd5b80820180821115612a0d57612a0d6130e2565b81810381811115612a0d57612a0d6130e2565b5f82518060208501845e5f920191825250919050565b600181811c9082168061314657607f821691505b60208210810361316457634e487b7160e01b5f52602260045260245ffd5b50919050565b601f82111561035057805f5260205f20601f840160051c8101602085101561318f5750805b601f840160051c820191505b8181101561102f575f815560010161319b565b81516001600160401b038111156131c7576131c7612c92565b6131db816131d58454613132565b8461316a565b6020601f82116001811461320d575f83156131f65750848201515b5f19600385901b1c1916600184901b17845561102f565b5f84815260208120601f198516915b8281101561323c578785015182556020948501946001909201910161321c565b508482101561325957868401515f19600387901b60f8161c191681555b50505050600190811b01905550565b5f5f835461327581613132565b60018216801561328c57600181146132a157612253565b60ff1983168652811515820286019350612253565b865f5260205f205f5b838110156132c6578154888201526001909101906020016132aa565b50505093909301949350505050565b5f600182016132e6576132e66130e2565b5060010190565b634e487b7160e01b5f52603260045260245ffd5b634e487b7160e01b5f52603160045260245ffd5b8082028115828204841417612a0d57612a0d6130e2565b5f8261334657634e487b7160e01b5f52601260045260245ffd5b500490565b85815284602082015260a060408201525f61336960a0830186612dc0565b60608301949094525060800152939250505056fec8fcad8db84d3cc18b4c41d551ea0ee66dd599cde068d998e57d5e09332c131ca2646970667358221220d4eff7bc2fae35011ee946b4ad7353f8696fc23e06a291da9f190275db712fc864736f6c634300081c0033","linkReferences":{}},"methodIdentifiers":{"claimAll()":"d1058e59","createAutomatedSavingsPlan(string,address,uint256,uint256,uint256)":"a9e238ee","executeAutomatedSaving(address)":"0a64dc3e","getAllTargets()":"1d46021f","getAndExecuteAutomatedSavingsPlansDue()":"6ed54def","getAutomatedSavingsDuePlans()":"dd0de88d","getClaimableBalances()":"ff7a094f","getScheduledSavings()":"d07c5cee","getTargetDetails(string)":"12e9d7a3","removeFromAutomatedSavings(address)":"1b634155","save(string,address,uint256,uint256)":"0d80e184","updateFeeConfiguration(uint256,address)":"064eeae8","withdrawSavings(uint256,bool)":"b97bf202"},"id":9}