{"abi":[{"type":"function","name":"claim","inputs":[{"name":"_safeId","type":"uint256","internalType":"uint256"},{"name":"_tokenAddress","type":"address","internalType":"address"}],"outputs":[],"stateMutability":"nonpayable"},{"type":"function","name":"claimAll","inputs":[{"name":"_safeId","type":"uint256","internalType":"uint256"}],"outputs":[],"stateMutability":"nonpayable"},{"type":"function","name":"claimableBalance","inputs":[{"name":"_safeId","type":"uint256","internalType":"uint256"}],"outputs":[{"name":"","type":"tuple[]","internalType":"struct LibDiamond.Token[]","components":[{"name":"token","type":"address","internalType":"address"},{"name":"amount","type":"uint256","internalType":"uint256"}]}],"stateMutability":"view"},{"type":"function","name":"deleteSafe","inputs":[{"name":"_safeId","type":"uint256","internalType":"uint256"}],"outputs":[],"stateMutability":"nonpayable"},{"type":"function","name":"extendSafeDuration","inputs":[{"name":"_safeId","type":"uint256","internalType":"uint256"},{"name":"_additionalTime","type":"uint256","internalType":"uint256"}],"outputs":[],"stateMutability":"nonpayable"},{"type":"function","name":"getSafes","inputs":[],"outputs":[{"name":"","type":"tuple[]","internalType":"struct LibDiamond.SafeDetails[]","components":[{"name":"id","type":"uint256","internalType":"uint256"},{"name":"target","type":"string","internalType":"string"},{"name":"duration","type":"uint256","internalType":"uint256"},{"name":"startTime","type":"uint256","internalType":"uint256"},{"name":"unlockTime","type":"uint256","internalType":"uint256"},{"name":"tokenAmounts","type":"tuple[]","internalType":"struct LibDiamond.Token[]","components":[{"name":"token","type":"address","internalType":"address"},{"name":"amount","type":"uint256","internalType":"uint256"}]}]}],"stateMutability":"view"},{"type":"function","name":"getprematureWithdrawFeePercentage","inputs":[],"outputs":[{"name":"","type":"uint256","internalType":"uint256"}],"stateMutability":"view"},{"type":"function","name":"save","inputs":[{"name":"_target","type":"string","internalType":"string"},{"name":"_id","type":"uint256","internalType":"uint256"},{"name":"_token","type":"address","internalType":"address"},{"name":"_amount","type":"uint256","internalType":"uint256"},{"name":"_duration","type":"uint256","internalType":"uint256"}],"outputs":[],"stateMutability":"nonpayable"},{"type":"function","name":"topUpSafe","inputs":[{"name":"_id","type":"uint256","internalType":"uint256"},{"name":"_token","type":"address","internalType":"address"},{"name":"_amount","type":"uint256","internalType":"uint256"}],"outputs":[],"stateMutability":"nonpayable"},{"type":"function","name":"withdrawSavings","inputs":[{"name":"_safeId","type":"uint256","internalType":"uint256"},{"name":"_tokenAddress","type":"address","internalType":"address"},{"name":"_amount","type":"uint256","internalType":"uint256"},{"name":"_acceptEarlyWithdrawalFee","type":"bool","internalType":"bool"}],"outputs":[],"stateMutability":"nonpayable"},{"type":"event","name":"ClaimSuccessful","inputs":[{"name":"user","type":"address","indexed":true,"internalType":"address"},{"name":"id","type":"uint256","indexed":false,"internalType":"uint256"},{"name":"token","type":"address","indexed":true,"internalType":"address"},{"name":"amount","type":"uint256","indexed":false,"internalType":"uint256"}],"anonymous":false},{"type":"event","name":"PointsAwarded","inputs":[{"name":"user","type":"address","indexed":true,"internalType":"address"},{"name":"points","type":"uint256","indexed":false,"internalType":"uint256"},{"name":"multiplier","type":"uint256","indexed":false,"internalType":"uint256"}],"anonymous":false},{"type":"event","name":"SafeDeleted","inputs":[{"name":"user","type":"address","indexed":true,"internalType":"address"},{"name":"safe","type":"uint256","indexed":false,"internalType":"uint256"}],"anonymous":false},{"type":"event","name":"SafeDurationExtended","inputs":[{"name":"user","type":"address","indexed":true,"internalType":"address"},{"name":"safeId","type":"uint256","indexed":false,"internalType":"uint256"},{"name":"extension","type":"uint256","indexed":false,"internalType":"uint256"},{"name":"isUnlocked","type":"bool","indexed":false,"internalType":"bool"}],"anonymous":false},{"type":"event","name":"SavedSuccessfully","inputs":[{"name":"user","type":"address","indexed":true,"internalType":"address"},{"name":"token","type":"address","indexed":true,"internalType":"address"},{"name":"amount","type":"uint256","indexed":false,"internalType":"uint256"},{"name":"duration","type":"uint256","indexed":false,"internalType":"uint256"},{"name":"id","type":"uint256","indexed":false,"internalType":"uint256"}],"anonymous":false},{"type":"event","name":"SavingsWithdrawn","inputs":[{"name":"user","type":"address","indexed":true,"internalType":"address"},{"name":"token","type":"address","indexed":true,"internalType":"address"},{"name":"amount","type":"uint256","indexed":false,"internalType":"uint256"},{"name":"fee","type":"uint256","indexed":false,"internalType":"uint256"},{"name":"earlyWithdrawal","type":"bool","indexed":false,"internalType":"bool"}],"anonymous":false},{"type":"event","name":"TopUpSuccessful","inputs":[{"name":"user","type":"address","indexed":true,"internalType":"address"},{"name":"id","type":"uint256","indexed":true,"internalType":"uint256"},{"name":"token","type":"address","indexed":false,"internalType":"address"},{"name":"amount","type":"uint256","indexed":false,"internalType":"uint256"}],"anonymous":false},{"type":"event","name":"TransactionHistoryUpdated","inputs":[{"name":"user","type":"address","indexed":true,"internalType":"address"},{"name":"txCount","type":"uint256","indexed":false,"internalType":"uint256"},{"name":"txId","type":"uint256","indexed":false,"internalType":"uint256"},{"name":"token","type":"address","indexed":true,"internalType":"address"},{"name":"typeOfTransaction","type":"string","indexed":false,"internalType":"string"},{"name":"amount","type":"uint256","indexed":false,"internalType":"uint256"},{"name":"timestamp","type":"uint256","indexed":false,"internalType":"uint256"}],"anonymous":false},{"type":"error","name":"AddressZeroDetected","inputs":[]},{"type":"error","name":"DurationTooShort","inputs":[]},{"type":"error","name":"InsufficientFunds","inputs":[]},{"type":"error","name":"InvalidInput","inputs":[]},{"type":"error","name":"InvalidSafeId","inputs":[]},{"type":"error","name":"InvalidTokenAddress","inputs":[]},{"type":"error","name":"InvalidWithdrawal","inputs":[]},{"type":"error","name":"ReentrancyGuardReentrantCall","inputs":[]},{"type":"error","name":"SafeDoesNotExist","inputs":[]},{"type":"error","name":"SafeIsUnlocked","inputs":[]},{"type":"error","name":"SafeNotEmpty","inputs":[]},{"type":"error","name":"SafeNotMatured","inputs":[]},{"type":"error","name":"ZeroValueNotAllowed","inputs":[]}],"bytecode":{"object":"0x6080604052348015600e575f5ffd5b5060015f55611f20806100205f395ff3fe608060405234801561000f575f5ffd5b506004361061009b575f3560e01c8063c45cadf311610063578063c45cadf314610116578063c72e086414610129578063d9d5def914610159578063ddd5e1b21461016c578063fae964671461017f575f5ffd5b8063054950781461009f5780634fb5e885146100b45780636930fd2a146100c757806378b166bb146100da57806385d3374f146100ed575b5f5ffd5b6100b26100ad36600461169a565b610194565b005b6100b26100c2366004611787565b6103f9565b6100b26100d5366004611828565b610769565b6100b26100e836600461183f565b6109a4565b6101006100fb366004611828565b610c66565b60405161010d919061188a565b60405180910390f35b6100b2610124366004611828565b610ebe565b7fc8fcad8db84d3cc18b4c41d551ea0ee66dd599cde068d998e57d5e09332c132c5460405190815260200161010d565b6100b26101673660046118e1565b611091565b6100b261017a366004611901565b6111b7565b610187611374565b60405161010d919061195d565b335f8181525f516020611ecb5f395f51905f526020908152604080832087845290915290205f516020611eab5f395f51905f52916101e55760405163287170f960e01b815260040160405180910390fd5b825f036102055760405163273e150360e21b815260040160405180910390fd5b6001600160a01b0384165f908152601a8301602052604090205460ff1661023f57604051630f58058360e11b815260040160405180910390fd5b335f908152601e8301602090815260408083206001600160a01b03881684529091529020548311156102845760405163356680b760e01b815260040160405180910390fd5b805485146102a8576040516001620dbc3360e41b0319815260040160405180910390fd5b42816004015410156102cd576040516304cb686560e31b815260040160405180910390fd5b335f908152601e8301602090815260408083206001600160a01b038816845290915281208054859290610301908490611a68565b90915550506001600160a01b0384165f9081526006820160205260408120805485929061032f908490611a81565b9091555050335f908152601f8301602090815260408083206001600160a01b038816845290915281208054859290610368908490611a81565b90915550506017820154610385903390610100900460ff166113ef565b6103ac604051806040016040528060048152602001637361766560e01b81525085856114f6565b8054604080516001600160a01b03871681526020810186905233917f679b73ddae0d00c5f74d6b0b55a86a95c34b57fe8559d2ee159b6213b6ac926d910160405180910390a35050505050565b335f9081525f516020611ecb5f395f51905f526020908152604080832087845290915290205f516020611eab5f395f51905f5290851580159061043c5750805486145b1561047857428160040154111561045f57610458868686610194565b5050610762565b6040516304cb686560e31b815260040160405180910390fd5b62278d0083101561049c576040516325c3636760e01b815260040160405180910390fd5b336104ba5760405163287170f960e01b815260040160405180910390fd5b835f036104da5760405163273e150360e21b815260040160405180910390fd5b6001600160a01b0385165f908152601a8301602052604090205460ff1661051457604051630f58058360e11b815260040160405180910390fd5b825f036105345760405163b4fa3fb360e01b815260040160405180910390fd5b335f908152601e8301602090815260408083206001600160a01b03891684529091529020548411156105795760405163356680b760e01b815260040160405180910390fd5b335f908152601e8301602090815260408083206001600160a01b0389168452909152812080548692906105ad908490611a68565b9091555050335f908152602080840190526040812054906105cf826001611a81565b335f908152602286016020908152604080832084845290915290208181559091506001016105fd8a82611b15565b50335f9081526022850160209081526040808320848452909152902060028101869055426003909101819055610634908690611a81565b335f81815260228701602090815260408083208684528252808320600481019590955560058501805460ff191660011790556001600160a01b038c168352600690940181528382208a905591815281870190915290812080549161069783611bd0565b9091555050335f908152601f8501602090815260408083206001600160a01b038b168452909152812080548892906106d0908490611a81565b909155505060178401546106e890339060ff166113ef565b61070f604051806040016040528060048152602001637361766560e01b81525088886114f6565b60408051878152602081018790529081018290526001600160a01b0388169033907f2fa2b3bc09f24dd8e546017019ecea7a661a6c8e558779940a23b69329277ccf9060600160405180910390a3505050505b5050505050565b61077161164e565b335f9081525f516020611ecb5f395f51905f5260209081526040808320848452909152902080545f516020611eab5f395f51905f52919083146107c75760405163a971026760e01b815260040160405180910390fd5b80600401544210156107ec5760405163a79e4b5960e01b815260040160405180910390fd5b5f8260120180548060200260200160405190810160405280929190818152602001828054801561084357602002820191905f5260205f20905b81546001600160a01b03168152600190910190602001808311610825575b509394505f93505050505b8151811015610994575f82828151811061086a5761086a611be8565b6020908102919091018101516001600160a01b0381165f90815260068701909252604090912054909150801561098a57335f908152601e8701602090815260408083206001600160a01b0386168452909152812080548392906108ce908490611a81565b90915550506001600160a01b0382165f8181526006870160209081526040808320839055338352601f8a0182528083209383529290529081208054839290610917908490611a68565b9091555050604080518082019091526005815264636c61696d60d81b60208201526109439083836114f6565b60408051888152602081018390526001600160a01b0384169133917fd0653aaaf6264788b52568cce2fca7b1427f9694e5fdbd4ef5f8f8a22b78dd35910160405180910390a35b505060010161084e565b505050506109a160015f55565b50565b6109ac61164e565b815f036109cc5760405163273e150360e21b815260040160405180910390fd5b335f9081525f516020611ecb5f395f51905f5260209081526040808320878452909152902080545f516020611eab5f395f51905f5291908614610a225760405163a971026760e01b815260040160405180910390fd5b6001600160a01b0385165f90815260068201602052604090205484811015610a5d5760405163356680b760e01b815260040160405180910390fd5b60048201544210155f81610aa95785610a895760405163c945242d60e01b815260040160405180910390fd5b612710856010015488610a9c9190611bfc565b610aa69190611c13565b90505b5f610ab48289611a68565b6001600160a01b038a165f908152600687016020526040812080549293508a92909190610ae2908490611a68565b9091555050335f908152601f8701602090815260408083206001600160a01b038d168452909152812080548a9290610b1b908490611a68565b9091555050335f908152601e8701602090815260408083206001600160a01b038d16845290915281208054839290610b54908490611a81565b90915550508115610bdb5760118601546001600160a01b039081165f908152601e880160209081526040808320938d1683529290529081208054849290610b9c908490611a81565b9091555050335f908152601d8701602090815260408083206001600160a01b038d16845290915281208054849290610bd5908490611a68565b90915550505b610c0460405180604001604052806006815260200165756e6c6f636b60d01b8152508a8a6114f6565b604080518281526020810184905284158183015290516001600160a01b038b169133917f899f1390cfbbc35eeb78972776293f5a327700052bd9a8b7971076db30e8fc359181900360600190a3505050505050610c6060015f55565b50505050565b335f9081525f516020611ecb5f395f51905f5260209081526040808320848452909152902080546060915f516020611eab5f395f51905f52918414610cbe5760405163a971026760e01b815260040160405180910390fd5b8060040154421015610ce35760405163a79e4b5960e01b815260040160405180910390fd5b5f82601201805480602002602001604051908101604052809291908181526020018280548015610d3a57602002820191905f5260205f20905b81546001600160a01b03168152600190910190602001808311610d1c575b509394505f935083925050505b8251811015610dac575f846006015f858481518110610d6857610d68611be8565b60200260200101516001600160a01b03166001600160a01b031681526020019081526020015f20541115610da45781610da081611bd0565b9250505b600101610d47565b505f8167ffffffffffffffff811115610dc757610dc76116cf565b604051908082528060200260200182016040528015610e0b57816020015b604080518082019091525f8082526020820152815260200190600190039081610de55790505b5090505f805b8451811015610eb1575f858281518110610e2d57610e2d611be8565b6020908102919091018101516001600160a01b0381165f90815260068a019092526040909120549091508015610ea7576040518060400160405280836001600160a01b0316815260200182815250858581518110610e8d57610e8d611be8565b60200260200101819052508380610ea390611bd0565b9450505b5050600101610e11565b5090979650505050505050565b335f9081525f516020611ecb5f395f51905f5260209081526040808320848452909152902060058101545f516020611eab5f395f51905f52919060ff16610f405760405162461bcd60e51b815260206004820152601260248201527153616665206973206e6f742061637469766560701b604482015260640160405180910390fd5b5f82601201805480602002602001604051908101604052809291908181526020018280548015610f9757602002820191905f5260205f20905b81546001600160a01b03168152600190910190602001808311610f79575b509394505f93505050505b8151811015611017575f828281518110610fbe57610fbe611be8565b602002602001015190505f846006015f836001600160a01b03166001600160a01b031681526020019081526020015f2054111561100e57604051632d359a6f60e11b815260040160405180910390fd5b50600101610fa2565b5060408051602081019091525f815260018301906110359082611b15565b505f6002830181905560038301819055600483015560058201805460ff1916905560405184815233907f0d630e8c16859252e5a7f032aae3002b47a08a88821db5a732ce9d6dd199a8f69060200160405180910390a250505050565b335f9081525f516020611ecb5f395f51905f5260209081526040808320858452909152812080545f516020611eab5f395f51905f5292036110e8576040516001620dbc3360e41b0319815260040160405180910390fd5b62278d0083101561110c576040516325c3636760e01b815260040160405180910390fd5b5f81600401544210611136575060016111258442611a81565b60048301556002820184905561116c565b5f905083826004015f82825461114c9190611a81565b9250508190555083826002015f8282546111669190611a81565b90915550505b604080518681526020810186905282151581830152905133917f228cb3270f232442a44f752017946019af880f50907269b47cccc91c9e55276e919081900360600190a25050505050565b6111bf61164e565b335f9081525f516020611ecb5f395f51905f5260209081526040808320858452909152902080545f516020611eab5f395f51905f52919084146112155760405163a971026760e01b815260040160405180910390fd5b806004015442101561123a5760405163a79e4b5960e01b815260040160405180910390fd5b6001600160a01b0383165f908152600682016020526040812054908190036112755760405163273e150360e21b815260040160405180910390fd5b335f908152601e8401602090815260408083206001600160a01b0388168452909152812080548392906112a9908490611a81565b90915550506001600160a01b0384165f8181526006840160209081526040808320839055338352601f8701825280832093835292905290812080548392906112f2908490611a68565b9091555050604080518082019091526005815264636c61696d60d81b602082015261131e9085836114f6565b60408051868152602081018390526001600160a01b0386169133917fd0653aaaf6264788b52568cce2fca7b1427f9694e5fdbd4ef5f8f8a22b78dd35910160405180910390a350505061137060015f55565b5050565b6040516316371a2160e11b815233600482015260609073__$faaf65185191f7faba9c52c5c92a58a2af$__90632c6e3442906024015f60405180830381865af41580156113c3573d5f5f3e3d5ffd5b505050506040513d5f823e601f3d908101601f191682016040526113ea9190810190611d35565b905090565b6001600160a01b0382165f9081527fc8fcad8db84d3cc18b4c41d551ea0ee66dd599cde068d998e57d5e09332c134360209081526040808320547fc8fcad8db84d3cc18b4c41d551ea0ee66dd599cde068d998e57d5e09332c13429092528220545f516020611eab5f395f51905f529260ff851682156114865760646114758483611bfc565b61147f9190611c13565b915061148a565b8091505b6114948285611a81565b6001600160a01b0388165f81815260278801602090815260409182902093909355805185815292830186905290917f2292e1cf0767804f0c9d4e1f6a5c721c2e11d13a76402bc549936f0f5a27af6a910160405180910390a250505050505050565b7fc8fcad8db84d3cc18b4c41d551ea0ee66dd599cde068d998e57d5e09332c132880545f516020611eab5f395f51905f52915f91908261153583611bd0565b909155506040805160c0810182528281523360208083018281526001600160a01b038a8116858701908152606086018d8152608087018c90524260a08801525f95865260218b018552968520805460018082018355918752949095208651600690950201938455915193830180546001600160a01b0319908116958316959095179055905160028301805490941691161790915591519293509182919060038201906115e19082611b15565b506080820151600482015560a09091015160059091015580516040516001600160a01b0387169133917f35c66f3706f0b2af281e2212c10363e79d4ebfbd1a9a57cb4f63d1145028c2ec9161163e918791908c908b904290611e78565b60405180910390a3505050505050565b60025f540361167057604051633ee5aeb560e01b815260040160405180910390fd5b60025f55565b6001600160a01b03811681146109a1575f5ffd5b803561169581611676565b919050565b5f5f5f606084860312156116ac575f5ffd5b8335925060208401356116be81611676565b929592945050506040919091013590565b634e487b7160e01b5f52604160045260245ffd5b6040805190810167ffffffffffffffff81118282101715611706576117066116cf565b60405290565b60405160c0810167ffffffffffffffff81118282101715611706576117066116cf565b604051601f8201601f1916810167ffffffffffffffff81118282101715611758576117586116cf565b604052919050565b5f67ffffffffffffffff821115611779576117796116cf565b50601f01601f191660200190565b5f5f5f5f5f60a0868803121561179b575f5ffd5b853567ffffffffffffffff8111156117b1575f5ffd5b8601601f810188136117c1575f5ffd5b80356117d46117cf82611760565b61172f565b8181528960208385010111156117e8575f5ffd5b816020840160208301375f60209282018301529650870135945061181090506040870161168a565b94979396509394606081013594506080013592915050565b5f60208284031215611838575f5ffd5b5035919050565b5f5f5f5f60808587031215611852575f5ffd5b84359350602085013561186481611676565b9250604085013591506060850135801515811461187f575f5ffd5b939692955090935050565b602080825282518282018190525f918401906040840190835b818110156118d657835180516001600160a01b0316845260209081015181850152909301926040909201916001016118a3565b509095945050505050565b5f5f604083850312156118f2575f5ffd5b50508035926020909101359150565b5f5f60408385031215611912575f5ffd5b82359150602083013561192481611676565b809150509250929050565b5f81518084528060208401602086015e5f602082860101526020601f19601f83011685010191505092915050565b5f602082016020835280845180835260408501915060408160051b8601019250602086015f5b82811015611a4857603f19878603018452815180518652602081015160c060208801526119b360c088018261192f565b905060408201516040880152606082015160608801526080820151608088015260a0820151915086810360a08801528082518083526020830191506020840193505f92505b80831015611a3057835180516001600160a01b03168352602090810151908301526040820191506020840193506001830192506119f8565b50965050506020938401939190910190600101611983565b50929695505050505050565b634e487b7160e01b5f52601160045260245ffd5b81810381811115611a7b57611a7b611a54565b92915050565b80820180821115611a7b57611a7b611a54565b600181811c90821680611aa857607f821691505b602082108103611ac657634e487b7160e01b5f52602260045260245ffd5b50919050565b601f821115611b1057805f5260205f20601f840160051c81016020851015611af15750805b601f840160051c820191505b81811015610762575f8155600101611afd565b505050565b815167ffffffffffffffff811115611b2f57611b2f6116cf565b611b4381611b3d8454611a94565b84611acc565b6020601f821160018114611b75575f8315611b5e5750848201515b5f19600385901b1c1916600184901b178455610762565b5f84815260208120601f198516915b82811015611ba45787850151825560209485019460019092019101611b84565b5084821015611bc157868401515f19600387901b60f8161c191681555b50505050600190811b01905550565b5f60018201611be157611be1611a54565b5060010190565b634e487b7160e01b5f52603260045260245ffd5b8082028115828204841417611a7b57611a7b611a54565b5f82611c2d57634e487b7160e01b5f52601260045260245ffd5b500490565b5f67ffffffffffffffff821115611c4b57611c4b6116cf565b5060051b60200190565b5f82601f830112611c64575f5ffd5b8151611c726117cf82611760565b818152846020838601011115611c86575f5ffd5b8160208501602083015e5f918101602001919091529392505050565b5f82601f830112611cb1575f5ffd5b8151611cbf6117cf82611c32565b8082825260208201915060208360061b860101925085831115611ce0575f5ffd5b602085015b83811015611d2b5760408188031215611cfc575f5ffd5b611d046116e3565b8151611d0f81611676565b8152602082810151818301529084529290920191604001611ce5565b5095945050505050565b5f60208284031215611d45575f5ffd5b815167ffffffffffffffff811115611d5b575f5ffd5b8201601f81018413611d6b575f5ffd5b8051611d796117cf82611c32565b8082825260208201915060208360051b850101925086831115611d9a575f5ffd5b602084015b83811015611e6d57805167ffffffffffffffff811115611dbd575f5ffd5b850160c0818a03601f19011215611dd2575f5ffd5b611dda61170c565b60208201518152604082015167ffffffffffffffff811115611dfa575f5ffd5b611e098b602083860101611c55565b60208301525060608281015160408301526080808401519183019190915260a08301519082015260c082015167ffffffffffffffff811115611e49575f5ffd5b611e588b602083860101611ca2565b60a08301525084525060209283019201611d9f565b509695505050505050565b85815284602082015260a060408201525f611e9660a083018661192f565b60608301949094525060800152939250505056fec8fcad8db84d3cc18b4c41d551ea0ee66dd599cde068d998e57d5e09332c131cc8fcad8db84d3cc18b4c41d551ea0ee66dd599cde068d998e57d5e09332c133ea26469706673582212208034e4220589582a4c5dbaf53f2d6e21aa9d177cf4497dc2f0d8d23bcfd958bd64736f6c634300081c0033","linkReferences":{"contracts/libraries/CustomLib.sol":{"CustomLib":[{"start":5036,"length":20}]}}},"methodIdentifiers":{"claim(uint256,address)":"ddd5e1b2","claimAll(uint256)":"6930fd2a","claimableBalance(uint256)":"85d3374f","deleteSafe(uint256)":"c45cadf3","extendSafeDuration(uint256,uint256)":"d9d5def9","getSafes()":"fae96467","getprematureWithdrawFeePercentage()":"c72e0864","save(string,uint256,address,uint256,uint256)":"4fb5e885","topUpSafe(uint256,address,uint256)":"05495078","withdrawSavings(uint256,address,uint256,bool)":"78b166bb"},"id":0}