{
  "_format": "hh-sol-artifact-1",
  "contractName": "Savings",
  "sourceName": "contracts/Savings.sol",
  "abi": [
    {
      "inputs": [
        {
          "internalType": "address",
          "name": "_erc20TokenAddress",
          "type": "address"
        },
        {
          "internalType": "address",
          "name": "_liskTokenAddress",
          "type": "address"
        },
        {
          "internalType": "address",
          "name": "_safuTokenAddress",
          "type": "address"
        }
      ],
      "stateMutability": "nonpayable",
      "type": "constructor"
    },
    {
      "inputs": [
        {
          "internalType": "address",
          "name": "target",
          "type": "address"
        }
      ],
      "name": "AddressEmptyCode",
      "type": "error"
    },
    {
      "inputs": [
        {
          "internalType": "address",
          "name": "account",
          "type": "address"
        }
      ],
      "name": "AddressInsufficientBalance",
      "type": "error"
    },
    {
      "inputs": [],
      "name": "AddressZeroDetected",
      "type": "error"
    },
    {
      "inputs": [],
      "name": "FailedInnerCall",
      "type": "error"
    },
    {
      "inputs": [],
      "name": "InsufficientAllowance",
      "type": "error"
    },
    {
      "inputs": [],
      "name": "InsufficientFunds",
      "type": "error"
    },
    {
      "inputs": [],
      "name": "InvalidPercentage",
      "type": "error"
    },
    {
      "inputs": [],
      "name": "InvalidTokenAddress",
      "type": "error"
    },
    {
      "inputs": [],
      "name": "InvalidWithdrawal",
      "type": "error"
    },
    {
      "inputs": [],
      "name": "NotOwner",
      "type": "error"
    },
    {
      "inputs": [],
      "name": "ReentrancyGuardReentrantCall",
      "type": "error"
    },
    {
      "inputs": [
        {
          "internalType": "address",
          "name": "token",
          "type": "address"
        }
      ],
      "name": "SafeERC20FailedOperation",
      "type": "error"
    },
    {
      "inputs": [],
      "name": "UnauthorizedCaller",
      "type": "error"
    },
    {
      "inputs": [],
      "name": "ZeroValueNotAllowed",
      "type": "error"
    },
    {
      "anonymous": false,
      "inputs": [
        {
          "indexed": true,
          "internalType": "address",
          "name": "user",
          "type": "address"
        },
        {
          "indexed": true,
          "internalType": "address",
          "name": "token",
          "type": "address"
        },
        {
          "indexed": false,
          "internalType": "uint256",
          "name": "amount",
          "type": "uint256"
        }
      ],
      "name": "AutomatedSavingExecuted",
      "type": "event"
    },
    {
      "anonymous": false,
      "inputs": [
        {
          "indexed": true,
          "internalType": "address",
          "name": "user",
          "type": "address"
        },
        {
          "indexed": true,
          "internalType": "address",
          "name": "token",
          "type": "address"
        },
        {
          "indexed": false,
          "internalType": "uint256",
          "name": "amount",
          "type": "uint256"
        },
        {
          "indexed": false,
          "internalType": "uint256",
          "name": "frequency",
          "type": "uint256"
        }
      ],
      "name": "AutomatedSavingSet",
      "type": "event"
    },
    {
      "anonymous": false,
      "inputs": [
        {
          "indexed": true,
          "internalType": "address",
          "name": "user",
          "type": "address"
        },
        {
          "indexed": false,
          "internalType": "uint256",
          "name": "amount",
          "type": "uint256"
        }
      ],
      "name": "BalanceWithdrawnToUserAccount",
      "type": "event"
    },
    {
      "anonymous": false,
      "inputs": [
        {
          "indexed": true,
          "internalType": "address",
          "name": "user",
          "type": "address"
        },
        {
          "indexed": true,
          "internalType": "address",
          "name": "token",
          "type": "address"
        },
        {
          "indexed": false,
          "internalType": "uint256",
          "name": "amount",
          "type": "uint256"
        }
      ],
      "name": "DepositSuccessful",
      "type": "event"
    },
    {
      "anonymous": false,
      "inputs": [
        {
          "indexed": true,
          "internalType": "address",
          "name": "user",
          "type": "address"
        },
        {
          "indexed": true,
          "internalType": "address",
          "name": "token",
          "type": "address"
        },
        {
          "indexed": false,
          "internalType": "uint256",
          "name": "amount",
          "type": "uint256"
        },
        {
          "indexed": false,
          "internalType": "uint256",
          "name": "duration",
          "type": "uint256"
        }
      ],
      "name": "SavedSuccessfully",
      "type": "event"
    },
    {
      "anonymous": false,
      "inputs": [
        {
          "indexed": true,
          "internalType": "address",
          "name": "user",
          "type": "address"
        },
        {
          "indexed": false,
          "internalType": "uint256",
          "name": "amount",
          "type": "uint256"
        },
        {
          "indexed": false,
          "internalType": "uint256",
          "name": "fee",
          "type": "uint256"
        },
        {
          "indexed": false,
          "internalType": "bool",
          "name": "earlyWithdrawal",
          "type": "bool"
        }
      ],
      "name": "SavingsWithdrawn",
      "type": "event"
    },
    {
      "anonymous": false,
      "inputs": [
        {
          "indexed": true,
          "internalType": "address",
          "name": "user",
          "type": "address"
        },
        {
          "indexed": true,
          "internalType": "address",
          "name": "token",
          "type": "address"
        },
        {
          "indexed": false,
          "internalType": "uint256",
          "name": "amountSaved",
          "type": "uint256"
        }
      ],
      "name": "SpendAndSave",
      "type": "event"
    },
    {
      "anonymous": false,
      "inputs": [
        {
          "indexed": true,
          "internalType": "address",
          "name": "user",
          "type": "address"
        },
        {
          "indexed": false,
          "internalType": "address",
          "name": "tokenType",
          "type": "address"
        },
        {
          "indexed": false,
          "internalType": "uint256",
          "name": "amount",
          "type": "uint256"
        }
      ],
      "name": "Withdrawn",
      "type": "event"
    },
    {
      "inputs": [
        {
          "internalType": "address",
          "name": "_token",
          "type": "address"
        },
        {
          "internalType": "enum Savings.TokenType",
          "name": "_tokenType",
          "type": "uint8"
        }
      ],
      "name": "addAcceptedToken",
      "outputs": [],
      "stateMutability": "nonpayable",
      "type": "function"
    },
    {
      "inputs": [
        {
          "internalType": "address",
          "name": "_token",
          "type": "address"
        },
        {
          "internalType": "uint8",
          "name": "_percentage",
          "type": "uint8"
        },
        {
          "internalType": "uint256",
          "name": "_duration",
          "type": "uint256"
        }
      ],
      "name": "createSpendAndSavePlan",
      "outputs": [],
      "stateMutability": "nonpayable",
      "type": "function"
    },
    {
      "inputs": [
        {
          "internalType": "uint256",
          "name": "_amount",
          "type": "uint256"
        },
        {
          "internalType": "address",
          "name": "_token",
          "type": "address"
        }
      ],
      "name": "depositToPool",
      "outputs": [],
      "stateMutability": "nonpayable",
      "type": "function"
    },
    {
      "inputs": [
        {
          "internalType": "address",
          "name": "_user",
          "type": "address"
        }
      ],
      "name": "executeAutomatedSaving",
      "outputs": [],
      "stateMutability": "nonpayable",
      "type": "function"
    },
    {
      "inputs": [
        {
          "internalType": "address",
          "name": "_user",
          "type": "address"
        }
      ],
      "name": "getAvailableBalancei",
      "outputs": [
        {
          "internalType": "uint256",
          "name": "",
          "type": "uint256"
        }
      ],
      "stateMutability": "view",
      "type": "function"
    },
    {
      "inputs": [
        {
          "internalType": "address",
          "name": "_user",
          "type": "address"
        }
      ],
      "name": "getAvailableBalances",
      "outputs": [
        {
          "components": [
            {
              "internalType": "address",
              "name": "token",
              "type": "address"
            },
            {
              "internalType": "uint256",
              "name": "balance",
              "type": "uint256"
            }
          ],
          "internalType": "struct Savings.TokenBalance[]",
          "name": "",
          "type": "tuple[]"
        }
      ],
      "stateMutability": "view",
      "type": "function"
    },
    {
      "inputs": [
        {
          "internalType": "address",
          "name": "_token",
          "type": "address"
        }
      ],
      "name": "getContractBalance",
      "outputs": [
        {
          "internalType": "uint256",
          "name": "",
          "type": "uint256"
        }
      ],
      "stateMutability": "view",
      "type": "function"
    },
    {
      "inputs": [
        {
          "internalType": "enum Savings.TokenType",
          "name": "_tokenType",
          "type": "uint8"
        }
      ],
      "name": "getTokenAddress",
      "outputs": [
        {
          "internalType": "address",
          "name": "",
          "type": "address"
        }
      ],
      "stateMutability": "view",
      "type": "function"
    },
    {
      "inputs": [
        {
          "internalType": "address",
          "name": "_user",
          "type": "address"
        }
      ],
      "name": "getTotalSavingsBalance",
      "outputs": [
        {
          "internalType": "uint256",
          "name": "",
          "type": "uint256"
        }
      ],
      "stateMutability": "view",
      "type": "function"
    },
    {
      "inputs": [
        {
          "internalType": "address",
          "name": "_user",
          "type": "address"
        }
      ],
      "name": "getUserBalances",
      "outputs": [
        {
          "components": [
            {
              "internalType": "address",
              "name": "token",
              "type": "address"
            },
            {
              "internalType": "uint256",
              "name": "balance",
              "type": "uint256"
            }
          ],
          "internalType": "struct Savings.TokenBalance[]",
          "name": "",
          "type": "tuple[]"
        }
      ],
      "stateMutability": "view",
      "type": "function"
    },
    {
      "inputs": [],
      "name": "owner",
      "outputs": [
        {
          "internalType": "address",
          "name": "",
          "type": "address"
        }
      ],
      "stateMutability": "view",
      "type": "function"
    },
    {
      "inputs": [
        {
          "internalType": "enum Savings.TokenType",
          "name": "_tokenType",
          "type": "uint8"
        }
      ],
      "name": "removeAcceptedToken",
      "outputs": [],
      "stateMutability": "nonpayable",
      "type": "function"
    },
    {
      "inputs": [
        {
          "internalType": "address",
          "name": "_token",
          "type": "address"
        },
        {
          "internalType": "uint256",
          "name": "_amount",
          "type": "uint256"
        },
        {
          "internalType": "uint256",
          "name": "_duration",
          "type": "uint256"
        },
        {
          "internalType": "string",
          "name": "_typeName",
          "type": "string"
        }
      ],
      "name": "save",
      "outputs": [],
      "stateMutability": "nonpayable",
      "type": "function"
    },
    {
      "inputs": [
        {
          "internalType": "address",
          "name": "_token",
          "type": "address"
        },
        {
          "internalType": "uint256",
          "name": "_amount",
          "type": "uint256"
        },
        {
          "internalType": "uint256",
          "name": "_frequency",
          "type": "uint256"
        }
      ],
      "name": "setAutomatedSavingsPlan",
      "outputs": [],
      "stateMutability": "nonpayable",
      "type": "function"
    },
    {
      "inputs": [
        {
          "internalType": "address",
          "name": "_token",
          "type": "address"
        },
        {
          "internalType": "uint256",
          "name": "_amount",
          "type": "uint256"
        }
      ],
      "name": "spendAndSave",
      "outputs": [],
      "stateMutability": "nonpayable",
      "type": "function"
    },
    {
      "inputs": [],
      "name": "trustedForwarder",
      "outputs": [
        {
          "internalType": "address",
          "name": "",
          "type": "address"
        }
      ],
      "stateMutability": "view",
      "type": "function"
    },
    {
      "inputs": [
        {
          "internalType": "address",
          "name": "_token",
          "type": "address"
        },
        {
          "internalType": "uint256",
          "name": "_amount",
          "type": "uint256"
        }
      ],
      "name": "withdrawFromPool",
      "outputs": [],
      "stateMutability": "nonpayable",
      "type": "function"
    },
    {
      "inputs": [
        {
          "internalType": "address",
          "name": "_token",
          "type": "address"
        },
        {
          "internalType": "uint256",
          "name": "_amount",
          "type": "uint256"
        },
        {
          "internalType": "bool",
          "name": "_acceptEarlyWithdrawalFee",
          "type": "bool"
        },
        {
          "internalType": "string",
          "name": "_type",
          "type": "string"
        }
      ],
      "name": "withdrawSavings",
      "outputs": [],
      "stateMutability": "nonpayable",
      "type": "function"
    }
  ],
  "bytecode": "0x60806040523480156200001157600080fd5b50604051620043bc380380620043bc833981810160405281019062000037919062000370565b600160008190555033600160006101000a81548173ffffffffffffffffffffffffffffffffffffffff021916908373ffffffffffffffffffffffffffffffffffffffff16021790555082600860008060028111156200009b576200009a620003cc565b5b6002811115620000b057620000af620003cc565b5b815260200190815260200160002060006101000a81548173ffffffffffffffffffffffffffffffffffffffff021916908373ffffffffffffffffffffffffffffffffffffffff160217905550816008600060016002811115620001185762000117620003cc565b5b60028111156200012d576200012c620003cc565b5b815260200190815260200160002060006101000a81548173ffffffffffffffffffffffffffffffffffffffff021916908373ffffffffffffffffffffffffffffffffffffffff1602179055508060086000600280811115620001945762000193620003cc565b5b6002811115620001a957620001a8620003cc565b5b815260200190815260200160002060006101000a81548173ffffffffffffffffffffffffffffffffffffffff021916908373ffffffffffffffffffffffffffffffffffffffff1602179055506001600660008573ffffffffffffffffffffffffffffffffffffffff1673ffffffffffffffffffffffffffffffffffffffff16815260200190815260200160002060006101000a81548160ff0219169083151502179055506001600660008473ffffffffffffffffffffffffffffffffffffffff1673ffffffffffffffffffffffffffffffffffffffff16815260200190815260200160002060006101000a81548160ff0219169083151502179055506001600660008373ffffffffffffffffffffffffffffffffffffffff1673ffffffffffffffffffffffffffffffffffffffff16815260200190815260200160002060006101000a81548160ff021916908315150217905550505050620003fb565b600080fd5b600073ffffffffffffffffffffffffffffffffffffffff82169050919050565b600062000338826200030b565b9050919050565b6200034a816200032b565b81146200035657600080fd5b50565b6000815190506200036a816200033f565b92915050565b6000806000606084860312156200038c576200038b62000306565b5b60006200039c8682870162000359565b9350506020620003af8682870162000359565b9250506040620003c28682870162000359565b9150509250925092565b7f4e487b7100000000000000000000000000000000000000000000000000000000600052602160045260246000fd5b613fb1806200040b6000396000f3fe608060405234801561001057600080fd5b50600436106101165760003560e01c80637da0a877116100a25780638ec8cb25116100715780638ec8cb25146102c7578063abd3f612146102f7578063bc926f6e14610327578063c1bf9e5814610343578063f79b334e1461035f57610116565b80637da0a8771461023f57806389904c331461025d5780638bb510821461028d5780638da5cb5b146102a957610116565b806343ab265f116100e957806343ab265f1461018b5780635613c456146101bb5780635ad3f918146101d7578063678d0e0e146102075780637ac5ada21461022357610116565b8063058e2f3c1461011b5780630a64dc3e1461013757806316982629146101535780631d929d7d1461016f575b600080fd5b6101356004803603810190610130919061330a565b61038f565b005b610151600480360381019061014c919061338d565b61086d565b005b61016d600480360381019061016891906133ba565b610dd1565b005b6101896004803603810190610184919061343d565b6112a3565b005b6101a560048036038101906101a0919061338d565b611721565b6040516101b2919061348c565b60405180910390f35b6101d560048036038101906101d091906134a7565b61182b565b005b6101f160048036038101906101ec919061351f565b611a3e565b6040516101fe919061355b565b60405180910390f35b610221600480360381019061021c919061351f565b611a9f565b005b61023d600480360381019061023891906135af565b611cc4565b005b610247611e91565b604051610254919061355b565b60405180910390f35b6102776004803603810190610272919061338d565b611eb7565b60405161028491906136fe565b60405180910390f35b6102a760048036038101906102a29190613720565b612271565b005b6102b16124fe565b6040516102be919061355b565b60405180910390f35b6102e160048036038101906102dc919061338d565b612524565b6040516102ee919061348c565b60405180910390f35b610311600480360381019061030c919061338d565b612598565b60405161031e91906136fe565b60405180910390f35b610341600480360381019061033c9190613760565b612696565b005b61035d60048036038101906103589190613720565b612855565b005b6103796004803603810190610374919061338d565b612b04565b604051610386919061348c565b60405180910390f35b610397612cb8565b6000600560003373ffffffffffffffffffffffffffffffffffffffff1673ffffffffffffffffffffffffffffffffffffffff168152602001908152602001600020905060008160020154148061043d57508473ffffffffffffffffffffffffffffffffffffffff168160010160009054906101000a900473ffffffffffffffffffffffffffffffffffffffff1673ffffffffffffffffffffffffffffffffffffffff1614155b15610474576040517fc945242d00000000000000000000000000000000000000000000000000000000815260040160405180910390fd5b80600201548411156104b2576040517f356680b700000000000000000000000000000000000000000000000000000000815260040160405180910390fd5b60008160050154421015905060008161051857846104fc576040517fc945242d00000000000000000000000000000000000000000000000000000000815260040160405180910390fd5b606460018761050b91906137cf565b6105159190613840565b90505b600081876105269190613871565b90508684600201600082825461053c9190613871565b925050819055506000600360003373ffffffffffffffffffffffffffffffffffffffff1673ffffffffffffffffffffffffffffffffffffffff168152602001908152602001600020905060005b8180549050811015610659578973ffffffffffffffffffffffffffffffffffffffff168282815481106105bf576105be6138a5565b5b906000526020600020906002020160000160009054906101000a900473ffffffffffffffffffffffffffffffffffffffff1673ffffffffffffffffffffffffffffffffffffffff160361064c57828282815481106106205761061f6138a5565b5b9060005260206000209060020201600101600082825461064091906138d4565b92505081905550610659565b8080600101915050610589565b50600083111561075a5760005b818054905081101561075857600160009054906101000a900473ffffffffffffffffffffffffffffffffffffffff1673ffffffffffffffffffffffffffffffffffffffff168282815481106106be576106bd6138a5565b5b906000526020600020906002020160000160009054906101000a900473ffffffffffffffffffffffffffffffffffffffff1673ffffffffffffffffffffffffffffffffffffffff160361074b578382828154811061071f5761071e6138a5565b5b9060005260206000209060020201600101600082825461073f91906138d4565b92505081905550610758565b8080600101915050610666565b505b600085600201540361080757600560003373ffffffffffffffffffffffffffffffffffffffff1673ffffffffffffffffffffffffffffffffffffffff1681526020019081526020016000206000808201600080820160006107bb9190613057565b50506001820160006101000a81549073ffffffffffffffffffffffffffffffffffffffff0219169055600282016000905560038201600090556004820160009055600582016000905550505b3373ffffffffffffffffffffffffffffffffffffffff167f1e6744cf99e958a70221fb97952f96f75e084ed8cf6e03d1e52de8edab644ca78985871560405161085293929190613917565b60405180910390a25050505050610867612cfe565b50505050565b600260009054906101000a900473ffffffffffffffffffffffffffffffffffffffff1673ffffffffffffffffffffffffffffffffffffffff163373ffffffffffffffffffffffffffffffffffffffff16146108f4576040517f5c427cd900000000000000000000000000000000000000000000000000000000815260040160405180910390fd5b6000600760008373ffffffffffffffffffffffffffffffffffffffff1673ffffffffffffffffffffffffffffffffffffffff168152602001908152602001600020905060008160010154148061094e575060008160020154145b156109595750610dce565b8060020154816003015461096d91906138d4565b42101561097a5750610dce565b6000600360008473ffffffffffffffffffffffffffffffffffffffff1673ffffffffffffffffffffffffffffffffffffffff16815260200190815260200160002090506000805b8280549050811015610aa1578360000160009054906101000a900473ffffffffffffffffffffffffffffffffffffffff1673ffffffffffffffffffffffffffffffffffffffff16838281548110610a1b57610a1a6138a5565b5b906000526020600020906002020160000160009054906101000a900473ffffffffffffffffffffffffffffffffffffffff1673ffffffffffffffffffffffffffffffffffffffff1603610a9457828181548110610a7b57610a7a6138a5565b5b9060005260206000209060020201600101549150610aa1565b80806001019150506109c1565b508260010154811015610ab657505050610dce565b60005b8280549050811015610bb1578360000160009054906101000a900473ffffffffffffffffffffffffffffffffffffffff1673ffffffffffffffffffffffffffffffffffffffff16838281548110610b1357610b126138a5565b5b906000526020600020906002020160000160009054906101000a900473ffffffffffffffffffffffffffffffffffffffff1673ffffffffffffffffffffffffffffffffffffffff1603610ba4578360010154838281548110610b7857610b776138a5565b5b90600052602060002090600202016001016000828254610b989190613871565b92505081905550610bb1565b8080600101915050610ab9565b506040518060c0016040528060405180602001604052806040518060400160405280600981526020017f4175746f6d61746564000000000000000000000000000000000000000000000081525081525081526020018460000160009054906101000a900473ffffffffffffffffffffffffffffffffffffffff1673ffffffffffffffffffffffffffffffffffffffff16815260200184600101548152602001600081526020014281526020016000815250600560008673ffffffffffffffffffffffffffffffffffffffff1673ffffffffffffffffffffffffffffffffffffffff1681526020019081526020016000206000820151816000016000820151816000019081610cbf9190613b65565b50505060208201518160010160006101000a81548173ffffffffffffffffffffffffffffffffffffffff021916908373ffffffffffffffffffffffffffffffffffffffff16021790555060408201518160020155606082015181600301556080820151816004015560a082015181600501559050504283600301819055508260000160009054906101000a900473ffffffffffffffffffffffffffffffffffffffff1673ffffffffffffffffffffffffffffffffffffffff168473ffffffffffffffffffffffffffffffffffffffff167f751ceaac5dfa620113dae99692e4bcc148db4733b03842d178484c50d980035c8560010154604051610dc2919061348c565b60405180910390a35050505b50565b600073ffffffffffffffffffffffffffffffffffffffff163373ffffffffffffffffffffffffffffffffffffffff1603610e37576040517f287170f900000000000000000000000000000000000000000000000000000000815260040160405180910390fd5b60008303610e71576040517f9cf8540c00000000000000000000000000000000000000000000000000000000815260040160405180910390fd5b600660008573ffffffffffffffffffffffffffffffffffffffff1673ffffffffffffffffffffffffffffffffffffffff16815260200190815260200160002060009054906101000a900460ff16610ef4576040517f1eb00b0600000000000000000000000000000000000000000000000000000000815260040160405180910390fd5b6000600360003373ffffffffffffffffffffffffffffffffffffffff1673ffffffffffffffffffffffffffffffffffffffff16815260200190815260200160002090506000805b8280549050811015610ff7578673ffffffffffffffffffffffffffffffffffffffff16838281548110610f7157610f706138a5565b5b906000526020600020906002020160000160009054906101000a900473ffffffffffffffffffffffffffffffffffffffff1673ffffffffffffffffffffffffffffffffffffffff1603610fea57828181548110610fd157610fd06138a5565b5b9060005260206000209060020201600101549150610ff7565b8080600101915050610f3b565b5084811015611032576040517f356680b700000000000000000000000000000000000000000000000000000000815260040160405180910390fd5b60005b8280549050811015611105578673ffffffffffffffffffffffffffffffffffffffff1683828154811061106b5761106a6138a5565b5b906000526020600020906002020160000160009054906101000a900473ffffffffffffffffffffffffffffffffffffffff1673ffffffffffffffffffffffffffffffffffffffff16036110f857858382815481106110cc576110cb6138a5565b5b906000526020600020906002020160010160008282546110ec9190613871565b92505081905550611105565b8080600101915050611035565b506040518060c0016040528060405180602001604052808681525081526020018773ffffffffffffffffffffffffffffffffffffffff168152602001868152602001858152602001428152602001854261115f91906138d4565b815250600560003373ffffffffffffffffffffffffffffffffffffffff1673ffffffffffffffffffffffffffffffffffffffff16815260200190815260200160002060008201518160000160008201518160000190816111bf9190613b65565b50505060208201518160010160006101000a81548173ffffffffffffffffffffffffffffffffffffffff021916908373ffffffffffffffffffffffffffffffffffffffff16021790555060408201518160020155606082015181600301556080820151816004015560a082015181600501559050508573ffffffffffffffffffffffffffffffffffffffff163373ffffffffffffffffffffffffffffffffffffffff167f3366ce755cd25539463e10c81609f7acf012fd288caed6c0f6494f6808268ce48787604051611293929190613c37565b60405180910390a3505050505050565b600073ffffffffffffffffffffffffffffffffffffffff163373ffffffffffffffffffffffffffffffffffffffff1603611309576040517f287170f900000000000000000000000000000000000000000000000000000000815260040160405180910390fd5b60008203611343576040517f9cf8540c00000000000000000000000000000000000000000000000000000000815260040160405180910390fd5b600660008273ffffffffffffffffffffffffffffffffffffffff1673ffffffffffffffffffffffffffffffffffffffff16815260200190815260200160002060009054906101000a900460ff166113c6576040517f1eb00b0600000000000000000000000000000000000000000000000000000000815260040160405180910390fd5b60008173ffffffffffffffffffffffffffffffffffffffff1663dd62ed3e33306040518363ffffffff1660e01b8152600401611403929190613c60565b602060405180830381865afa158015611420573d6000803e3d6000fd5b505050506040513d601f19601f820116820180604052508101906114449190613c9e565b905082811015611480576040517f13be252b00000000000000000000000000000000000000000000000000000000815260040160405180910390fd5b6114ad3330858573ffffffffffffffffffffffffffffffffffffffff16612d08909392919063ffffffff16565b600080600360003373ffffffffffffffffffffffffffffffffffffffff1673ffffffffffffffffffffffffffffffffffffffff168152602001908152602001600020905060005b81805490508110156115c8578473ffffffffffffffffffffffffffffffffffffffff1682828154811061152a576115296138a5565b5b906000526020600020906002020160000160009054906101000a900473ffffffffffffffffffffffffffffffffffffffff1673ffffffffffffffffffffffffffffffffffffffff16036115bb578582828154811061158b5761158a6138a5565b5b906000526020600020906002020160010160008282546115ab91906138d4565b92505081905550600192506115c8565b80806001019150506114f4565b50816116b557600360003373ffffffffffffffffffffffffffffffffffffffff1673ffffffffffffffffffffffffffffffffffffffff16815260200190815260200160002060405180604001604052808673ffffffffffffffffffffffffffffffffffffffff16815260200187815250908060018154018082558091505060019003906000526020600020906002020160009091909190915060008201518160000160006101000a81548173ffffffffffffffffffffffffffffffffffffffff021916908373ffffffffffffffffffffffffffffffffffffffff1602179055506020820151816001015550505b8373ffffffffffffffffffffffffffffffffffffffff163373ffffffffffffffffffffffffffffffffffffffff167f9ca48962abdef1f62fa7920028db6cba8d22078c8f24fa2c9d3738a7cebe7a8587604051611712919061348c565b60405180910390a35050505050565b6000600160009054906101000a900473ffffffffffffffffffffffffffffffffffffffff1673ffffffffffffffffffffffffffffffffffffffff163373ffffffffffffffffffffffffffffffffffffffff16146117aa576040517f30cd747100000000000000000000000000000000000000000000000000000000815260040160405180910390fd5b8173ffffffffffffffffffffffffffffffffffffffff166370a08231306040518263ffffffff1660e01b81526004016117e3919061355b565b602060405180830381865afa158015611800573d6000803e3d6000fd5b505050506040513d601f19601f820116820180604052508101906118249190613c9e565b9050919050565b600660008473ffffffffffffffffffffffffffffffffffffffff1673ffffffffffffffffffffffffffffffffffffffff16815260200190815260200160002060009054906101000a900460ff166118ae576040517f1eb00b0600000000000000000000000000000000000000000000000000000000815260040160405180910390fd5b60008214806118bd5750600081145b156118f4576040517f9cf8540c00000000000000000000000000000000000000000000000000000000815260040160405180910390fd5b60405180608001604052808473ffffffffffffffffffffffffffffffffffffffff16815260200183815260200182815260200142815250600760003373ffffffffffffffffffffffffffffffffffffffff1673ffffffffffffffffffffffffffffffffffffffff16815260200190815260200160002060008201518160000160006101000a81548173ffffffffffffffffffffffffffffffffffffffff021916908373ffffffffffffffffffffffffffffffffffffffff1602179055506020820151816001015560408201518160020155606082015181600301559050508273ffffffffffffffffffffffffffffffffffffffff163373ffffffffffffffffffffffffffffffffffffffff167fe26471f927db51b06840ef9087031a3f98a67ed7d41073b89827f7fd02e0a0018484604051611a31929190613c37565b60405180910390a3505050565b600060086000836002811115611a5757611a56613ccb565b5b6002811115611a6957611a68613ccb565b5b815260200190815260200160002060009054906101000a900473ffffffffffffffffffffffffffffffffffffffff169050919050565b600160009054906101000a900473ffffffffffffffffffffffffffffffffffffffff1673ffffffffffffffffffffffffffffffffffffffff163373ffffffffffffffffffffffffffffffffffffffff1614611b26576040517f30cd747100000000000000000000000000000000000000000000000000000000815260040160405180910390fd5b600060086000836002811115611b3f57611b3e613ccb565b5b6002811115611b5157611b50613ccb565b5b815260200190815260200160002060009054906101000a900473ffffffffffffffffffffffffffffffffffffffff169050600660008273ffffffffffffffffffffffffffffffffffffffff1673ffffffffffffffffffffffffffffffffffffffff16815260200190815260200160002060009054906101000a900460ff16611c0e576040517f08c379a0000000000000000000000000000000000000000000000000000000008152600401611c0590613d57565b60405180910390fd5b6000600660008373ffffffffffffffffffffffffffffffffffffffff1673ffffffffffffffffffffffffffffffffffffffff16815260200190815260200160002060006101000a81548160ff02191690831515021790555060086000836002811115611c7d57611c7c613ccb565b5b6002811115611c8f57611c8e613ccb565b5b815260200190815260200160002060006101000a81549073ffffffffffffffffffffffffffffffffffffffff02191690555050565b600660008473ffffffffffffffffffffffffffffffffffffffff1673ffffffffffffffffffffffffffffffffffffffff16815260200190815260200160002060009054906101000a900460ff16611d47576040517f1eb00b0600000000000000000000000000000000000000000000000000000000815260040160405180910390fd5b60008260ff161480611d5c575060648260ff16115b15611d93576040517f1f3b85d300000000000000000000000000000000000000000000000000000000815260040160405180910390fd5b60405180608001604052808473ffffffffffffffffffffffffffffffffffffffff168152602001600081526020018360ff16815260200182815250600960003373ffffffffffffffffffffffffffffffffffffffff1673ffffffffffffffffffffffffffffffffffffffff16815260200190815260200160002060008201518160000160006101000a81548173ffffffffffffffffffffffffffffffffffffffff021916908373ffffffffffffffffffffffffffffffffffffffff1602179055506020820151816001015560408201518160020160006101000a81548160ff021916908360ff16021790555060608201518160030155905050505050565b600260009054906101000a900473ffffffffffffffffffffffffffffffffffffffff1681565b60606000600360008473ffffffffffffffffffffffffffffffffffffffff1673ffffffffffffffffffffffffffffffffffffffff168152602001908152602001600020805480602002602001604051908101604052809291908181526020016000905b82821015611fac57838290600052602060002090600202016040518060400160405290816000820160009054906101000a900473ffffffffffffffffffffffffffffffffffffffff1673ffffffffffffffffffffffffffffffffffffffff1673ffffffffffffffffffffffffffffffffffffffff16815260200160018201548152505081526020019060010190611f1a565b5050505090506000815167ffffffffffffffff811115611fcf57611fce6131df565b5b60405190808252806020026020018201604052801561200857816020015b611ff5613097565b815260200190600190039081611fed5790505b5090506000805b83518110156121ba57600084828151811061202d5761202c6138a5565b5b60200260200101516020015190506000600560008973ffffffffffffffffffffffffffffffffffffffff1673ffffffffffffffffffffffffffffffffffffffff1681526020019081526020016000209050858381518110612091576120906138a5565b5b60200260200101516000015173ffffffffffffffffffffffffffffffffffffffff168160010160009054906101000a900473ffffffffffffffffffffffffffffffffffffffff1673ffffffffffffffffffffffffffffffffffffffff161480156120ff575060008160020154115b1561212c57806002015482106121265780600201548261211f9190613871565b915061212b565b600091505b5b60008211156121ab576040518060400160405280878581518110612153576121526138a5565b5b60200260200101516000015173ffffffffffffffffffffffffffffffffffffffff16815260200183815250858581518110612191576121906138a5565b5b602002602001018190525083806121a790613d77565b9450505b5050808060010191505061200f565b5060008167ffffffffffffffff8111156121d7576121d66131df565b5b60405190808252806020026020018201604052801561221057816020015b6121fd613097565b8152602001906001900390816121f55790505b50905060005b8281101561226457838181518110612231576122306138a5565b5b602002602001015182828151811061224c5761224b6138a5565b5b60200260200101819052508080600101915050612216565b5080945050505050919050565b612279612cb8565b600081036122b3576040517f9cf8540c00000000000000000000000000000000000000000000000000000000815260040160405180910390fd5b600660008373ffffffffffffffffffffffffffffffffffffffff1673ffffffffffffffffffffffffffffffffffffffff16815260200190815260200160002060009054906101000a900460ff16612336576040517f1eb00b0600000000000000000000000000000000000000000000000000000000815260040160405180910390fd5b6000600960003373ffffffffffffffffffffffffffffffffffffffff1673ffffffffffffffffffffffffffffffffffffffff16815260200190815260200160002090508273ffffffffffffffffffffffffffffffffffffffff168160000160009054906101000a900473ffffffffffffffffffffffffffffffffffffffff1673ffffffffffffffffffffffffffffffffffffffff1614612402576040517f1eb00b0600000000000000000000000000000000000000000000000000000000815260040160405180910390fd5b600060648260020160009054906101000a900460ff1660ff168461242691906137cf565b6124309190613840565b905060008111156124f05761244581856112a3565b61248a848284600301546040518060400160405280600c81526020017f7370656e64416e64536176650000000000000000000000000000000000000000815250610dd1565b8373ffffffffffffffffffffffffffffffffffffffff163373ffffffffffffffffffffffffffffffffffffffff167f3b118dd1d3abd7bc664ff130e14fa3d2bdb4a556f758c5247ddd0f7f1bf25444836040516124e7919061348c565b60405180910390a35b50506124fa612cfe565b5050565b600160009054906101000a900473ffffffffffffffffffffffffffffffffffffffff1681565b600080600090506000600560008573ffffffffffffffffffffffffffffffffffffffff1673ffffffffffffffffffffffffffffffffffffffff168152602001908152602001600020905060008160020154111561258e5780600201548261258b91906138d4565b91505b8192505050919050565b6060600360008373ffffffffffffffffffffffffffffffffffffffff1673ffffffffffffffffffffffffffffffffffffffff168152602001908152602001600020805480602002602001604051908101604052809291908181526020016000905b8282101561268b57838290600052602060002090600202016040518060400160405290816000820160009054906101000a900473ffffffffffffffffffffffffffffffffffffffff1673ffffffffffffffffffffffffffffffffffffffff1673ffffffffffffffffffffffffffffffffffffffff168152602001600182015481525050815260200190600101906125f9565b505050509050919050565b600160009054906101000a900473ffffffffffffffffffffffffffffffffffffffff1673ffffffffffffffffffffffffffffffffffffffff163373ffffffffffffffffffffffffffffffffffffffff161461271d576040517f30cd747100000000000000000000000000000000000000000000000000000000815260040160405180910390fd5b600073ffffffffffffffffffffffffffffffffffffffff168273ffffffffffffffffffffffffffffffffffffffff1614612783576040517f1eb00b0600000000000000000000000000000000000000000000000000000000815260040160405180910390fd5b6001600660008473ffffffffffffffffffffffffffffffffffffffff1673ffffffffffffffffffffffffffffffffffffffff16815260200190815260200160002060006101000a81548160ff02191690831515021790555081600860008360028111156127f3576127f2613ccb565b5b600281111561280557612804613ccb565b5b815260200190815260200160002060006101000a81548173ffffffffffffffffffffffffffffffffffffffff021916908373ffffffffffffffffffffffffffffffffffffffff1602179055505050565b61285d612cb8565b60008103612897576040517f9cf8540c00000000000000000000000000000000000000000000000000000000815260040160405180910390fd5b6000600360003373ffffffffffffffffffffffffffffffffffffffff1673ffffffffffffffffffffffffffffffffffffffff168152602001908152602001600020905060008060005b8380549050811015612a39578573ffffffffffffffffffffffffffffffffffffffff16848281548110612916576129156138a5565b5b906000526020600020906002020160000160009054906101000a900473ffffffffffffffffffffffffffffffffffffffff1673ffffffffffffffffffffffffffffffffffffffff1603612a2c5784848281548110612977576129766138a5565b5b90600052602060002090600202016001015410156129c1576040517f356680b700000000000000000000000000000000000000000000000000000000815260040160405180910390fd5b8381815481106129d4576129d36138a5565b5b9060005260206000209060020201600101549250848482815481106129fc576129fb6138a5565b5b90600052602060002090600202016001016000828254612a1c9190613871565b9250508190555060019150612a39565b80806001019150506128e0565b5080612a7a576040517f08c379a0000000000000000000000000000000000000000000000000000000008152600401612a7190613e31565b60405180910390fd5b612aa533858773ffffffffffffffffffffffffffffffffffffffff16612d8a9092919063ffffffff16565b3373ffffffffffffffffffffffffffffffffffffffff167fd1c19fbcd4551a5edfb66d43d2e337c04837afda3482b42bdf569a8fccdae5fb8686604051612aed929190613e51565b60405180910390a2505050612b00612cfe565b5050565b600080600090506000600360008573ffffffffffffffffffffffffffffffffffffffff1673ffffffffffffffffffffffffffffffffffffffff168152602001908152602001600020805480602002602001604051908101604052809291908181526020016000905b82821015612bfe57838290600052602060002090600202016040518060400160405290816000820160009054906101000a900473ffffffffffffffffffffffffffffffffffffffff1673ffffffffffffffffffffffffffffffffffffffff1673ffffffffffffffffffffffffffffffffffffffff16815260200160018201548152505081526020019060010190612b6c565b50505050905060005b8151811015612c4957818181518110612c2357612c226138a5565b5b60200260200101516020015183612c3a91906138d4565b92508080600101915050612c07565b506000600560008673ffffffffffffffffffffffffffffffffffffffff1673ffffffffffffffffffffffffffffffffffffffff1681526020019081526020016000209050600081600201541115612cad57806002015483612caa9190613871565b92505b829350505050919050565b600260005403612cf4576040517f3ee5aeb500000000000000000000000000000000000000000000000000000000815260040160405180910390fd5b6002600081905550565b6001600081905550565b612d84848573ffffffffffffffffffffffffffffffffffffffff166323b872dd868686604051602401612d3d93929190613e7a565b604051602081830303815290604052915060e01b6020820180517bffffffffffffffffffffffffffffffffffffffffffffffffffffffff8381831617835250505050612e09565b50505050565b612e04838473ffffffffffffffffffffffffffffffffffffffff1663a9059cbb8585604051602401612dbd929190613e51565b604051602081830303815290604052915060e01b6020820180517bffffffffffffffffffffffffffffffffffffffffffffffffffffffff8381831617835250505050612e09565b505050565b6000612e34828473ffffffffffffffffffffffffffffffffffffffff16612ea090919063ffffffff16565b90506000815114158015612e59575080806020019051810190612e579190613ec6565b155b15612e9b57826040517f5274afe7000000000000000000000000000000000000000000000000000000008152600401612e92919061355b565b60405180910390fd5b505050565b6060612eae83836000612eb6565b905092915050565b606081471015612efd57306040517fcd786059000000000000000000000000000000000000000000000000000000008152600401612ef4919061355b565b60405180910390fd5b6000808573ffffffffffffffffffffffffffffffffffffffff168486604051612f269190613f64565b60006040518083038185875af1925050503d8060008114612f63576040519150601f19603f3d011682016040523d82523d6000602084013e612f68565b606091505b5091509150612f78868383612f83565b925050509392505050565b606082612f9857612f9382613012565b61300a565b60008251148015612fc0575060008473ffffffffffffffffffffffffffffffffffffffff163b145b1561300257836040517f9996b315000000000000000000000000000000000000000000000000000000008152600401612ff9919061355b565b60405180910390fd5b81905061300b565b5b9392505050565b6000815111156130255780518082602001fd5b6040517f1425ea4200000000000000000000000000000000000000000000000000000000815260040160405180910390fd5b50805461306390613988565b6000825580601f106130755750613094565b601f01602090049060005260206000209081019061309391906130c7565b5b50565b6040518060400160405280600073ffffffffffffffffffffffffffffffffffffffff168152602001600081525090565b5b808211156130e05760008160009055506001016130c8565b5090565b6000604051905090565b600080fd5b600080fd5b600073ffffffffffffffffffffffffffffffffffffffff82169050919050565b6000613123826130f8565b9050919050565b61313381613118565b811461313e57600080fd5b50565b6000813590506131508161312a565b92915050565b6000819050919050565b61316981613156565b811461317457600080fd5b50565b60008135905061318681613160565b92915050565b60008115159050919050565b6131a18161318c565b81146131ac57600080fd5b50565b6000813590506131be81613198565b92915050565b600080fd5b600080fd5b6000601f19601f8301169050919050565b7f4e487b7100000000000000000000000000000000000000000000000000000000600052604160045260246000fd5b613217826131ce565b810181811067ffffffffffffffff82111715613236576132356131df565b5b80604052505050565b60006132496130e4565b9050613255828261320e565b919050565b600067ffffffffffffffff821115613275576132746131df565b5b61327e826131ce565b9050602081019050919050565b82818337600083830152505050565b60006132ad6132a88461325a565b61323f565b9050828152602081018484840111156132c9576132c86131c9565b5b6132d484828561328b565b509392505050565b600082601f8301126132f1576132f06131c4565b5b813561330184826020860161329a565b91505092915050565b60008060008060808587031215613324576133236130ee565b5b600061333287828801613141565b945050602061334387828801613177565b9350506040613354878288016131af565b925050606085013567ffffffffffffffff811115613375576133746130f3565b5b613381878288016132dc565b91505092959194509250565b6000602082840312156133a3576133a26130ee565b5b60006133b184828501613141565b91505092915050565b600080600080608085870312156133d4576133d36130ee565b5b60006133e287828801613141565b94505060206133f387828801613177565b935050604061340487828801613177565b925050606085013567ffffffffffffffff811115613425576134246130f3565b5b613431878288016132dc565b91505092959194509250565b60008060408385031215613454576134536130ee565b5b600061346285828601613177565b925050602061347385828601613141565b9150509250929050565b61348681613156565b82525050565b60006020820190506134a1600083018461347d565b92915050565b6000806000606084860312156134c0576134bf6130ee565b5b60006134ce86828701613141565b93505060206134df86828701613177565b92505060406134f086828701613177565b9150509250925092565b6003811061350757600080fd5b50565b600081359050613519816134fa565b92915050565b600060208284031215613535576135346130ee565b5b60006135438482850161350a565b91505092915050565b61355581613118565b82525050565b6000602082019050613570600083018461354c565b92915050565b600060ff82169050919050565b61358c81613576565b811461359757600080fd5b50565b6000813590506135a981613583565b92915050565b6000806000606084860312156135c8576135c76130ee565b5b60006135d686828701613141565b93505060206135e78682870161359a565b92505060406135f886828701613177565b9150509250925092565b600081519050919050565b600082825260208201905092915050565b6000819050602082019050919050565b61363781613118565b82525050565b61364681613156565b82525050565b604082016000820151613662600085018261362e565b506020820151613675602085018261363d565b50505050565b6000613687838361364c565b60408301905092915050565b6000602082019050919050565b60006136ab82613602565b6136b5818561360d565b93506136c08361361e565b8060005b838110156136f15781516136d8888261367b565b97506136e383613693565b9250506001810190506136c4565b5085935050505092915050565b6000602082019050818103600083015261371881846136a0565b905092915050565b60008060408385031215613737576137366130ee565b5b600061374585828601613141565b925050602061375685828601613177565b9150509250929050565b60008060408385031215613777576137766130ee565b5b600061378585828601613141565b92505060206137968582860161350a565b9150509250929050565b7f4e487b7100000000000000000000000000000000000000000000000000000000600052601160045260246000fd5b60006137da82613156565b91506137e583613156565b92508282026137f381613156565b9150828204841483151761380a576138096137a0565b5b5092915050565b7f4e487b7100000000000000000000000000000000000000000000000000000000600052601260045260246000fd5b600061384b82613156565b915061385683613156565b92508261386657613865613811565b5b828204905092915050565b600061387c82613156565b915061388783613156565b925082820390508181111561389f5761389e6137a0565b5b92915050565b7f4e487b7100000000000000000000000000000000000000000000000000000000600052603260045260246000fd5b60006138df82613156565b91506138ea83613156565b9250828201905080821115613902576139016137a0565b5b92915050565b6139118161318c565b82525050565b600060608201905061392c600083018661347d565b613939602083018561347d565b6139466040830184613908565b949350505050565b600081519050919050565b7f4e487b7100000000000000000000000000000000000000000000000000000000600052602260045260246000fd5b600060028204905060018216806139a057607f821691505b6020821081036139b3576139b2613959565b5b50919050565b60008190508160005260206000209050919050565b60006020601f8301049050919050565b600082821b905092915050565b600060088302613a1b7fffffffffffffffffffffffffffffffffffffffffffffffffffffffffffffffff826139de565b613a2586836139de565b95508019841693508086168417925050509392505050565b6000819050919050565b6000613a62613a5d613a5884613156565b613a3d565b613156565b9050919050565b6000819050919050565b613a7c83613a47565b613a90613a8882613a69565b8484546139eb565b825550505050565b600090565b613aa5613a98565b613ab0818484613a73565b505050565b5b81811015613ad457613ac9600082613a9d565b600181019050613ab6565b5050565b601f821115613b1957613aea816139b9565b613af3846139ce565b81016020851015613b02578190505b613b16613b0e856139ce565b830182613ab5565b50505b505050565b600082821c905092915050565b6000613b3c60001984600802613b1e565b1980831691505092915050565b6000613b558383613b2b565b9150826002028217905092915050565b613b6e8261394e565b67ffffffffffffffff811115613b8757613b866131df565b5b613b918254613988565b613b9c828285613ad8565b600060209050601f831160018114613bcf5760008415613bbd578287015190505b613bc78582613b49565b865550613c2f565b601f198416613bdd866139b9565b60005b82811015613c0557848901518255600182019150602085019450602081019050613be0565b86831015613c225784890151613c1e601f891682613b2b565b8355505b6001600288020188555050505b505050505050565b6000604082019050613c4c600083018561347d565b613c59602083018461347d565b9392505050565b6000604082019050613c75600083018561354c565b613c82602083018461354c565b9392505050565b600081519050613c9881613160565b92915050565b600060208284031215613cb457613cb36130ee565b5b6000613cc284828501613c89565b91505092915050565b7f4e487b7100000000000000000000000000000000000000000000000000000000600052602160045260246000fd5b600082825260208201905092915050565b7f546f6b656e206973206e6f742061636365707465640000000000000000000000600082015250565b6000613d41601583613cfa565b9150613d4c82613d0b565b602082019050919050565b60006020820190508181036000830152613d7081613d34565b9050919050565b6000613d8282613156565b91507fffffffffffffffffffffffffffffffffffffffffffffffffffffffffffffffff8203613db457613db36137a0565b5b600182019050919050565b7f546f6b656e206e6f7420666f756e6420696e20757365722773206465706f736960008201527f7473000000000000000000000000000000000000000000000000000000000000602082015250565b6000613e1b602283613cfa565b9150613e2682613dbf565b604082019050919050565b60006020820190508181036000830152613e4a81613e0e565b9050919050565b6000604082019050613e66600083018561354c565b613e73602083018461347d565b9392505050565b6000606082019050613e8f600083018661354c565b613e9c602083018561354c565b613ea9604083018461347d565b949350505050565b600081519050613ec081613198565b92915050565b600060208284031215613edc57613edb6130ee565b5b6000613eea84828501613eb1565b91505092915050565b600081519050919050565b600081905092915050565b60005b83811015613f27578082015181840152602081019050613f0c565b60008484015250505050565b6000613f3e82613ef3565b613f488185613efe565b9350613f58818560208601613f09565b80840191505092915050565b6000613f708284613f33565b91508190509291505056fea2646970667358221220f5a419aa2e2a56ffc449a20260d3e1c4d6b40a56eed7ad308125f33fe46e0e6a64736f6c63430008180033",
  "linkReferences": {},
  "deployedLinkReferences": {}
}