{
  "_format": "hh-sol-artifact-1",
  "contractName": "TokenFaucet",
  "sourceName": "contracts/Faucet.sol",
  "abi": [
    {
      "inputs": [
        {
          "internalType": "address",
          "name": "_tokenAddress",
          "type": "address"
        }
      ],
      "stateMutability": "nonpayable",
      "type": "constructor"
    },
    {
      "inputs": [
        {
          "internalType": "uint256",
          "name": "timeRemaining",
          "type": "uint256"
        }
      ],
      "name": "ClaimTooSoon",
      "type": "error"
    },
    {
      "inputs": [
        {
          "internalType": "uint256",
          "name": "faucetBalance",
          "type": "uint256"
        },
        {
          "internalType": "uint256",
          "name": "requestedAmount",
          "type": "uint256"
        }
      ],
      "name": "InsufficientFaucetBalance",
      "type": "error"
    },
    {
      "inputs": [],
      "name": "ZeroAddress",
      "type": "error"
    },
    {
      "anonymous": false,
      "inputs": [
        {
          "indexed": true,
          "internalType": "address",
          "name": "user",
          "type": "address"
        },
        {
          "indexed": false,
          "internalType": "uint256",
          "name": "amount",
          "type": "uint256"
        }
      ],
      "name": "TokensClaimed",
      "type": "event"
    },
    {
      "inputs": [],
      "name": "CLAIM_AMOUNT",
      "outputs": [
        {
          "internalType": "uint256",
          "name": "",
          "type": "uint256"
        }
      ],
      "stateMutability": "view",
      "type": "function"
    },
    {
      "inputs": [],
      "name": "CLAIM_INTERVAL",
      "outputs": [
        {
          "internalType": "uint256",
          "name": "",
          "type": "uint256"
        }
      ],
      "stateMutability": "view",
      "type": "function"
    },
    {
      "inputs": [],
      "name": "claim",
      "outputs": [],
      "stateMutability": "nonpayable",
      "type": "function"
    },
    {
      "inputs": [],
      "name": "getContractBalance",
      "outputs": [
        {
          "internalType": "uint256",
          "name": "",
          "type": "uint256"
        }
      ],
      "stateMutability": "view",
      "type": "function"
    },
    {
      "inputs": [
        {
          "internalType": "address",
          "name": "_user",
          "type": "address"
        }
      ],
      "name": "getNextClaimTime",
      "outputs": [
        {
          "internalType": "uint256",
          "name": "",
          "type": "uint256"
        }
      ],
      "stateMutability": "view",
      "type": "function"
    },
    {
      "inputs": [],
      "name": "getUserBalance",
      "outputs": [
        {
          "internalType": "uint256",
          "name": "",
          "type": "uint256"
        }
      ],
      "stateMutability": "view",
      "type": "function"
    },
    {
      "inputs": [
        {
          "internalType": "address",
          "name": "",
          "type": "address"
        }
      ],
      "name": "lastClaimTime",
      "outputs": [
        {
          "internalType": "uint256",
          "name": "",
          "type": "uint256"
        }
      ],
      "stateMutability": "view",
      "type": "function"
    },
    {
      "inputs": [],
      "name": "token",
      "outputs": [
        {
          "internalType": "contract IERC20",
          "name": "",
          "type": "address"
        }
      ],
      "stateMutability": "view",
      "type": "function"
    },
    {
      "inputs": [
        {
          "internalType": "address",
          "name": "_to",
          "type": "address"
        }
      ],
      "name": "withdrawRemainingTokens",
      "outputs": [],
      "stateMutability": "nonpayable",
      "type": "function"
    }
  ],
  "bytecode": "0x608060405234801561001057600080fd5b50604051610f3d380380610f3d83398181016040528101906100329190610182565b600073ffffffffffffffffffffffffffffffffffffffff168173ffffffffffffffffffffffffffffffffffffffff1603610098576040517fd92e233d00000000000000000000000000000000000000000000000000000000815260040160405180910390fd5b806000806101000a81548173ffffffffffffffffffffffffffffffffffffffff021916908373ffffffffffffffffffffffffffffffffffffffff16021790555033600160006101000a81548173ffffffffffffffffffffffffffffffffffffffff021916908373ffffffffffffffffffffffffffffffffffffffff160217905550506101af565b600080fd5b600073ffffffffffffffffffffffffffffffffffffffff82169050919050565b600061014f82610124565b9050919050565b61015f81610144565b811461016a57600080fd5b50565b60008151905061017c81610156565b92915050565b6000602082840312156101985761019761011f565b5b60006101a68482850161016d565b91505092915050565b610d7f806101be6000396000f3fe608060405234801561001057600080fd5b50600436106100935760003560e01c80636f9fb98a116100665780636f9fb98a146100fa57806393c30c0f14610118578063b7013dc114610148578063b77cf9c614610166578063fc0c546a1461019657610093565b8063270ef3851461009857806349d3a0c1146100b65780634e71d92d146100d45780635affbd97146100de575b600080fd5b6100a06101b4565b6040516100ad91906109d6565b60405180910390f35b6100be6101c1565b6040516100cb91906109d6565b60405180910390f35b6100dc6101c8565b005b6100f860048036038101906100f39190610a54565b61054d565b005b61010261078d565b60405161010f91906109d6565b60405180910390f35b610132600480360381019061012d9190610a54565b61082f565b60405161013f91906109d6565b60405180910390f35b610150610886565b60405161015d91906109d6565b60405180910390f35b610180600480360381019061017b9190610a54565b610981565b60405161018d91906109d6565b60405180910390f35b61019e610999565b6040516101ab9190610ae0565b60405180910390f35b6803cb71f51fc558000081565b6201518081565b600073ffffffffffffffffffffffffffffffffffffffff163373ffffffffffffffffffffffffffffffffffffffff160361022e576040517fd92e233d00000000000000000000000000000000000000000000000000000000815260040160405180910390fd5b600062015180600260003373ffffffffffffffffffffffffffffffffffffffff1673ffffffffffffffffffffffffffffffffffffffff1681526020019081526020016000205461027e9190610b2a565b9050804210156102d05742816102949190610b5e565b6040517f854f3dd00000000000000000000000000000000000000000000000000000000081526004016102c791906109d6565b60405180910390fd5b60008060009054906101000a900473ffffffffffffffffffffffffffffffffffffffff1673ffffffffffffffffffffffffffffffffffffffff166370a08231306040518263ffffffff1660e01b815260040161032c9190610ba1565b602060405180830381865afa158015610349573d6000803e3d6000fd5b505050506040513d601f19601f8201168201806040525081019061036d9190610be8565b90506803cb71f51fc55800008110156103c857806803cb71f51fc55800006040517fcdeba2940000000000000000000000000000000000000000000000000000000081526004016103bf929190610c15565b60405180910390fd5b42600260003373ffffffffffffffffffffffffffffffffffffffff1673ffffffffffffffffffffffffffffffffffffffff1681526020019081526020016000208190555060008054906101000a900473ffffffffffffffffffffffffffffffffffffffff1673ffffffffffffffffffffffffffffffffffffffff1663a9059cbb336803cb71f51fc55800006040518363ffffffff1660e01b8152600401610470929190610c3e565b6020604051808303816000875af115801561048f573d6000803e3d6000fd5b505050506040513d601f19601f820116820180604052508101906104b39190610c9f565b6104f2576040517f08c379a00000000000000000000000000000000000000000000000000000000081526004016104e990610d29565b60405180910390fd5b3373ffffffffffffffffffffffffffffffffffffffff167f896e034966eaaf1adc54acc0f257056febbd300c9e47182cf761982cf1f5e4306803cb71f51fc558000060405161054191906109d6565b60405180910390a25050565b600160009054906101000a900473ffffffffffffffffffffffffffffffffffffffff1673ffffffffffffffffffffffffffffffffffffffff163373ffffffffffffffffffffffffffffffffffffffff16146105a757600080fd5b600073ffffffffffffffffffffffffffffffffffffffff168173ffffffffffffffffffffffffffffffffffffffff160361060d576040517fd92e233d00000000000000000000000000000000000000000000000000000000815260040160405180910390fd5b60008060009054906101000a900473ffffffffffffffffffffffffffffffffffffffff1673ffffffffffffffffffffffffffffffffffffffff166370a08231306040518263ffffffff1660e01b81526004016106699190610ba1565b602060405180830381865afa158015610686573d6000803e3d6000fd5b505050506040513d601f19601f820116820180604052508101906106aa9190610be8565b905060008054906101000a900473ffffffffffffffffffffffffffffffffffffffff1673ffffffffffffffffffffffffffffffffffffffff1663a9059cbb83836040518363ffffffff1660e01b8152600401610707929190610c3e565b6020604051808303816000875af1158015610726573d6000803e3d6000fd5b505050506040513d601f19601f8201168201806040525081019061074a9190610c9f565b610789576040517f08c379a000000000000000000000000000000000000000000000000000000000815260040161078090610d29565b60405180910390fd5b5050565b60008060009054906101000a900473ffffffffffffffffffffffffffffffffffffffff1673ffffffffffffffffffffffffffffffffffffffff166370a08231306040518263ffffffff1660e01b81526004016107e99190610ba1565b602060405180830381865afa158015610806573d6000803e3d6000fd5b505050506040513d601f19601f8201168201806040525081019061082a9190610be8565b905090565b600062015180600260008473ffffffffffffffffffffffffffffffffffffffff1673ffffffffffffffffffffffffffffffffffffffff1681526020019081526020016000205461087f9190610b2a565b9050919050565b6000600160009054906101000a900473ffffffffffffffffffffffffffffffffffffffff1673ffffffffffffffffffffffffffffffffffffffff163373ffffffffffffffffffffffffffffffffffffffff16146108e257600080fd5b60008054906101000a900473ffffffffffffffffffffffffffffffffffffffff1673ffffffffffffffffffffffffffffffffffffffff166370a08231336040518263ffffffff1660e01b815260040161093b9190610ba1565b602060405180830381865afa158015610958573d6000803e3d6000fd5b505050506040513d601f19601f8201168201806040525081019061097c9190610be8565b905090565b60026020528060005260406000206000915090505481565b60008054906101000a900473ffffffffffffffffffffffffffffffffffffffff1681565b6000819050919050565b6109d0816109bd565b82525050565b60006020820190506109eb60008301846109c7565b92915050565b600080fd5b600073ffffffffffffffffffffffffffffffffffffffff82169050919050565b6000610a21826109f6565b9050919050565b610a3181610a16565b8114610a3c57600080fd5b50565b600081359050610a4e81610a28565b92915050565b600060208284031215610a6a57610a696109f1565b5b6000610a7884828501610a3f565b91505092915050565b6000819050919050565b6000610aa6610aa1610a9c846109f6565b610a81565b6109f6565b9050919050565b6000610ab882610a8b565b9050919050565b6000610aca82610aad565b9050919050565b610ada81610abf565b82525050565b6000602082019050610af56000830184610ad1565b92915050565b7f4e487b7100000000000000000000000000000000000000000000000000000000600052601160045260246000fd5b6000610b35826109bd565b9150610b40836109bd565b9250828201905080821115610b5857610b57610afb565b5b92915050565b6000610b69826109bd565b9150610b74836109bd565b9250828203905081811115610b8c57610b8b610afb565b5b92915050565b610b9b81610a16565b82525050565b6000602082019050610bb66000830184610b92565b92915050565b610bc5816109bd565b8114610bd057600080fd5b50565b600081519050610be281610bbc565b92915050565b600060208284031215610bfe57610bfd6109f1565b5b6000610c0c84828501610bd3565b91505092915050565b6000604082019050610c2a60008301856109c7565b610c3760208301846109c7565b9392505050565b6000604082019050610c536000830185610b92565b610c6060208301846109c7565b9392505050565b60008115159050919050565b610c7c81610c67565b8114610c8757600080fd5b50565b600081519050610c9981610c73565b92915050565b600060208284031215610cb557610cb46109f1565b5b6000610cc384828501610c8a565b91505092915050565b600082825260208201905092915050565b7f546f6b656e207472616e73666572206661696c65640000000000000000000000600082015250565b6000610d13601583610ccc565b9150610d1e82610cdd565b602082019050919050565b60006020820190508181036000830152610d4281610d06565b905091905056fea264697066735822122046fb8f5e820fce2ac48639fb6aa156e875f95724953fd49c4605959b210d187d64736f6c63430008180033",
  "linkReferences": {},
  "deployedLinkReferences": {}
}