{
  "_format": "hh-sol-artifact-1",
  "contractName": "TokenFaucet",
  "sourceName": "contracts/Faucet.sol",
  "abi": [
    {
      "inputs": [
        {
          "internalType": "address",
          "name": "_safuTokenAddress",
          "type": "address"
        },
        {
          "internalType": "address",
          "name": "_usdTokenAddress",
          "type": "address"
        },
        {
          "internalType": "address",
          "name": "_lskTokenAddress",
          "type": "address"
        },
        {
          "internalType": "address",
          "name": "_trustedRelayer",
          "type": "address"
        }
      ],
      "stateMutability": "nonpayable",
      "type": "constructor"
    },
    {
      "inputs": [
        {
          "internalType": "address",
          "name": "target",
          "type": "address"
        }
      ],
      "name": "AddressEmptyCode",
      "type": "error"
    },
    {
      "inputs": [
        {
          "internalType": "address",
          "name": "account",
          "type": "address"
        }
      ],
      "name": "AddressInsufficientBalance",
      "type": "error"
    },
    {
      "inputs": [
        {
          "internalType": "uint256",
          "name": "timeRemaining",
          "type": "uint256"
        }
      ],
      "name": "ClaimTooSoon",
      "type": "error"
    },
    {
      "inputs": [],
      "name": "FailedInnerCall",
      "type": "error"
    },
    {
      "inputs": [
        {
          "internalType": "uint256",
          "name": "faucetBalance",
          "type": "uint256"
        },
        {
          "internalType": "uint256",
          "name": "requestedAmount",
          "type": "uint256"
        }
      ],
      "name": "InsufficientFaucetBalance",
      "type": "error"
    },
    {
      "inputs": [
        {
          "internalType": "address",
          "name": "token",
          "type": "address"
        }
      ],
      "name": "SafeERC20FailedOperation",
      "type": "error"
    },
    {
      "inputs": [],
      "name": "ZeroAddress",
      "type": "error"
    },
    {
      "anonymous": false,
      "inputs": [
        {
          "indexed": true,
          "internalType": "address",
          "name": "user",
          "type": "address"
        }
      ],
      "name": "TokensClaimed",
      "type": "event"
    },
    {
      "inputs": [],
      "name": "CLAIM_INTERVAL",
      "outputs": [
        {
          "internalType": "uint256",
          "name": "",
          "type": "uint256"
        }
      ],
      "stateMutability": "view",
      "type": "function"
    },
    {
      "inputs": [
        {
          "internalType": "address",
          "name": "_to",
          "type": "address"
        }
      ],
      "name": "drip",
      "outputs": [],
      "stateMutability": "nonpayable",
      "type": "function"
    },
    {
      "inputs": [],
      "name": "getContractBalances",
      "outputs": [
        {
          "internalType": "uint256",
          "name": "",
          "type": "uint256"
        },
        {
          "internalType": "uint256",
          "name": "",
          "type": "uint256"
        },
        {
          "internalType": "uint256",
          "name": "",
          "type": "uint256"
        }
      ],
      "stateMutability": "view",
      "type": "function"
    },
    {
      "inputs": [
        {
          "internalType": "address",
          "name": "_user",
          "type": "address"
        }
      ],
      "name": "getNextClaimTime",
      "outputs": [
        {
          "internalType": "uint256",
          "name": "",
          "type": "uint256"
        }
      ],
      "stateMutability": "view",
      "type": "function"
    },
    {
      "inputs": [],
      "name": "getUserBalance",
      "outputs": [
        {
          "internalType": "uint256",
          "name": "",
          "type": "uint256"
        }
      ],
      "stateMutability": "view",
      "type": "function"
    },
    {
      "inputs": [
        {
          "internalType": "address",
          "name": "",
          "type": "address"
        }
      ],
      "name": "lastClaimTime",
      "outputs": [
        {
          "internalType": "uint256",
          "name": "",
          "type": "uint256"
        }
      ],
      "stateMutability": "view",
      "type": "function"
    },
    {
      "inputs": [],
      "name": "lskClaimAmount",
      "outputs": [
        {
          "internalType": "uint256",
          "name": "",
          "type": "uint256"
        }
      ],
      "stateMutability": "view",
      "type": "function"
    },
    {
      "inputs": [],
      "name": "lskToken",
      "outputs": [
        {
          "internalType": "contract IERC20",
          "name": "",
          "type": "address"
        }
      ],
      "stateMutability": "view",
      "type": "function"
    },
    {
      "inputs": [],
      "name": "safuClaimAmount",
      "outputs": [
        {
          "internalType": "uint256",
          "name": "",
          "type": "uint256"
        }
      ],
      "stateMutability": "view",
      "type": "function"
    },
    {
      "inputs": [],
      "name": "safuToken",
      "outputs": [
        {
          "internalType": "contract IERC20",
          "name": "",
          "type": "address"
        }
      ],
      "stateMutability": "view",
      "type": "function"
    },
    {
      "inputs": [
        {
          "internalType": "uint256",
          "name": "_newSafuAmount",
          "type": "uint256"
        },
        {
          "internalType": "uint256",
          "name": "_newUsdAmount",
          "type": "uint256"
        },
        {
          "internalType": "uint256",
          "name": "_newLskAmount",
          "type": "uint256"
        }
      ],
      "name": "updateClaimAmounts",
      "outputs": [],
      "stateMutability": "nonpayable",
      "type": "function"
    },
    {
      "inputs": [],
      "name": "usdClaimAmount",
      "outputs": [
        {
          "internalType": "uint256",
          "name": "",
          "type": "uint256"
        }
      ],
      "stateMutability": "view",
      "type": "function"
    },
    {
      "inputs": [],
      "name": "usdToken",
      "outputs": [
        {
          "internalType": "contract IERC20",
          "name": "",
          "type": "address"
        }
      ],
      "stateMutability": "view",
      "type": "function"
    },
    {
      "inputs": [
        {
          "internalType": "address",
          "name": "_to",
          "type": "address"
        },
        {
          "internalType": "address",
          "name": "_token",
          "type": "address"
        }
      ],
      "name": "withdrawRemainingTokens",
      "outputs": [],
      "stateMutability": "nonpayable",
      "type": "function"
    }
  ],
  "bytecode": "0x60806040526803cb71f51fc5580000600355674563918244f400006004556801a055690d9db800006005553480156200003757600080fd5b5060405162001b0538038062001b0583398181016040528101906200005d91906200034a565b600073ffffffffffffffffffffffffffffffffffffffff168473ffffffffffffffffffffffffffffffffffffffff1603620000c4576040517fd92e233d00000000000000000000000000000000000000000000000000000000815260040160405180910390fd5b600073ffffffffffffffffffffffffffffffffffffffff168373ffffffffffffffffffffffffffffffffffffffff16036200012b576040517fd92e233d00000000000000000000000000000000000000000000000000000000815260040160405180910390fd5b600073ffffffffffffffffffffffffffffffffffffffff168273ffffffffffffffffffffffffffffffffffffffff160362000192576040517fd92e233d00000000000000000000000000000000000000000000000000000000815260040160405180910390fd5b836000806101000a81548173ffffffffffffffffffffffffffffffffffffffff021916908373ffffffffffffffffffffffffffffffffffffffff16021790555081600160006101000a81548173ffffffffffffffffffffffffffffffffffffffff021916908373ffffffffffffffffffffffffffffffffffffffff16021790555082600260006101000a81548173ffffffffffffffffffffffffffffffffffffffff021916908373ffffffffffffffffffffffffffffffffffffffff16021790555033600660006101000a81548173ffffffffffffffffffffffffffffffffffffffff021916908373ffffffffffffffffffffffffffffffffffffffff16021790555080600760006101000a81548173ffffffffffffffffffffffffffffffffffffffff021916908373ffffffffffffffffffffffffffffffffffffffff16021790555050505050620003bc565b600080fd5b600073ffffffffffffffffffffffffffffffffffffffff82169050919050565b60006200031282620002e5565b9050919050565b620003248162000305565b81146200033057600080fd5b50565b600081519050620003448162000319565b92915050565b60008060008060808587031215620003675762000366620002e0565b5b6000620003778782880162000333565b94505060206200038a8782880162000333565b93505060406200039d8782880162000333565b9250506060620003b08782880162000333565b91505092959194509250565b61173980620003cc6000396000f3fe608060405234801561001057600080fd5b50600436106100ea5760003560e01c806393c30c0f1161008c578063b7013dc111610066578063b7013dc114610227578063b77cf9c614610245578063f897a22b14610275578063ffd2a7d314610293576100ea565b806393c30c0f146101bd57806394e326f7146101ed578063b1a997fa14610209576100ea565b80634dd665d4116100c85780634dd665d4146101495780636334fd8d1461016757806367a5cd06146101855780637d6cf6ae146101a1576100ea565b80631303600d146100ef578063416add6a1461010d57806349d3a0c11461012b575b600080fd5b6100f76102b3565b60405161010491906111e1565b60405180910390f35b6101156102b9565b604051610122919061127b565b60405180910390f35b6101336102dd565b60405161014091906111e1565b60405180910390f35b6101516102e4565b60405161015e91906111e1565b60405180910390f35b61016f6102ea565b60405161017c919061127b565b60405180910390f35b61019f600480360381019061019a91906112d9565b610310565b005b6101bb60048036038101906101b69190611332565b61073d565b005b6101d760048036038101906101d291906112d9565b6107ea565b6040516101e491906111e1565b60405180910390f35b61020760048036038101906102029190611385565b610841565b005b610211610bd9565b60405161021e91906111e1565b60405180910390f35b61022f610bdf565b60405161023c91906111e1565b60405180910390f35b61025f600480360381019061025a91906112d9565b610cda565b60405161026c91906111e1565b60405180910390f35b61027d610cf2565b60405161028a919061127b565b60405180910390f35b61029b610d18565b6040516102aa939291906113c5565b60405180910390f35b60045481565b60008054906101000a900473ffffffffffffffffffffffffffffffffffffffff1681565b6201518081565b60035481565b600160009054906101000a900473ffffffffffffffffffffffffffffffffffffffff1681565b600760009054906101000a900473ffffffffffffffffffffffffffffffffffffffff1673ffffffffffffffffffffffffffffffffffffffff163373ffffffffffffffffffffffffffffffffffffffff161461036a57600080fd5b600073ffffffffffffffffffffffffffffffffffffffff163373ffffffffffffffffffffffffffffffffffffffff16036103d0576040517fd92e233d00000000000000000000000000000000000000000000000000000000815260040160405180910390fd5b600062015180600860008473ffffffffffffffffffffffffffffffffffffffff1673ffffffffffffffffffffffffffffffffffffffff16815260200190815260200160002054610420919061142b565b905080421015610472574281610436919061145f565b6040517f854f3dd000000000000000000000000000000000000000000000000000000000815260040161046991906111e1565b60405180910390fd5b60006040518060600160405280604051806040016040528060008054906101000a900473ffffffffffffffffffffffffffffffffffffffff1673ffffffffffffffffffffffffffffffffffffffff16815260200160035481525081526020016040518060400160405280600260009054906101000a900473ffffffffffffffffffffffffffffffffffffffff1673ffffffffffffffffffffffffffffffffffffffff16815260200160055481525081526020016040518060400160405280600160009054906101000a900473ffffffffffffffffffffffffffffffffffffffff1673ffffffffffffffffffffffffffffffffffffffff168152602001600454815250815250905060005b60038110156106b057600082826003811061059a57610599611493565b5b60200201516000015173ffffffffffffffffffffffffffffffffffffffff166370a08231306040518263ffffffff1660e01b81526004016105db91906114d1565b602060405180830381865afa1580156105f8573d6000803e3d6000fd5b505050506040513d601f19601f8201168201806040525081019061061c9190611501565b905082826003811061063157610630611493565b5b60200201516020015181106106a2576106a18584846003811061065757610656611493565b5b60200201516020015185856003811061067357610672611493565b5b60200201516000015173ffffffffffffffffffffffffffffffffffffffff16610efb9092919063ffffffff16565b5b50808060010191505061057c565b5042600860008573ffffffffffffffffffffffffffffffffffffffff1673ffffffffffffffffffffffffffffffffffffffff168152602001908152602001600020819055508273ffffffffffffffffffffffffffffffffffffffff167fb638240958296a5b145c2f18c8ec62f72a20911efab2d38fb48c76695373761f60405160405180910390a2505050565b600660009054906101000a900473ffffffffffffffffffffffffffffffffffffffff1673ffffffffffffffffffffffffffffffffffffffff163373ffffffffffffffffffffffffffffffffffffffff161461079757600080fd5b670de0b6b3a7640000836107ab919061152e565b600381905550670de0b6b3a7640000826107c5919061152e565b600581905550670de0b6b3a7640000816107df919061152e565b600481905550505050565b600062015180600860008473ffffffffffffffffffffffffffffffffffffffff1673ffffffffffffffffffffffffffffffffffffffff1681526020019081526020016000205461083a919061142b565b9050919050565b600660009054906101000a900473ffffffffffffffffffffffffffffffffffffffff1673ffffffffffffffffffffffffffffffffffffffff163373ffffffffffffffffffffffffffffffffffffffff161461089b57600080fd5b600073ffffffffffffffffffffffffffffffffffffffff168273ffffffffffffffffffffffffffffffffffffffff1603610901576040517fd92e233d00000000000000000000000000000000000000000000000000000000815260040160405180910390fd5b600073ffffffffffffffffffffffffffffffffffffffff168173ffffffffffffffffffffffffffffffffffffffff1603610967576040517fd92e233d00000000000000000000000000000000000000000000000000000000815260040160405180910390fd5b60008060009054906101000a900473ffffffffffffffffffffffffffffffffffffffff1673ffffffffffffffffffffffffffffffffffffffff168273ffffffffffffffffffffffffffffffffffffffff16036109e55760008054906101000a900473ffffffffffffffffffffffffffffffffffffffff169050610b20565b600260009054906101000a900473ffffffffffffffffffffffffffffffffffffffff1673ffffffffffffffffffffffffffffffffffffffff168273ffffffffffffffffffffffffffffffffffffffff1603610a6457600260009054906101000a900473ffffffffffffffffffffffffffffffffffffffff169050610b1f565b600160009054906101000a900473ffffffffffffffffffffffffffffffffffffffff1673ffffffffffffffffffffffffffffffffffffffff168273ffffffffffffffffffffffffffffffffffffffff1603610ae357600160009054906101000a900473ffffffffffffffffffffffffffffffffffffffff169050610b1e565b6040517f08c379a0000000000000000000000000000000000000000000000000000000008152600401610b15906115cd565b60405180910390fd5b5b5b60008173ffffffffffffffffffffffffffffffffffffffff166370a08231306040518263ffffffff1660e01b8152600401610b5b91906114d1565b602060405180830381865afa158015610b78573d6000803e3d6000fd5b505050506040513d601f19601f82011682018060405250810190610b9c9190611501565b90506000811115610bd357610bd284828473ffffffffffffffffffffffffffffffffffffffff16610efb9092919063ffffffff16565b5b50505050565b60055481565b6000600660009054906101000a900473ffffffffffffffffffffffffffffffffffffffff1673ffffffffffffffffffffffffffffffffffffffff163373ffffffffffffffffffffffffffffffffffffffff1614610c3b57600080fd5b60008054906101000a900473ffffffffffffffffffffffffffffffffffffffff1673ffffffffffffffffffffffffffffffffffffffff166370a08231336040518263ffffffff1660e01b8152600401610c9491906114d1565b602060405180830381865afa158015610cb1573d6000803e3d6000fd5b505050506040513d601f19601f82011682018060405250810190610cd59190611501565b905090565b60086020528060005260406000206000915090505481565b600260009054906101000a900473ffffffffffffffffffffffffffffffffffffffff1681565b60008060008060009054906101000a900473ffffffffffffffffffffffffffffffffffffffff1673ffffffffffffffffffffffffffffffffffffffff166370a08231306040518263ffffffff1660e01b8152600401610d7791906114d1565b602060405180830381865afa158015610d94573d6000803e3d6000fd5b505050506040513d601f19601f82011682018060405250810190610db89190611501565b600260009054906101000a900473ffffffffffffffffffffffffffffffffffffffff1673ffffffffffffffffffffffffffffffffffffffff166370a08231306040518263ffffffff1660e01b8152600401610e1391906114d1565b602060405180830381865afa158015610e30573d6000803e3d6000fd5b505050506040513d601f19601f82011682018060405250810190610e549190611501565b600160009054906101000a900473ffffffffffffffffffffffffffffffffffffffff1673ffffffffffffffffffffffffffffffffffffffff166370a08231306040518263ffffffff1660e01b8152600401610eaf91906114d1565b602060405180830381865afa158015610ecc573d6000803e3d6000fd5b505050506040513d601f19601f82011682018060405250810190610ef09190611501565b925092509250909192565b610f75838473ffffffffffffffffffffffffffffffffffffffff1663a9059cbb8585604051602401610f2e9291906115ed565b604051602081830303815290604052915060e01b6020820180517bffffffffffffffffffffffffffffffffffffffffffffffffffffffff8381831617835250505050610f7a565b505050565b6000610fa5828473ffffffffffffffffffffffffffffffffffffffff1661101190919063ffffffff16565b90506000815114158015610fca575080806020019051810190610fc8919061164e565b155b1561100c57826040517f5274afe700000000000000000000000000000000000000000000000000000000815260040161100391906114d1565b60405180910390fd5b505050565b606061101f83836000611027565b905092915050565b60608147101561106e57306040517fcd78605900000000000000000000000000000000000000000000000000000000815260040161106591906114d1565b60405180910390fd5b6000808573ffffffffffffffffffffffffffffffffffffffff16848660405161109791906116ec565b60006040518083038185875af1925050503d80600081146110d4576040519150601f19603f3d011682016040523d82523d6000602084013e6110d9565b606091505b50915091506110e98683836110f4565b925050509392505050565b6060826111095761110482611183565b61117b565b60008251148015611131575060008473ffffffffffffffffffffffffffffffffffffffff163b145b1561117357836040517f9996b31500000000000000000000000000000000000000000000000000000000815260040161116a91906114d1565b60405180910390fd5b81905061117c565b5b9392505050565b6000815111156111965780518082602001fd5b6040517f1425ea4200000000000000000000000000000000000000000000000000000000815260040160405180910390fd5b6000819050919050565b6111db816111c8565b82525050565b60006020820190506111f660008301846111d2565b92915050565b600073ffffffffffffffffffffffffffffffffffffffff82169050919050565b6000819050919050565b600061124161123c611237846111fc565b61121c565b6111fc565b9050919050565b600061125382611226565b9050919050565b600061126582611248565b9050919050565b6112758161125a565b82525050565b6000602082019050611290600083018461126c565b92915050565b600080fd5b60006112a6826111fc565b9050919050565b6112b68161129b565b81146112c157600080fd5b50565b6000813590506112d3816112ad565b92915050565b6000602082840312156112ef576112ee611296565b5b60006112fd848285016112c4565b91505092915050565b61130f816111c8565b811461131a57600080fd5b50565b60008135905061132c81611306565b92915050565b60008060006060848603121561134b5761134a611296565b5b60006113598682870161131d565b935050602061136a8682870161131d565b925050604061137b8682870161131d565b9150509250925092565b6000806040838503121561139c5761139b611296565b5b60006113aa858286016112c4565b92505060206113bb858286016112c4565b9150509250929050565b60006060820190506113da60008301866111d2565b6113e760208301856111d2565b6113f460408301846111d2565b949350505050565b7f4e487b7100000000000000000000000000000000000000000000000000000000600052601160045260246000fd5b6000611436826111c8565b9150611441836111c8565b9250828201905080821115611459576114586113fc565b5b92915050565b600061146a826111c8565b9150611475836111c8565b925082820390508181111561148d5761148c6113fc565b5b92915050565b7f4e487b7100000000000000000000000000000000000000000000000000000000600052603260045260246000fd5b6114cb8161129b565b82525050565b60006020820190506114e660008301846114c2565b92915050565b6000815190506114fb81611306565b92915050565b60006020828403121561151757611516611296565b5b6000611525848285016114ec565b91505092915050565b6000611539826111c8565b9150611544836111c8565b9250828202611552816111c8565b91508282048414831517611569576115686113fc565b5b5092915050565b600082825260208201905092915050565b7f496e76616c696420746f6b656e20616464726573730000000000000000000000600082015250565b60006115b7601583611570565b91506115c282611581565b602082019050919050565b600060208201905081810360008301526115e6816115aa565b9050919050565b600060408201905061160260008301856114c2565b61160f60208301846111d2565b9392505050565b60008115159050919050565b61162b81611616565b811461163657600080fd5b50565b60008151905061164881611622565b92915050565b60006020828403121561166457611663611296565b5b600061167284828501611639565b91505092915050565b600081519050919050565b600081905092915050565b60005b838110156116af578082015181840152602081019050611694565b60008484015250505050565b60006116c68261167b565b6116d08185611686565b93506116e0818560208601611691565b80840191505092915050565b60006116f882846116bb565b91508190509291505056fea2646970667358221220e8de2b58d83290e8f43f56c02519a75741cac70daf725c07881b98287c5d6cc464736f6c63430008180033",
  "linkReferences": {},
  "deployedLinkReferences": {}
}